{
  "_format": "hh-sol-artifact-1",
  "contractName": "CErc20",
  "sourceName": "contracts/markets/CErc20.sol",
  "abi": [
    {
      "anonymous": false,
      "inputs": [
        {
          "indexed": false,
          "internalType": "uint256",
          "name": "cashPrior",
          "type": "uint256"
        },
        {
          "indexed": false,
          "internalType": "uint256",
          "name": "interestAccumulated",
          "type": "uint256"
        },
        {
          "indexed": false,
          "internalType": "uint256",
          "name": "borrowIndex",
          "type": "uint256"
        },
        {
          "indexed": false,
          "internalType": "uint256",
          "name": "totalBorrows",
          "type": "uint256"
        }
      ],
      "name": "AccrueInterest",
      "type": "event"
    },
    {
      "anonymous": false,
      "inputs": [
        {
          "indexed": true,
          "internalType": "address",
          "name": "owner",
          "type": "address"
        },
        {
          "indexed": true,
          "internalType": "address",
          "name": "spender",
          "type": "address"
        },
        {
          "indexed": false,
          "internalType": "uint256",
          "name": "amount",
          "type": "uint256"
        }
      ],
      "name": "Approval",
      "type": "event"
    },
    {
      "anonymous": false,
      "inputs": [
        {
          "indexed": false,
          "internalType": "address",
          "name": "borrower",
          "type": "address"
        },
        {
          "indexed": false,
          "internalType": "uint256",
          "name": "borrowAmount",
          "type": "uint256"
        },
        {
          "indexed": false,
          "internalType": "uint256",
          "name": "accountBorrows",
          "type": "uint256"
        },
        {
          "indexed": false,
          "internalType": "uint256",
          "name": "totalBorrows",
          "type": "uint256"
        }
      ],
      "name": "Borrow",
      "type": "event"
    },
    {
      "anonymous": false,
      "inputs": [
        {
          "indexed": false,
          "internalType": "uint256",
          "name": "error",
          "type": "uint256"
        },
        {
          "indexed": false,
          "internalType": "uint256",
          "name": "info",
          "type": "uint256"
        },
        {
          "indexed": false,
          "internalType": "uint256",
          "name": "detail",
          "type": "uint256"
        }
      ],
      "name": "Failure",
      "type": "event"
    },
    {
      "anonymous": false,
      "inputs": [
        {
          "indexed": false,
          "internalType": "address",
          "name": "liquidator",
          "type": "address"
        },
        {
          "indexed": false,
          "internalType": "address",
          "name": "borrower",
          "type": "address"
        },
        {
          "indexed": false,
          "internalType": "uint256",
          "name": "repayAmount",
          "type": "uint256"
        },
        {
          "indexed": false,
          "internalType": "address",
          "name": "cTokenCollateral",
          "type": "address"
        },
        {
          "indexed": false,
          "internalType": "uint256",
          "name": "seizeTokens",
          "type": "uint256"
        }
      ],
      "name": "LiquidateBorrow",
      "type": "event"
    },
    {
      "anonymous": false,
      "inputs": [
        {
          "indexed": false,
          "internalType": "address",
          "name": "minter",
          "type": "address"
        },
        {
          "indexed": false,
          "internalType": "uint256",
          "name": "mintAmount",
          "type": "uint256"
        },
        {
          "indexed": false,
          "internalType": "uint256",
          "name": "mintTokens",
          "type": "uint256"
        }
      ],
      "name": "Mint",
      "type": "event"
    },
    {
      "anonymous": false,
      "inputs": [
        {
          "indexed": false,
          "internalType": "address",
          "name": "oldAdmin",
          "type": "address"
        },
        {
          "indexed": false,
          "internalType": "address",
          "name": "newAdmin",
          "type": "address"
        }
      ],
      "name": "NewAdmin",
      "type": "event"
    },
    {
      "anonymous": false,
      "inputs": [
        {
          "indexed": false,
          "internalType": "contract ComptrollerInterface",
          "name": "oldComptroller",
          "type": "address"
        },
        {
          "indexed": false,
          "internalType": "contract ComptrollerInterface",
          "name": "newComptroller",
          "type": "address"
        }
      ],
      "name": "NewComptroller",
      "type": "event"
    },
    {
      "anonymous": false,
      "inputs": [
        {
          "indexed": false,
          "internalType": "contract InterestRateModel",
          "name": "oldInterestRateModel",
          "type": "address"
        },
        {
          "indexed": false,
          "internalType": "contract InterestRateModel",
          "name": "newInterestRateModel",
          "type": "address"
        }
      ],
      "name": "NewMarketInterestRateModel",
      "type": "event"
    },
    {
      "anonymous": false,
      "inputs": [
        {
          "indexed": false,
          "internalType": "address",
          "name": "oldPendingAdmin",
          "type": "address"
        },
        {
          "indexed": false,
          "internalType": "address",
          "name": "newPendingAdmin",
          "type": "address"
        }
      ],
      "name": "NewPendingAdmin",
      "type": "event"
    },
    {
      "anonymous": false,
      "inputs": [
        {
          "indexed": false,
          "internalType": "uint256",
          "name": "oldProtocolSeizeShareMantissa",
          "type": "uint256"
        },
        {
          "indexed": false,
          "internalType": "uint256",
          "name": "newProtocolSeizeShareMantissa",
          "type": "uint256"
        }
      ],
      "name": "NewProtocolSeizeShare",
      "type": "event"
    },
    {
      "anonymous": false,
      "inputs": [
        {
          "indexed": false,
          "internalType": "uint256",
          "name": "oldReserveFactorMantissa",
          "type": "uint256"
        },
        {
          "indexed": false,
          "internalType": "uint256",
          "name": "newReserveFactorMantissa",
          "type": "uint256"
        }
      ],
      "name": "NewReserveFactor",
      "type": "event"
    },
    {
      "anonymous": false,
      "inputs": [
        {
          "indexed": false,
          "internalType": "address",
          "name": "redeemer",
          "type": "address"
        },
        {
          "indexed": false,
          "internalType": "uint256",
          "name": "redeemAmount",
          "type": "uint256"
        },
        {
          "indexed": false,
          "internalType": "uint256",
          "name": "redeemTokens",
          "type": "uint256"
        }
      ],
      "name": "Redeem",
      "type": "event"
    },
    {
      "anonymous": false,
      "inputs": [
        {
          "indexed": false,
          "internalType": "address",
          "name": "payer",
          "type": "address"
        },
        {
          "indexed": false,
          "internalType": "address",
          "name": "borrower",
          "type": "address"
        },
        {
          "indexed": false,
          "internalType": "uint256",
          "name": "repayAmount",
          "type": "uint256"
        },
        {
          "indexed": false,
          "internalType": "uint256",
          "name": "accountBorrows",
          "type": "uint256"
        },
        {
          "indexed": false,
          "internalType": "uint256",
          "name": "totalBorrows",
          "type": "uint256"
        }
      ],
      "name": "RepayBorrow",
      "type": "event"
    },
    {
      "anonymous": false,
      "inputs": [
        {
          "indexed": false,
          "internalType": "address",
          "name": "benefactor",
          "type": "address"
        },
        {
          "indexed": false,
          "internalType": "uint256",
          "name": "addAmount",
          "type": "uint256"
        },
        {
          "indexed": false,
          "internalType": "uint256",
          "name": "newTotalReserves",
          "type": "uint256"
        }
      ],
      "name": "ReservesAdded",
      "type": "event"
    },
    {
      "anonymous": false,
      "inputs": [
        {
          "indexed": false,
          "internalType": "address",
          "name": "admin",
          "type": "address"
        },
        {
          "indexed": false,
          "internalType": "uint256",
          "name": "reduceAmount",
          "type": "uint256"
        },
        {
          "indexed": false,
          "internalType": "uint256",
          "name": "newTotalReserves",
          "type": "uint256"
        }
      ],
      "name": "ReservesReduced",
      "type": "event"
    },
    {
      "anonymous": false,
      "inputs": [
        {
          "indexed": true,
          "internalType": "address",
          "name": "from",
          "type": "address"
        },
        {
          "indexed": true,
          "internalType": "address",
          "name": "to",
          "type": "address"
        },
        {
          "indexed": false,
          "internalType": "uint256",
          "name": "amount",
          "type": "uint256"
        }
      ],
      "name": "Transfer",
      "type": "event"
    },
    {
      "constant": false,
      "inputs": [],
      "name": "_acceptAdmin",
      "outputs": [
        {
          "internalType": "uint256",
          "name": "",
          "type": "uint256"
        }
      ],
      "payable": false,
      "stateMutability": "nonpayable",
      "type": "function"
    },
    {
      "constant": false,
      "inputs": [
        {
          "internalType": "uint256",
          "name": "addAmount",
          "type": "uint256"
        }
      ],
      "name": "_addReserves",
      "outputs": [
        {
          "internalType": "uint256",
          "name": "",
          "type": "uint256"
        }
      ],
      "payable": false,
      "stateMutability": "nonpayable",
      "type": "function"
    },
    {
      "constant": false,
      "inputs": [
        {
          "internalType": "uint256",
          "name": "reduceAmount",
          "type": "uint256"
        }
      ],
      "name": "_reduceReserves",
      "outputs": [
        {
          "internalType": "uint256",
          "name": "",
          "type": "uint256"
        }
      ],
      "payable": false,
      "stateMutability": "nonpayable",
      "type": "function"
    },
    {
      "constant": false,
      "inputs": [
        {
          "internalType": "contract ComptrollerInterface",
          "name": "newComptroller",
          "type": "address"
        }
      ],
      "name": "_setComptroller",
      "outputs": [
        {
          "internalType": "uint256",
          "name": "",
          "type": "uint256"
        }
      ],
      "payable": false,
      "stateMutability": "nonpayable",
      "type": "function"
    },
    {
      "constant": false,
      "inputs": [
        {
          "internalType": "contract InterestRateModel",
          "name": "newInterestRateModel",
          "type": "address"
        }
      ],
      "name": "_setInterestRateModel",
      "outputs": [
        {
          "internalType": "uint256",
          "name": "",
          "type": "uint256"
        }
      ],
      "payable": false,
      "stateMutability": "nonpayable",
      "type": "function"
    },
    {
      "constant": false,
      "inputs": [
        {
          "internalType": "address payable",
          "name": "newPendingAdmin",
          "type": "address"
        }
      ],
      "name": "_setPendingAdmin",
      "outputs": [
        {
          "internalType": "uint256",
          "name": "",
          "type": "uint256"
        }
      ],
      "payable": false,
      "stateMutability": "nonpayable",
      "type": "function"
    },
    {
      "constant": false,
      "inputs": [
        {
          "internalType": "uint256",
          "name": "newProtocolSeizeShareMantissa",
          "type": "uint256"
        }
      ],
      "name": "_setProtocolSeizeShare",
      "outputs": [
        {
          "internalType": "uint256",
          "name": "",
          "type": "uint256"
        }
      ],
      "payable": false,
      "stateMutability": "nonpayable",
      "type": "function"
    },
    {
      "constant": false,
      "inputs": [
        {
          "internalType": "uint256",
          "name": "newReserveFactorMantissa",
          "type": "uint256"
        }
      ],
      "name": "_setReserveFactor",
      "outputs": [
        {
          "internalType": "uint256",
          "name": "",
          "type": "uint256"
        }
      ],
      "payable": false,
      "stateMutability": "nonpayable",
      "type": "function"
    },
    {
      "constant": true,
      "inputs": [],
      "name": "accrualBlockNumber",
      "outputs": [
        {
          "internalType": "uint256",
          "name": "",
          "type": "uint256"
        }
      ],
      "payable": false,
      "stateMutability": "view",
      "type": "function"
    },
    {
      "constant": false,
      "inputs": [],
      "name": "accrueInterest",
      "outputs": [
        {
          "internalType": "uint256",
          "name": "",
          "type": "uint256"
        }
      ],
      "payable": false,
      "stateMutability": "nonpayable",
      "type": "function"
    },
    {
      "constant": true,
      "inputs": [],
      "name": "admin",
      "outputs": [
        {
          "internalType": "address payable",
          "name": "",
          "type": "address"
        }
      ],
      "payable": false,
      "stateMutability": "view",
      "type": "function"
    },
    {
      "constant": true,
      "inputs": [
        {
          "internalType": "address",
          "name": "owner",
          "type": "address"
        },
        {
          "internalType": "address",
          "name": "spender",
          "type": "address"
        }
      ],
      "name": "allowance",
      "outputs": [
        {
          "internalType": "uint256",
          "name": "",
          "type": "uint256"
        }
      ],
      "payable": false,
      "stateMutability": "view",
      "type": "function"
    },
    {
      "constant": false,
      "inputs": [
        {
          "internalType": "address",
          "name": "spender",
          "type": "address"
        },
        {
          "internalType": "uint256",
          "name": "amount",
          "type": "uint256"
        }
      ],
      "name": "approve",
      "outputs": [
        {
          "internalType": "bool",
          "name": "",
          "type": "bool"
        }
      ],
      "payable": false,
      "stateMutability": "nonpayable",
      "type": "function"
    },
    {
      "constant": true,
      "inputs": [
        {
          "internalType": "address",
          "name": "owner",
          "type": "address"
        }
      ],
      "name": "balanceOf",
      "outputs": [
        {
          "internalType": "uint256",
          "name": "",
          "type": "uint256"
        }
      ],
      "payable": false,
      "stateMutability": "view",
      "type": "function"
    },
    {
      "constant": true,
      "inputs": [
        {
          "internalType": "address",
          "name": "owner",
          "type": "address"
        }
      ],
      "name": "balanceOfUnderlying",
      "outputs": [
        {
          "internalType": "uint256",
          "name": "",
          "type": "uint256"
        }
      ],
      "payable": false,
      "stateMutability": "view",
      "type": "function"
    },
    {
      "constant": false,
      "inputs": [
        {
          "internalType": "uint256",
          "name": "borrowAmount",
          "type": "uint256"
        }
      ],
      "name": "borrow",
      "outputs": [
        {
          "internalType": "uint256",
          "name": "",
          "type": "uint256"
        }
      ],
      "payable": false,
      "stateMutability": "nonpayable",
      "type": "function"
    },
    {
      "constant": false,
      "inputs": [
        {
          "internalType": "address",
          "name": "account",
          "type": "address"
        }
      ],
      "name": "borrowBalanceCurrent",
      "outputs": [
        {
          "internalType": "uint256",
          "name": "",
          "type": "uint256"
        }
      ],
      "payable": false,
      "stateMutability": "nonpayable",
      "type": "function"
    },
    {
      "constant": true,
      "inputs": [
        {
          "internalType": "address",
          "name": "account",
          "type": "address"
        }
      ],
      "name": "borrowBalanceStored",
      "outputs": [
        {
          "internalType": "uint256",
          "name": "",
          "type": "uint256"
        }
      ],
      "payable": false,
      "stateMutability": "view",
      "type": "function"
    },
    {
      "constant": true,
      "inputs": [],
      "name": "borrowIndex",
      "outputs": [
        {
          "internalType": "uint256",
          "name": "",
          "type": "uint256"
        }
      ],
      "payable": false,
      "stateMutability": "view",
      "type": "function"
    },
    {
      "constant": true,
      "inputs": [],
      "name": "borrowRatePerBlock",
      "outputs": [
        {
          "internalType": "uint256",
          "name": "",
          "type": "uint256"
        }
      ],
      "payable": false,
      "stateMutability": "view",
      "type": "function"
    },
    {
      "constant": true,
      "inputs": [],
      "name": "comptroller",
      "outputs": [
        {
          "internalType": "contract ComptrollerInterface",
          "name": "",
          "type": "address"
        }
      ],
      "payable": false,
      "stateMutability": "view",
      "type": "function"
    },
    {
      "constant": true,
      "inputs": [],
      "name": "decimals",
      "outputs": [
        {
          "internalType": "uint8",
          "name": "",
          "type": "uint8"
        }
      ],
      "payable": false,
      "stateMutability": "view",
      "type": "function"
    },
    {
      "constant": true,
      "inputs": [],
      "name": "exchangeRateCurrent",
      "outputs": [
        {
          "internalType": "uint256",
          "name": "",
          "type": "uint256"
        }
      ],
      "payable": false,
      "stateMutability": "view",
      "type": "function"
    },
    {
      "constant": true,
      "inputs": [],
      "name": "exchangeRateStored",
      "outputs": [
        {
          "internalType": "uint256",
          "name": "",
          "type": "uint256"
        }
      ],
      "payable": false,
      "stateMutability": "view",
      "type": "function"
    },
    {
      "constant": true,
      "inputs": [
        {
          "internalType": "address",
          "name": "account",
          "type": "address"
        }
      ],
      "name": "getAccountSnapshot",
      "outputs": [
        {
          "internalType": "uint256",
          "name": "",
          "type": "uint256"
        },
        {
          "internalType": "uint256",
          "name": "",
          "type": "uint256"
        },
        {
          "internalType": "uint256",
          "name": "",
          "type": "uint256"
        },
        {
          "internalType": "uint256",
          "name": "",
          "type": "uint256"
        }
      ],
      "payable": false,
      "stateMutability": "view",
      "type": "function"
    },
    {
      "constant": true,
      "inputs": [],
      "name": "getCash",
      "outputs": [
        {
          "internalType": "uint256",
          "name": "",
          "type": "uint256"
        }
      ],
      "payable": false,
      "stateMutability": "view",
      "type": "function"
    },
    {
      "constant": false,
      "inputs": [
        {
          "internalType": "address",
          "name": "underlying_",
          "type": "address"
        },
        {
          "internalType": "contract ComptrollerInterface",
          "name": "comptroller_",
          "type": "address"
        },
        {
          "internalType": "contract InterestRateModel",
          "name": "interestRateModel_",
          "type": "address"
        },
        {
          "internalType": "uint256",
          "name": "initialExchangeRateMantissa_",
          "type": "uint256"
        },
        {
          "internalType": "string",
          "name": "name_",
          "type": "string"
        },
        {
          "internalType": "string",
          "name": "symbol_",
          "type": "string"
        },
        {
          "internalType": "uint8",
          "name": "decimals_",
          "type": "uint8"
        }
      ],
      "name": "initialize",
      "outputs": [],
      "payable": false,
      "stateMutability": "nonpayable",
      "type": "function"
    },
    {
      "constant": false,
      "inputs": [
        {
          "internalType": "contract ComptrollerInterface",
          "name": "comptroller_",
          "type": "address"
        },
        {
          "internalType": "contract InterestRateModel",
          "name": "interestRateModel_",
          "type": "address"
        },
        {
          "internalType": "uint256",
          "name": "initialExchangeRateMantissa_",
          "type": "uint256"
        },
        {
          "internalType": "string",
          "name": "name_",
          "type": "string"
        },
        {
          "internalType": "string",
          "name": "symbol_",
          "type": "string"
        },
        {
          "internalType": "uint8",
          "name": "decimals_",
          "type": "uint8"
        }
      ],
      "name": "initialize",
      "outputs": [],
      "payable": false,
      "stateMutability": "nonpayable",
      "type": "function"
    },
    {
      "constant": true,
      "inputs": [],
      "name": "interestRateModel",
      "outputs": [
        {
          "internalType": "contract InterestRateModel",
          "name": "",
          "type": "address"
        }
      ],
      "payable": false,
      "stateMutability": "view",
      "type": "function"
    },
    {
      "constant": true,
      "inputs": [],
      "name": "isCToken",
      "outputs": [
        {
          "internalType": "bool",
          "name": "",
          "type": "bool"
        }
      ],
      "payable": false,
      "stateMutability": "view",
      "type": "function"
    },
    {
      "constant": false,
      "inputs": [
        {
          "internalType": "address",
          "name": "borrower",
          "type": "address"
        },
        {
          "internalType": "uint256",
          "name": "repayAmount",
          "type": "uint256"
        },
        {
          "internalType": "contract CTokenInterface",
          "name": "cTokenCollateral",
          "type": "address"
        }
      ],
      "name": "liquidateBorrow",
      "outputs": [
        {
          "internalType": "uint256",
          "name": "",
          "type": "uint256"
        }
      ],
      "payable": false,
      "stateMutability": "nonpayable",
      "type": "function"
    },
    {
      "constant": false,
      "inputs": [
        {
          "internalType": "uint256",
          "name": "mintAmount",
          "type": "uint256"
        },
        {
          "internalType": "bool",
          "name": "enterMarket",
          "type": "bool"
        }
      ],
      "name": "mint",
      "outputs": [
        {
          "internalType": "uint256",
          "name": "",
          "type": "uint256"
        }
      ],
      "payable": false,
      "stateMutability": "nonpayable",
      "type": "function"
    },
    {
      "constant": true,
      "inputs": [],
      "name": "name",
      "outputs": [
        {
          "internalType": "string",
          "name": "",
          "type": "string"
        }
      ],
      "payable": false,
      "stateMutability": "view",
      "type": "function"
    },
    {
      "constant": true,
      "inputs": [],
      "name": "pendingAdmin",
      "outputs": [
        {
          "internalType": "address payable",
          "name": "",
          "type": "address"
        }
      ],
      "payable": false,
      "stateMutability": "view",
      "type": "function"
    },
    {
      "constant": true,
      "inputs": [],
      "name": "protocolSeizeShareMantissa",
      "outputs": [
        {
          "internalType": "uint256",
          "name": "",
          "type": "uint256"
        }
      ],
      "payable": false,
      "stateMutability": "view",
      "type": "function"
    },
    {
      "constant": false,
      "inputs": [
        {
          "internalType": "uint256",
          "name": "redeemTokens",
          "type": "uint256"
        }
      ],
      "name": "redeem",
      "outputs": [
        {
          "internalType": "uint256",
          "name": "",
          "type": "uint256"
        }
      ],
      "payable": false,
      "stateMutability": "nonpayable",
      "type": "function"
    },
    {
      "constant": false,
      "inputs": [
        {
          "internalType": "uint256",
          "name": "redeemAmount",
          "type": "uint256"
        }
      ],
      "name": "redeemUnderlying",
      "outputs": [
        {
          "internalType": "uint256",
          "name": "",
          "type": "uint256"
        }
      ],
      "payable": false,
      "stateMutability": "nonpayable",
      "type": "function"
    },
    {
      "constant": false,
      "inputs": [
        {
          "internalType": "uint256",
          "name": "repayAmount",
          "type": "uint256"
        }
      ],
      "name": "repayBorrow",
      "outputs": [
        {
          "internalType": "uint256",
          "name": "",
          "type": "uint256"
        }
      ],
      "payable": false,
      "stateMutability": "nonpayable",
      "type": "function"
    },
    {
      "constant": false,
      "inputs": [
        {
          "internalType": "address",
          "name": "borrower",
          "type": "address"
        },
        {
          "internalType": "uint256",
          "name": "repayAmount",
          "type": "uint256"
        }
      ],
      "name": "repayBorrowBehalf",
      "outputs": [
        {
          "internalType": "uint256",
          "name": "",
          "type": "uint256"
        }
      ],
      "payable": false,
      "stateMutability": "nonpayable",
      "type": "function"
    },
    {
      "constant": true,
      "inputs": [],
      "name": "reserveFactorMantissa",
      "outputs": [
        {
          "internalType": "uint256",
          "name": "",
          "type": "uint256"
        }
      ],
      "payable": false,
      "stateMutability": "view",
      "type": "function"
    },
    {
      "constant": false,
      "inputs": [
        {
          "internalType": "address",
          "name": "liquidator",
          "type": "address"
        },
        {
          "internalType": "address",
          "name": "borrower",
          "type": "address"
        },
        {
          "internalType": "uint256",
          "name": "seizeTokens",
          "type": "uint256"
        }
      ],
      "name": "seize",
      "outputs": [
        {
          "internalType": "uint256",
          "name": "",
          "type": "uint256"
        }
      ],
      "payable": false,
      "stateMutability": "nonpayable",
      "type": "function"
    },
    {
      "constant": true,
      "inputs": [],
      "name": "supplyRatePerBlock",
      "outputs": [
        {
          "internalType": "uint256",
          "name": "",
          "type": "uint256"
        }
      ],
      "payable": false,
      "stateMutability": "view",
      "type": "function"
    },
    {
      "constant": true,
      "inputs": [],
      "name": "symbol",
      "outputs": [
        {
          "internalType": "string",
          "name": "",
          "type": "string"
        }
      ],
      "payable": false,
      "stateMutability": "view",
      "type": "function"
    },
    {
      "constant": true,
      "inputs": [],
      "name": "totalBorrows",
      "outputs": [
        {
          "internalType": "uint256",
          "name": "",
          "type": "uint256"
        }
      ],
      "payable": false,
      "stateMutability": "view",
      "type": "function"
    },
    {
      "constant": false,
      "inputs": [],
      "name": "totalBorrowsCurrent",
      "outputs": [
        {
          "internalType": "uint256",
          "name": "",
          "type": "uint256"
        }
      ],
      "payable": false,
      "stateMutability": "nonpayable",
      "type": "function"
    },
    {
      "constant": true,
      "inputs": [],
      "name": "totalReserves",
      "outputs": [
        {
          "internalType": "uint256",
          "name": "",
          "type": "uint256"
        }
      ],
      "payable": false,
      "stateMutability": "view",
      "type": "function"
    },
    {
      "constant": true,
      "inputs": [],
      "name": "totalSupply",
      "outputs": [
        {
          "internalType": "uint256",
          "name": "",
          "type": "uint256"
        }
      ],
      "payable": false,
      "stateMutability": "view",
      "type": "function"
    },
    {
      "constant": false,
      "inputs": [
        {
          "internalType": "address",
          "name": "dst",
          "type": "address"
        },
        {
          "internalType": "uint256",
          "name": "amount",
          "type": "uint256"
        }
      ],
      "name": "transfer",
      "outputs": [
        {
          "internalType": "bool",
          "name": "",
          "type": "bool"
        }
      ],
      "payable": false,
      "stateMutability": "nonpayable",
      "type": "function"
    },
    {
      "constant": false,
      "inputs": [
        {
          "internalType": "address",
          "name": "src",
          "type": "address"
        },
        {
          "internalType": "address",
          "name": "dst",
          "type": "address"
        },
        {
          "internalType": "uint256",
          "name": "amount",
          "type": "uint256"
        }
      ],
      "name": "transferFrom",
      "outputs": [
        {
          "internalType": "bool",
          "name": "",
          "type": "bool"
        }
      ],
      "payable": false,
      "stateMutability": "nonpayable",
      "type": "function"
    },
    {
      "constant": true,
      "inputs": [],
      "name": "underlying",
      "outputs": [
        {
          "internalType": "address",
          "name": "",
          "type": "address"
        }
      ],
      "payable": false,
      "stateMutability": "view",
      "type": "function"
    }
  ],
  "bytecode": "0x6080604052666379da05b6000060115534801561001b57600080fd5b506157bd806200002c6000396000f3fe608060405234801561001057600080fd5b50600436106102d65760003560e01c80638303084611610182578063bd6d894d116100e9578063f2b3abbd116100a2578063f851a4401161007c578063f851a44014610a90578063f8f9da2814610a98578063fca7820b14610aa0578063fe9c44ae14610abd576102d6565b8063f2b3abbd14610a2c578063f3fdb15a14610a52578063f5e3c46214610a5a576102d6565b8063bd6d894d14610968578063c37f68e214610970578063c5ebeaec146109bc578063db006a75146109d9578063dd62ed3e146109f6578063e9c714f214610a24576102d6565b8063a6afed951161013b578063a6afed95146108c8578063a9059cbb146108d0578063aa5af0fd146108fc578063ae9d70b014610904578063b2a02ff11461090c578063b71d1a0c14610942576102d6565b8063830308461461070a578063852a12e3146107275780638f840ddd1461074457806395d89b411461074c57806395dd91931461075457806399d8c1b41461077a576102d6565b80633af9e66911610241578063601a0bf1116101fa5780636c540baf116101d45780636c540baf146106cc5780636f307dc3146106d457806370a08231146106dc57806373acee9814610702576102d6565b8063601a0bf1146106825780636752e7021461069f57806367f68fac146106a7576102d6565b80633af9e669146106015780633b1d21a2146106275780633e9410101461062f5780634576b5db1461064c57806347bd3718146106725780635fe3b5671461067a576102d6565b8063182df0f511610293578063182df0f5146103fd5780631a31d4651461040557806323b872dd1461055d5780632608f8181461059357806326782247146105bf578063313ce567146105e3576102d6565b806306fdde03146102db578063095ea7b3146103585780630e75270214610398578063173b9904146103c757806317bfdfbc146103cf57806318160ddd146103f5575b600080fd5b6102e3610ac5565b6040805160208082528351818301528351919283929083019185019080838360005b8381101561031d578181015183820152602001610305565b50505050905090810190601f16801561034a5780820380516001836020036101000a031916815260200191505b509250505060405180910390f35b6103846004803603604081101561036e57600080fd5b506001600160a01b038135169060200135610b52565b604080519115158252519081900360200190f35b6103b5600480360360208110156103ae57600080fd5b5035610bbf565b60408051918252519081900360200190f35b6103b5610bd5565b6103b5600480360360208110156103e557600080fd5b50356001600160a01b0316610bdb565b6103b5610c9b565b6103b5610ca1565b61055b600480360360e081101561041b57600080fd5b6001600160a01b03823581169260208101358216926040820135909216916060820135919081019060a081016080820135600160201b81111561045d57600080fd5b82018360208201111561046f57600080fd5b803590602001918460018302840111600160201b8311171561049057600080fd5b91908080601f0160208091040260200160405190810160405280939291908181526020018383808284376000920191909152509295949360208101935035915050600160201b8111156104e257600080fd5b8201836020820111156104f457600080fd5b803590602001918460018302840111600160201b8311171561051557600080fd5b91908080601f0160208091040260200160405190810160405280939291908181526020018383808284376000920191909152509295505050903560ff169150610d049050565b005b6103846004803603606081101561057357600080fd5b506001600160a01b03813581169160208101359091169060400135610da3565b6103b5600480360360408110156105a957600080fd5b506001600160a01b038135169060200135610e15565b6105c7610e2b565b604080516001600160a01b039092168252519081900360200190f35b6105eb610e3a565b6040805160ff9092168252519081900360200190f35b6103b56004803603602081101561061757600080fd5b50356001600160a01b0316610e43565b6103b5610e7e565b6103b56004803603602081101561064557600080fd5b5035610e8d565b6103b56004803603602081101561066257600080fd5b50356001600160a01b0316610e98565b6103b5610fed565b6105c7610ff3565b6103b56004803603602081101561069857600080fd5b5035611002565b6103b561109d565b6103b5600480360360408110156106bd57600080fd5b508035906020013515156110a3565b6103b561126b565b6105c7611271565b6103b5600480360360208110156106f257600080fd5b50356001600160a01b0316611280565b6103b561129b565b6103b56004803603602081101561072057600080fd5b5035611351565b6103b56004803603602081101561073d57600080fd5b503561143f565b6103b561144a565b6102e3611450565b6103b56004803603602081101561076a57600080fd5b50356001600160a01b03166114a8565b61055b600480360360c081101561079057600080fd5b6001600160a01b03823581169260208101359091169160408201359190810190608081016060820135600160201b8111156107ca57600080fd5b8201836020820111156107dc57600080fd5b803590602001918460018302840111600160201b831117156107fd57600080fd5b91908080601f0160208091040260200160405190810160405280939291908181526020018383808284376000920191909152509295949360208101935035915050600160201b81111561084f57600080fd5b82018360208201111561086157600080fd5b803590602001918460018302840111600160201b8311171561088257600080fd5b91908080601f0160208091040260200160405190810160405280939291908181526020018383808284376000920191909152509295505050903560ff1691506115059050565b6103b56116ec565b610384600480360360408110156108e657600080fd5b506001600160a01b038135169060200135611a44565b6103b5611ab5565b6103b5611abb565b6103b56004803603606081101561092257600080fd5b506001600160a01b03813581169160208101359091169060400135611b5a565b6103b56004803603602081101561095857600080fd5b50356001600160a01b0316611bcb565b6103b5611c57565b6109966004803603602081101561098657600080fd5b50356001600160a01b0316611e59565b604080519485526020850193909352838301919091526060830152519081900360800190f35b6103b5600480360360208110156109d257600080fd5b5035611eee565b6103b5600480360360208110156109ef57600080fd5b5035611ef9565b6103b560048036036040811015610a0c57600080fd5b506001600160a01b0381358116916020013516611f04565b6103b5611f2f565b6103b560048036036020811015610a4257600080fd5b50356001600160a01b0316612032565b6105c761206c565b6103b560048036036060811015610a7057600080fd5b506001600160a01b0381358116916020810135916040909101351661207b565b6105c7612093565b6103b56120a7565b6103b560048036036020811015610ab657600080fd5b503561210b565b610384612189565b60018054604080516020600284861615610100026000190190941693909304601f81018490048402820184019092528181529291830182828015610b4a5780601f10610b1f57610100808354040283529160200191610b4a565b820191906000526020600020905b815481529060010190602001808311610b2d57829003601f168201915b505050505081565b336000818152600f602090815260408083206001600160a01b03871680855290835281842086905581518681529151939493909284927f8c5be1e5ebec7d5bd14f71427d1e84f3dd0314c0f7b2291e5b200ac8c7c3b925929081900390910190a360019150505b92915050565b600080610bcb8361218e565b509150505b919050565b60085481565b6000805460ff16610c20576040805162461bcd60e51b815260206004820152600a6024820152691c994b595b9d195c995960b21b604482015290519081900360640190fd5b6000805460ff19168155610c326116ec565b14610c7d576040805162461bcd60e51b81526020600482015260166024820152751858d8dc9d59481a5b9d195c995cdd0819985a5b195960521b604482015290519081900360640190fd5b610c86826114a8565b90505b6000805460ff19166001179055919050565b600d5481565b6000806000610cae612237565b90925090506000826003811115610cc157fe5b14610cfd5760405162461bcd60e51b81526004018080602001828103825260358152602001806156d46035913960400191505060405180910390fd5b9150505b90565b610d12868686868686611505565b601280546001600160a01b0319166001600160a01b038981169190911791829055604080516318160ddd60e01b8152905192909116916318160ddd91600480820192602092909190829003018186803b158015610d6e57600080fd5b505afa158015610d82573d6000803e3d6000fd5b505050506040513d6020811015610d9857600080fd5b505050505050505050565b6000805460ff16610de8576040805162461bcd60e51b815260206004820152600a6024820152691c994b595b9d195c995960b21b604482015290519081900360640190fd5b6000805460ff19168155610dfe338686866122e6565b1490506000805460ff191660011790559392505050565b600080610e2284846125f6565b50949350505050565b6004546001600160a01b031681565b60035460ff1681565b6000610bb9610e50611c57565b6001600160a01b0384166000908152600e602052604090205490670de0b6b3a764000063ffffffff6126a116565b6000610e886126bc565b905090565b6000610bb98261273c565b60035460009061010090046001600160a01b03163314610ec557610ebe6001603f6127d0565b9050610bd0565b60055460408051623f1ee960e11b815290516001600160a01b0392831692851691627e3dd2916004808301926020929190829003018186803b158015610f0a57600080fd5b505afa158015610f1e573d6000803e3d6000fd5b505050506040513d6020811015610f3457600080fd5b5051610f87576040805162461bcd60e51b815260206004820152601c60248201527f6d61726b6572206d6574686f642072657475726e65642066616c736500000000604482015290519081900360640190fd5b600580546001600160a01b0319166001600160a01b03858116918217909255604080519284168352602083019190915280517f7ac369dbd14fa5ea3f473ed67cc9d598964a77501540ba6751eb0b3decf5870d9281900390910190a160005b9392505050565b600b5481565b6005546001600160a01b031681565b6000805460ff16611047576040805162461bcd60e51b815260206004820152600a6024820152691c994b595b9d195c995960b21b604482015290519081900360640190fd5b6000805460ff191681556110596116ec565b9050801561107f5761107781601081111561107057fe5b60306127d0565b915050610c89565b61108883612836565b9150506000805460ff19166001179055919050565b60115481565b6000806110af84612969565b509050801580156110c257506001831515145b15610fe6576040805160018082528183019092526060916020808301908038833901905050905030816000815181106110f757fe5b6001600160a01b039283166020918202929092018101919091526005546040805163effd86f560e01b8152336024820181905260048201928352865160448301528651939095169463effd86f59487949193928392606490910191868101910280838360005b8381101561117557818101518382015260200161115d565b505050509050019350505050600060405180830381600087803b15801561119b57600080fd5b505af11580156111af573d6000803e3d6000fd5b505050506040513d6000823e601f3d908101601f1916820160405260208110156111d857600080fd5b8101908080516040519392919084600160201b8211156111f757600080fd5b90830190602082018581111561120c57600080fd5b82518660208202830111600160201b8211171561122857600080fd5b82525081516020918201928201910280838360005b8381101561125557818101518382015260200161123d565b5050505090500160405250505050509392505050565b60095481565b6012546001600160a01b031681565b6001600160a01b03166000908152600e602052604090205490565b6000805460ff166112e0576040805162461bcd60e51b815260206004820152600a6024820152691c994b595b9d195c995960b21b604482015290519081900360640190fd5b6000805460ff191681556112f26116ec565b1461133d576040805162461bcd60e51b81526020600482015260166024820152751858d8dc9d59481a5b9d195c995cdd0819985a5b195960521b604482015290519081900360640190fd5b50600b546000805460ff1916600117905590565b60035460009061010090046001600160a01b031633146113ae576040805162461bcd60e51b815260206004820152601360248201527221b0b63632b91034b9903737ba1020b236b4b760691b604482015290519081900360640190fd5b670de0b6b3a76400008211156113f55760405162461bcd60e51b81526004018080602001828103825260238152602001806154f86023913960400191505060405180910390fd5b6011805490839055604080518281526020810185905281517ff5815f353a60e815cce7553e4f60c533a59d26b1b5504ea4b6db8d60da3e4da2929181900390910190a16000610fe6565b6000610bb9826129ea565b600c5481565b6002805460408051602060018416156101000260001901909316849004601f81018490048402820184019092528181529291830182828015610b4a5780601f10610b1f57610100808354040283529160200191610b4a565b60008060006114b684612a6b565b909250905060008260038111156114c957fe5b14610fe65760405162461bcd60e51b81526004018080602001828103825260378152602001806155df6037913960400191505060405180910390fd5b60035461010090046001600160a01b031633146115535760405162461bcd60e51b815260040180806020018281038252602481526020018061551b6024913960400191505060405180910390fd5b6009541580156115635750600a54155b61159e5760405162461bcd60e51b815260040180806020018281038252602381526020018061553f6023913960400191505060405180910390fd5b6007849055836115df5760405162461bcd60e51b81526004018080602001828103825260308152602001806155626030913960400191505060405180910390fd5b60006115ea87610e98565b9050801561163f576040805162461bcd60e51b815260206004820152601a60248201527f73657474696e6720636f6d7074726f6c6c6572206661696c6564000000000000604482015290519081900360640190fd5b611647612b1f565b600955670de0b6b3a7640000600a5561165f86612b23565b9050801561169e5760405162461bcd60e51b81526004018080602001828103825260228152602001806155926022913960400191505060405180910390fd5b83516116b1906001906020870190615352565b5082516116c5906002906020860190615352565b50506003805460ff90921660ff199283161790556000805490911660011790555050505050565b6000806116f7612b1f565b6009549091508082141561171057600092505050610d01565b600061171a6126bc565b600b54600c54600a54600654604080516315f2405360e01b815260048101879052602481018690526044810185905290519596509394929391926000926001600160a01b03909216916315f24053916064808301926020929190829003018186803b15801561178857600080fd5b505afa15801561179c573d6000803e3d6000fd5b505050506040513d60208110156117b257600080fd5b5051905065048c27395000811115611811576040805162461bcd60e51b815260206004820152601c60248201527f626f72726f772072617465206973206162737572646c79206869676800000000604482015290519081900360640190fd5b60008061181e8989612c98565b9092509050600082600381111561183157fe5b14611883576040805162461bcd60e51b815260206004820152601f60248201527f636f756c64206e6f742063616c63756c61746520626c6f636b2064656c746100604482015290519081900360640190fd5b61188b6153d0565b6000806000806118a960405180602001604052808a81525087612cbe565b909750945060008760038111156118bc57fe5b146118ee576118d9600960068960038111156118d457fe5b612d26565b9e505050505050505050505050505050610d01565b6118f8858c612d8c565b9097509350600087600381111561190b57fe5b14611923576118d9600960018960038111156118d457fe5b61192d848c612ddf565b9097509250600087600381111561194057fe5b14611958576118d9600960048960038111156118d457fe5b6119736040518060200160405280600854815250858c612e05565b9097509150600087600381111561198657fe5b1461199e576118d9600960058960038111156118d457fe5b6119a9858a8b612e05565b909750905060008760038111156119bc57fe5b146119d4576118d9600960038960038111156118d457fe5b60098e9055600a819055600b839055600c829055604080518d8152602081018690528082018390526060810185905290517f4dec04e750ca11537cabcd8a9eab06494de08da3735bc8871cd41250e190bc049181900360800190a160009e50505050505050505050505050505090565b6000805460ff16611a89576040805162461bcd60e51b815260206004820152600a6024820152691c994b595b9d195c995960b21b604482015290519081900360640190fd5b6000805460ff19168155611a9f333386866122e6565b1490506000805460ff1916600117905592915050565b600a5481565b6006546000906001600160a01b031663b8168816611ad76126bc565b600b54600c546008546040518563ffffffff1660e01b81526004018085815260200184815260200183815260200182815260200194505050505060206040518083038186803b158015611b2957600080fd5b505afa158015611b3d573d6000803e3d6000fd5b505050506040513d6020811015611b5357600080fd5b5051905090565b6000805460ff16611b9f576040805162461bcd60e51b815260206004820152600a6024820152691c994b595b9d195c995960b21b604482015290519081900360640190fd5b6000805460ff19169055611bb533858585612e61565b90506000805460ff191660011790559392505050565b60035460009061010090046001600160a01b03163314611bf157610ebe600160456127d0565b600480546001600160a01b038481166001600160a01b0319831681179093556040805191909216808252602082019390935281517fca4f2f25d0898edd99413412fb94012f9e54ec8142f9b093e7720646a95b16a9929181900390910190a16000610fe6565b60095460009043811415611c7557611c6d610ca1565b915050610d01565b601254604080516370a0823160e01b815230600482015290516000926001600160a01b0316916370a08231916024808301926020929190829003018186803b158015611cc057600080fd5b505afa158015611cd4573d6000803e3d6000fd5b505050506040513d6020811015611cea57600080fd5b5051600b54600c54600654604080516315f2405360e01b81526004810186905260248101859052604481018490529051949550929391926000926001600160a01b03909216916315f2405391606480820192602092909190829003018186803b158015611d5657600080fd5b505afa158015611d6a573d6000803e3d6000fd5b505050506040513d6020811015611d8057600080fd5b5051905065048c27395000811115611dcf576040805162461bcd60e51b815260206004820152600d60248201526c0a482a88abea89e9ebe90928e9609b1b604482015290519081900360640190fd5b6000611def43879003830285670de0b6b3a764000063ffffffff6126a116565b9050600083611e1383670de0b6b3a76400006008546126a19092919063ffffffff16565b600d5491019150828601908015611e4757611e4288830184900382670de0b6b3a764000063ffffffff61323616565b611e4b565b6007545b995050505050505050505090565b6001600160a01b0381166000908152600e6020526040812054819081908190818080611e8489612a6b565b935090506000816003811115611e9657fe5b14611eb45760095b975060009650869550859450611ee79350505050565b611ebc612237565b925090506000816003811115611ece57fe5b14611eda576009611e9e565b5060009650919450925090505b9193509193565b6000610bb982613258565b6000610bb9826132d7565b6001600160a01b039182166000908152600f6020908152604080832093909416825291909152205490565b6004546000906001600160a01b031633141580611f4a575033155b15611f6257611f5b600160006127d0565b9050610d01565b60038054600480546001600160a01b03818116610100818102610100600160a81b0319871617968790556001600160a01b031990931690935560408051948390048216808652929095041660208401528351909391927ff9ffabca9c8276e99321725bcb43fb076a6c66a54b7f21c4e8146d8519b417dc92908290030190a1600454604080516001600160a01b038085168252909216602083015280517fca4f2f25d0898edd99413412fb94012f9e54ec8142f9b093e7720646a95b16a99281900390910190a160009250505090565b60008061203d6116ec565b905080156120635761205b81601081111561205457fe5b60406127d0565b915050610bd0565b610fe683612b23565b6006546001600160a01b031681565b600080612089858585613351565b5095945050505050565b60035461010090046001600160a01b031681565b6006546000906001600160a01b03166315f240536120c36126bc565b600b54600c546040518463ffffffff1660e01b815260040180848152602001838152602001828152602001935050505060206040518083038186803b158015611b2957600080fd5b6000805460ff16612150576040805162461bcd60e51b815260206004820152600a6024820152691c994b595b9d195c995960b21b604482015290519081900360640190fd5b6000805460ff191681556121626116ec565b905080156121805761107781601081111561217957fe5b60466127d0565b61108883613483565b600181565b60008054819060ff166121d5576040805162461bcd60e51b815260206004820152600a6024820152691c994b595b9d195c995960b21b604482015290519081900360640190fd5b6000805460ff191681556121e76116ec565b90508015612212576122058160108111156121fe57fe5b60366127d0565b9250600091506122239050565b61221d33338661352b565b92509250505b6000805460ff191660011790559092909150565b600d54600090819080612252575050600754600091506122e2565b600061225c6126bc565b905060006122686153d0565b600061227984600b54600c54613910565b93509050600081600381111561228b57fe5b146122a0579550600094506122e29350505050565b6122aa838661394e565b9250905060008160038111156122bc57fe5b146122d1579550600094506122e29350505050565b50516000955093506122e292505050565b9091565b600554604080516317b9b84b60e31b81523060048201526001600160a01b03868116602483015285811660448301526064820185905291516000938493169163bdcdc25891608480830192602092919082900301818787803b15801561234b57600080fd5b505af115801561235f573d6000803e3d6000fd5b505050506040513d602081101561237557600080fd5b5051905080156123945761238c6003604a83612d26565b9150506125ee565b836001600160a01b0316856001600160a01b031614156123ba5761238c6002604b6127d0565b60006001600160a01b0387811690871614156123d95750600019612401565b506001600160a01b038086166000908152600f60209081526040808320938a16835292905220545b6000806000806124118589612c98565b9094509250600084600381111561242457fe5b14612442576124356009604b6127d0565b96505050505050506125ee565b6001600160a01b038a166000908152600e60205260409020546124659089612c98565b9094509150600084600381111561247857fe5b14612489576124356009604c6127d0565b6001600160a01b0389166000908152600e60205260409020546124ac9089612ddf565b909450905060008460038111156124bf57fe5b146124d0576124356009604d6127d0565b6001600160a01b03808b166000908152600e6020526040808220859055918b168152208190556000198514612528576001600160a01b03808b166000908152600f60209081526040808320938f168352929052208390555b886001600160a01b03168a6001600160a01b03166000805160206156508339815191528a6040518082815260200191505060405180910390a36005546040805163352b4a3f60e11b81523060048201526001600160a01b038d811660248301528c81166044830152606482018c905291519190921691636a56947e91608480830192600092919082900301818387803b1580156125c457600080fd5b505af11580156125d8573d6000803e3d6000fd5b50600092506125e5915050565b96505050505050505b949350505050565b60008054819060ff1661263d576040805162461bcd60e51b815260206004820152600a6024820152691c994b595b9d195c995960b21b604482015290519081900360640190fd5b6000805460ff1916815561264f6116ec565b9050801561267a5761266d81601081111561266657fe5b60356127d0565b92506000915061268b9050565b61268533868661352b565b92509250505b6000805460ff1916600117905590939092509050565b82820283158482048414176126b557600080fd5b0492915050565b601254604080516370a0823160e01b815230600482015290516000926001600160a01b03169182916370a0823191602480820192602092909190829003018186803b15801561270a57600080fd5b505afa15801561271e573d6000803e3d6000fd5b505050506040513d602081101561273457600080fd5b505191505090565b6000805460ff16612781576040805162461bcd60e51b815260206004820152600a6024820152691c994b595b9d195c995960b21b604482015290519081900360640190fd5b6000805460ff191681556127936116ec565b905080156127b1576110778160108111156127aa57fe5b604e6127d0565b6127ba836139fe565b509150506000805460ff19166001179055919050565b60007f45b96fe442630264581b197e84bbada861235052c5a1aadfff9ea4e40a969aa08360108111156127ff57fe5b83605081111561280b57fe5b604080519283526020830191909152600082820152519081900360600190a1826010811115610fe657fe5b600354600090819061010090046001600160a01b0316331461285e5761205b600160316127d0565b612866612b1f565b6009541461287a5761205b600a60336127d0565b826128836126bc565b10156128955761205b600e60326127d0565b600c548311156128ab5761205b600260346127d0565b50600c54828103908111156128f15760405162461bcd60e51b81526004018080602001828103825260248152602001806157656024913960400191505060405180910390fd5b600c8190556003546129119061010090046001600160a01b031684613ae6565b600354604080516101009092046001600160a01b0316825260208201859052818101839052517f3bad0c59cf2f06e7314077049f48a93578cd16f5ef92329f1dab1420a99c177e916060908290030190a16000610fe6565b60008054819060ff166129b0576040805162461bcd60e51b815260206004820152600a6024820152691c994b595b9d195c995960b21b604482015290519081900360640190fd5b6000805460ff191681556129c26116ec565b905080156129e0576122058160108111156129d957fe5b601e6127d0565b61221d3385613bdd565b6000805460ff16612a2f576040805162461bcd60e51b815260206004820152600a6024820152691c994b595b9d195c995960b21b604482015290519081900360640190fd5b6000805460ff19168155612a416116ec565b90508015612a5f57611077816010811115612a5857fe5b60276127d0565b6110883360008561403c565b6001600160a01b038116600090815260106020526040812080548291829182918291612aa2575060009450849350612b1a92505050565b612ab28160000154600a54614503565b90945092506000846003811115612ac557fe5b14612ada575091935060009250612b1a915050565b612ae8838260010154614542565b90945091506000846003811115612afb57fe5b14612b10575091935060009250612b1a915050565b5060009450925050505b915091565b4390565b600354600090819061010090046001600160a01b03163314612b4b5761205b600160426127d0565b612b53612b1f565b60095414612b675761205b600a60416127d0565b600660009054906101000a90046001600160a01b03169050826001600160a01b0316632191f92a6040518163ffffffff1660e01b815260040160206040518083038186803b158015612bb857600080fd5b505afa158015612bcc573d6000803e3d6000fd5b505050506040513d6020811015612be257600080fd5b5051612c35576040805162461bcd60e51b815260206004820152601c60248201527f6d61726b6572206d6574686f642072657475726e65642066616c736500000000604482015290519081900360640190fd5b600680546001600160a01b0319166001600160a01b03858116918217909255604080519284168352602083019190915280517fedffc32e068c7c95dfd4bdfd5c4d939a084d6b11c4199eac8436ed234d72f9269281900390910190a16000610fe6565b600080838311612caf575060009050818303612cb7565b506003905060005b9250929050565b6000612cc86153d0565b600080612cd9866000015186614503565b90925090506000826003811115612cec57fe5b14612d0b57506040805160208101909152600081529092509050612cb7565b60408051602081019091529081526000969095509350505050565b60007f45b96fe442630264581b197e84bbada861235052c5a1aadfff9ea4e40a969aa0846010811115612d5557fe5b846050811115612d6157fe5b604080519283526020830191909152818101859052519081900360600190a18360108111156125ee57fe5b6000806000612d996153d0565b612da38686612cbe565b90925090506000826003811115612db657fe5b14612dc75750915060009050612cb7565b6000612dd28261456d565b9350935050509250929050565b600080838301848110612df757600092509050612cb7565b506002915060009050612cb7565b6000806000612e126153d0565b612e1c8787612cbe565b90925090506000826003811115612e2f57fe5b14612e405750915060009050612e59565b612e52612e4c8261456d565b86612ddf565b9350935050505b935093915050565b6005546040805163d02f735160e01b81523060048201526001600160a01b038781166024830152868116604483015285811660648301526084820185905291516000938493169163d02f73519160a480830192602092919082900301818787803b158015612ece57600080fd5b505af1158015612ee2573d6000803e3d6000fd5b505050506040513d6020811015612ef857600080fd5b505190508015612f0f5761238c6003601b83612d26565b846001600160a01b0316846001600160a01b03161415612f355761238c6006601c6127d0565b612f3d6153e3565b6001600160a01b0385166000908152600e6020526040902054612f609085612c98565b6020830181905282826003811115612f7457fe5b6003811115612f7f57fe5b9052506000905081516003811115612f9357fe5b14612fb857612faf6009601a836000015160038111156118d457fe5b925050506125ee565b612fd284604051806020016040528060115481525061457c565b60808201819052612fe49085906145a4565b6060820152612ff1612237565b60c083018190528282600381111561300557fe5b600381111561301057fe5b905250600090508151600381111561302457fe5b14613076576040805162461bcd60e51b815260206004820152601860248201527f65786368616e67652072617465206d617468206572726f720000000000000000604482015290519081900360640190fd5b61309660405180602001604052808360c0015181525082608001516145de565b60a08201819052600c546130a9916145fd565b60e0820152600d5460808201516130c091906145a4565b6101008201526001600160a01b0386166000908152600e602052604090205460608201516130ee9190612ddf565b604083018190528282600381111561310257fe5b600381111561310d57fe5b905250600090508151600381111561312157fe5b1461313d57612faf60096019836000015160038111156118d457fe5b60e0810151600c55610100810151600d556020808201516001600160a01b038088166000818152600e855260408082209490945583860151928b16808252908490209290925560608501518351908152925191939092600080516020615650833981519152929081900390910190a36080810151604080519182525130916001600160a01b038816916000805160206156508339815191529181900360200190a360a081015160e082015160408051308152602081019390935282810191909152517fa91e67c5ea634cd43a12c5a482724b03de01e85ca68702a53d0c2f45cb7c1dc59181900360600190a16000979650505050505050565b82810282151584158583048414171661324e57600080fd5b9190910492915050565b6000805460ff1661329d576040805162461bcd60e51b815260206004820152600a6024820152691c994b595b9d195c995960b21b604482015290519081900360640190fd5b6000805460ff191681556132af6116ec565b905080156132cd576110778160108111156132c657fe5b60086127d0565b6110883384614633565b6000805460ff1661331c576040805162461bcd60e51b815260206004820152600a6024820152691c994b595b9d195c995960b21b604482015290519081900360640190fd5b6000805460ff1916815561332e6116ec565b9050801561334557611077816010811115612a5857fe5b6110883384600061403c565b60008054819060ff16613398576040805162461bcd60e51b815260206004820152600a6024820152691c994b595b9d195c995960b21b604482015290519081900360640190fd5b6000805460ff191681556133aa6116ec565b905080156133d5576133c88160108111156133c157fe5b600f6127d0565b92506000915061346c9050565b836001600160a01b031663a6afed956040518163ffffffff1660e01b8152600401602060405180830381600087803b15801561341057600080fd5b505af1158015613424573d6000803e3d6000fd5b505050506040513d602081101561343a57600080fd5b50519050801561345a576133c881601081111561345357fe5b60106127d0565b61346633878787614941565b92509250505b6000805460ff191660011790559094909350915050565b60035460009061010090046001600160a01b031633146134a957610ebe600160476127d0565b6134b1612b1f565b600954146134c557610ebe600a60486127d0565b670de0b6b3a76400008211156134e157610ebe600260496127d0565b6008805490839055604080518281526020810185905281517faaa68312e2ea9d50e16af5068410ab56e1a1fd06037b1a35664812c30f821460929181900390910190a16000610fe6565b60055460408051631200453160e11b81523060048201526001600160a01b0386811660248301528581166044830152606482018590529151600093849384939116916324008a629160848082019260209290919082900301818787803b15801561359457600080fd5b505af11580156135a8573d6000803e3d6000fd5b505050506040513d60208110156135be57600080fd5b5051905080156135e2576135d56003603883612d26565b925060009150612e599050565b6135ea612b1f565b600954146135fe576135d5600a60396127d0565b613606615430565b6001600160a01b038616600090815260106020526040902060010154606082015261363086612a6b565b608083018190526020830182600381111561364757fe5b600381111561365257fe5b905250600090508160200151600381111561366957fe5b146136935761368560096037836020015160038111156118d457fe5b935060009250612e59915050565b6000198514156136ac57608081015160408201526136b4565b604081018590525b6136c2878260400151614ec4565b60e0820181905260808201516136d791612c98565b60a08301819052602083018260038111156136ee57fe5b60038111156136f957fe5b905250600090508160200151600381111561371057fe5b1461374c5760405162461bcd60e51b815260040180806020018281038252603a815260200180615616603a913960400191505060405180910390fd5b61375c600b548260e00151612c98565b60c083018190526020830182600381111561377357fe5b600381111561377e57fe5b905250600090508160200151600381111561379557fe5b146137d15760405162461bcd60e51b81526004018080602001828103825260318152602001806156706031913960400191505060405180910390fd5b60a080820180516001600160a01b03808a16600081815260106020908152604091829020948555600a5460019095019490945560c0870151600b81905560e088015195518251948f16855294840192909252828101949094526060820192909252608081019190915290517f1a2a22cb034d26d1854bdc6666a5b91fe25efbbb5dcad3b0355478d6f5c362a1929181900390910190a160055460e0820151606083015160408051631ededc9160e01b81523060048201526001600160a01b038c811660248301528b8116604483015260648201949094526084810192909252519190921691631ededc919160a480830192600092919082900301818387803b1580156138dc57600080fd5b505af11580156138f0573d6000803e3d6000fd5b50600092506138fd915050565b8160e00151935093505050935093915050565b6000806000806139208787612ddf565b9092509050600082600381111561393357fe5b146139445750915060009050612e59565b612e528186612c98565b60006139586153d0565b60008061396d86670de0b6b3a7640000614503565b9092509050600082600381111561398057fe5b1461399f57506040805160208101909152600081529092509050612cb7565b6000806139ac8388614542565b909250905060008260038111156139bf57fe5b146139e157506040805160208101909152600081529094509250612cb7915050565b604080516020810190915290815260009890975095505050505050565b600080600080613a0c612b1f565b60095414613a2b57613a20600a604f6127d0565b93509150612b1a9050565b613a353386614ec4565b905080600c54019150600c54821015613a95576040805162461bcd60e51b815260206004820181905260248201527f61646420726573657276657320756e6578706563746564206f766572666c6f77604482015290519081900360640190fd5b600c829055604080513381526020810183905280820184905290517fa91e67c5ea634cd43a12c5a482724b03de01e85ca68702a53d0c2f45cb7c1dc59181900360600190a160009350915050915091565b6012546040805163a9059cbb60e01b81526001600160a01b0385811660048301526024820185905291519190921691829163a9059cbb9160448082019260009290919082900301818387803b158015613b3e57600080fd5b505af1158015613b52573d6000803e3d6000fd5b5050505060003d60008114613b6e5760208114613b7857600080fd5b6000199150613b84565b60206000803e60005191505b5080613bd7576040805162461bcd60e51b815260206004820152601960248201527f544f4b454e5f5452414e534645525f4f55545f4641494c454400000000000000604482015290519081900360640190fd5b50505050565b60055460408051634ef4c3e160e01b81523060048201526001600160a01b03858116602483015260448201859052915160009384938493911691634ef4c3e19160648082019260209290919082900301818787803b158015613c3e57600080fd5b505af1158015613c52573d6000803e3d6000fd5b505050506040513d6020811015613c6857600080fd5b505190508015613c8c57613c7f6003601f83612d26565b925060009150612cb79050565b613c94612b1f565b60095414613ca857613c7f600a60226127d0565b613cb0615476565b613cb8612237565b6040830181905260208301826003811115613ccf57fe5b6003811115613cda57fe5b9052506000905081602001516003811115613cf157fe5b14613d1b57613d0d60096021836020015160038111156118d457fe5b935060009250612cb7915050565b613d258686614ec4565b60c0820181905260408051602081018252908301518152613d46919061510e565b6060830181905260208301826003811115613d5d57fe5b6003811115613d6857fe5b9052506000905081602001516003811115613d7f57fe5b14613dd1576040805162461bcd60e51b815260206004820181905260248201527f4d494e545f45584348414e47455f43414c43554c4154494f4e5f4641494c4544604482015290519081900360640190fd5b613de1600d548260600151612ddf565b6080830181905260208301826003811115613df857fe5b6003811115613e0357fe5b9052506000905081602001516003811115613e1a57fe5b14613e565760405162461bcd60e51b81526004018080602001828103825260288152602001806157096028913960400191505060405180910390fd5b6001600160a01b0386166000908152600e60205260409020546060820151613e7e9190612ddf565b60a0830181905260208301826003811115613e9557fe5b6003811115613ea057fe5b9052506000905081602001516003811115613eb757fe5b14613ef35760405162461bcd60e51b815260040180806020018281038252602b8152602001806155b4602b913960400191505060405180910390fd5b6080810151600d5560a08101516001600160a01b0387166000818152600e60209081526040918290209390935560c084015160608086015183519485529484019190915282820193909352517f4c209b5fc8ad50758f13e2e1088ba56a560dff690a1c6fef26394f4c03821c4f929181900390910190a1606081015160408051918252516001600160a01b0388169130916000805160206156508339815191529181900360200190a360055460c08201516060830151604080516341c728b960e01b81523060048201526001600160a01b038b81166024830152604482019490945260648101929092525191909216916341c728b991608480830192600092919082900301818387803b15801561400957600080fd5b505af115801561401d573d6000803e3d6000fd5b506000925061402a915050565b8160c001519350935050509250929050565b6000821580614049575081155b6140845760405162461bcd60e51b81526004018080602001828103825260348152602001806157316034913960400191505060405180910390fd5b61408c615476565b614094612237565b60408301819052602083018260038111156140ab57fe5b60038111156140b657fe5b90525060009050816020015160038111156140cd57fe5b146140f1576140e96009602b836020015160038111156118d457fe5b915050610fe6565b83156141725760608101849052604080516020810182529082015181526141189085612d8c565b608083018190526020830182600381111561412f57fe5b600381111561413a57fe5b905250600090508160200151600381111561415157fe5b1461416d576140e960096029836020015160038111156118d457fe5b6141eb565b61418e836040518060200160405280846040015181525061510e565b60608301819052602083018260038111156141a557fe5b60038111156141b057fe5b90525060009050816020015160038111156141c757fe5b146141e3576140e96009602a836020015160038111156118d457fe5b608081018390525b60055460608201516040805163eabe7d9160e01b81523060048201526001600160a01b03898116602483015260448201939093529051600093929092169163eabe7d919160648082019260209290919082900301818787803b15801561425057600080fd5b505af1158015614264573d6000803e3d6000fd5b505050506040513d602081101561427a57600080fd5b50519050801561429a576142916003602883612d26565b92505050610fe6565b6142a2612b1f565b600954146142b657614291600a602c6127d0565b6142c6600d548360600151612c98565b60a08401819052602084018260038111156142dd57fe5b60038111156142e857fe5b90525060009050826020015160038111156142ff57fe5b1461431b576142916009602e846020015160038111156118d457fe5b6001600160a01b0386166000908152600e602052604090205460608301516143439190612c98565b60c084018190526020840182600381111561435a57fe5b600381111561436557fe5b905250600090508260200151600381111561437c57fe5b14614398576142916009602d846020015160038111156118d457fe5b81608001516143a56126bc565b10156143b757614291600e602f6127d0565b6143c5868360800151613ae6565b60a0820151600d5560c08201516001600160a01b0387166000818152600e6020908152604091829020939093556060850151815190815290513093600080516020615650833981519152928290030190a36080820151606080840151604080516001600160a01b038b168152602081019490945283810191909152517fe5b754fb1abb7f01b499791d0b820ae3b6af3424ac1c59768edb53f4ec31a9299281900390910190a160055460808301516060840151604080516351dff98960e01b81523060048201526001600160a01b038b81166024830152604482019490945260648101929092525191909216916351dff98991608480830192600092919082900301818387803b1580156144d857600080fd5b505af11580156144ec573d6000803e3d6000fd5b50600092506144f9915050565b9695505050505050565b6000808361451657506000905080612cb7565b8383028385828161452357fe5b041461453757506002915060009050612cb7565b600092509050612cb7565b600080826145565750600190506000612cb7565b600083858161456157fe5b04915091509250929050565b51670de0b6b3a7640000900490565b6000670de0b6b3a7640000614595848460000151615125565b8161459c57fe5b049392505050565b6000610fe68383604051806040016040528060158152602001747375627472616374696f6e20756e646572666c6f7760581b815250615167565b60006145e86153d0565b6145f284846151fe565b90506125ee8161456d565b6000610fe68383604051806040016040528060118152602001706164646974696f6e206f766572666c6f7760781b815250615228565b6005546040805163368f515360e21b81523060048201526001600160a01b0385811660248301526044820185905291516000938493169163da3d454c91606480830192602092919082900301818787803b15801561469057600080fd5b505af11580156146a4573d6000803e3d6000fd5b505050506040513d60208110156146ba57600080fd5b5051905080156146d9576146d16003600e83612d26565b915050610bb9565b6146e1612b1f565b600954146146f4576146d1600a806127d0565b826146fd6126bc565b101561470f576146d1600e60096127d0565b6147176154b4565b61472085612a6b565b602083018190528282600381111561473457fe5b600381111561473f57fe5b905250600090508151600381111561475357fe5b146147785761476f60096007836000015160038111156118d457fe5b92505050610bb9565b614786816020015185612ddf565b604083018190528282600381111561479a57fe5b60038111156147a557fe5b90525060009050815160038111156147b957fe5b146147d55761476f6009600c836000015160038111156118d457fe5b6147e1600b5485612ddf565b60608301819052828260038111156147f557fe5b600381111561480057fe5b905250600090508151600381111561481457fe5b146148305761476f6009600b836000015160038111156118d457fe5b61483a8585613ae6565b604080820180516001600160a01b03881660008181526010602090815290859020928355600a54600190930192909255606080860151600b81905593518551928352928201899052818501929092529081019190915290517f13ed6866d4e1ee6da46f845c46d7e54120883d75c5ea9a2dacc1c4ca8984ab809181900360800190a160055460408051635c77860560e01b81523060048201526001600160a01b0388811660248301526044820188905291519190921691635c77860591606480830192600092919082900301818387803b15801561491757600080fd5b505af115801561492b573d6000803e3d6000fd5b5060009250614938915050565b95945050505050565b60055460408051632fe3f38f60e11b81523060048201526001600160a01b0384811660248301528781166044830152868116606483015260848201869052915160009384938493911691635fc7e71e9160a48082019260209290919082900301818787803b1580156149b257600080fd5b505af11580156149c6573d6000803e3d6000fd5b505050506040513d60208110156149dc57600080fd5b505190508015614a00576149f36003601283612d26565b925060009150614ebb9050565b614a08612b1f565b60095414614a1c576149f3600a60166127d0565b614a24612b1f565b846001600160a01b0316636c540baf6040518163ffffffff1660e01b815260040160206040518083038186803b158015614a5d57600080fd5b505afa158015614a71573d6000803e3d6000fd5b505050506040513d6020811015614a8757600080fd5b505114614a9a576149f3600a60116127d0565b866001600160a01b0316866001600160a01b03161415614ac0576149f3600660176127d0565b84614ad1576149f3600760156127d0565b600019851415614ae7576149f3600760146127d0565b600080614af589898961352b565b90925090508115614b2557614b16826010811115614b0f57fe5b60186127d0565b945060009350614ebb92505050565b6005546040805163c488847b60e01b81523060048201526001600160a01b038981166024830152604482018590528251600094859492169263c488847b926064808301939192829003018186803b158015614b7f57600080fd5b505afa158015614b93573d6000803e3d6000fd5b505050506040513d6040811015614ba957600080fd5b50805160209091015190925090508115614bf45760405162461bcd60e51b81526004018080602001828103825260338152602001806156a16033913960400191505060405180910390fd5b80886001600160a01b03166370a082318c6040518263ffffffff1660e01b815260040180826001600160a01b03166001600160a01b0316815260200191505060206040518083038186803b158015614c4b57600080fd5b505afa158015614c5f573d6000803e3d6000fd5b505050506040513d6020811015614c7557600080fd5b50511015614cca576040805162461bcd60e51b815260206004820152601860248201527f4c49515549444154455f5345495a455f544f4f5f4d5543480000000000000000604482015290519081900360640190fd5b60006001600160a01b038916301415614cf057614ce9308d8d85612e61565b9050614d7a565b6040805163b2a02ff160e01b81526001600160a01b038e811660048301528d81166024830152604482018590529151918b169163b2a02ff1916064808201926020929091908290030181600087803b158015614d4b57600080fd5b505af1158015614d5f573d6000803e3d6000fd5b505050506040513d6020811015614d7557600080fd5b505190505b8015614dc4576040805162461bcd60e51b81526020600482015260146024820152731d1bdad95b881cd95a5e9d5c994819985a5b195960621b604482015290519081900360640190fd5b604080516001600160a01b03808f168252808e1660208301528183018790528b1660608201526080810184905290517f298637f684da70674f26509b10f07ec2fbc77a335ab1e7d6215a4b2484d8bb529181900360a00190a1600554604080516347ef3b3b60e01b81523060048201526001600160a01b038c811660248301528f811660448301528e811660648301526084820188905260a48201869052915191909216916347ef3b3b9160c480830192600092919082900301818387803b158015614e8f57600080fd5b505af1158015614ea3573d6000803e3d6000fd5b5060009250614eb0915050565b975092955050505050505b94509492505050565b601254604080516370a0823160e01b815230600482015290516000926001600160a01b031691839183916370a08231916024808301926020929190829003018186803b158015614f1357600080fd5b505afa158015614f27573d6000803e3d6000fd5b505050506040513d6020811015614f3d57600080fd5b5051604080516323b872dd60e01b81526001600160a01b038881166004830152306024830152604482018890529151929350908416916323b872dd9160648082019260009290919082900301818387803b158015614f9a57600080fd5b505af1158015614fae573d6000803e3d6000fd5b5050505060003d60008114614fca5760208114614fd457600080fd5b6000199150614fe0565b60206000803e60005191505b5080615033576040805162461bcd60e51b815260206004820152601860248201527f544f4b454e5f5452414e534645525f494e5f4641494c45440000000000000000604482015290519081900360640190fd5b601254604080516370a0823160e01b815230600482015290516000926001600160a01b0316916370a08231916024808301926020929190829003018186803b15801561507e57600080fd5b505afa158015615092573d6000803e3d6000fd5b505050506040513d60208110156150a857600080fd5b5051905082811015615101576040805162461bcd60e51b815260206004820152601a60248201527f544f4b454e5f5452414e534645525f494e5f4f564552464c4f57000000000000604482015290519081900360640190fd5b9190910395945050505050565b600080600061511b6153d0565b612da3868661527d565b6000610fe683836040518060400160405280601781526020017f6d756c7469706c69636174696f6e206f766572666c6f770000000000000000008152506152dc565b600081848411156151f65760405162461bcd60e51b81526004018080602001828103825283818151815260200191508051906020019080838360005b838110156151bb5781810151838201526020016151a3565b50505050905090810190601f1680156151e85780820380516001836020036101000a031916815260200191505b509250505060405180910390fd5b505050900390565b6152066153d0565b604051806020016040528061521f856000015185615125565b90529392505050565b60008383018285821015610e225760405162461bcd60e51b81526020600482018181528351602484015283519092839260449091019190850190808383600083156151bb5781810151838201526020016151a3565b60006152876153d0565b60008061529c670de0b6b3a764000087614503565b909250905060008260038111156152af57fe5b146152ce57506040805160208101909152600081529092509050612cb7565b612dd281866000015161394e565b60008315806152e9575082155b156152f657506000610fe6565b8383028385828161530357fe5b04148390610e225760405162461bcd60e51b81526020600482018181528351602484015283519092839260449091019190850190808383600083156151bb5781810151838201526020016151a3565b828054600181600116156101000203166002900490600052602060002090601f016020900481019282601f1061539357805160ff19168380011785556153c0565b828001600101855582156153c0579182015b828111156153c05782518255916020019190600101906153a5565b506153cc9291506154dd565b5090565b6040518060200160405280600081525090565b604080516101208101909152806000815260200160008152602001600081526020016000815260200160008152602001600081526020016000815260200160008152602001600081525090565b6040805161010081019091528060008152602001600081526020016000815260200160008152602001600081526020016000815260200160008152602001600081525090565b6040805160e0810190915280600081526020016000815260200160008152602001600081526020016000815260200160008152602001600081525090565b604080516080810190915280600081526020016000815260200160008152602001600081525090565b610d0191905b808211156153cc57600081556001016154e356fe50726f746f636f6c207365697a65207368617265206d757374206265203c20313030256f6e6c792061646d696e206d617920696e697469616c697a6520746865206d61726b65746d61726b6574206d6179206f6e6c7920626520696e697469616c697a6564206f6e6365696e697469616c2065786368616e67652072617465206d7573742062652067726561746572207468616e207a65726f2e73657474696e6720696e7465726573742072617465206d6f64656c206661696c65644d494e545f4e45575f4143434f554e545f42414c414e43455f43414c43554c4154494f4e5f4641494c4544626f72726f7742616c616e636553746f7265643a20626f72726f7742616c616e636553746f726564496e7465726e616c206661696c656452455041595f424f52524f575f4e45575f4143434f554e545f424f52524f575f42414c414e43455f43414c43554c4154494f4e5f4641494c4544ddf252ad1be2c89b69c2b068fc378daa952ba7f163c4a11628f55a4df523b3ef52455041595f424f52524f575f4e45575f544f54414c5f42414c414e43455f43414c43554c4154494f4e5f4641494c45444c49515549444154455f434f4d5054524f4c4c45525f43414c43554c4154455f414d4f554e545f5345495a455f4641494c454465786368616e67655261746553746f7265643a2065786368616e67655261746553746f726564496e7465726e616c206661696c65644d494e545f4e45575f544f54414c5f535550504c595f43414c43554c4154494f4e5f4641494c45446f6e65206f662072656465656d546f6b656e73496e206f722072656465656d416d6f756e74496e206d757374206265207a65726f72656475636520726573657276657320756e657870656374656420756e646572666c6f77a265627a7a72315820a3f3d5572542683661bf63fef4bace227e8ade1b0adb48f38cca496caaf979ce64736f6c63430005100032",
  "linkReferences": {},
  "deployedLinkReferences": {}
}