{
  "_format": "hh-sol-artifact-1",
  "contractName": "BaoDistribution",
  "sourceName": "contracts/BaoDistribution.sol",
  "abi": [
    {
      "inputs": [
        {
          "internalType": "address",
          "name": "_baoToken",
          "type": "address"
        },
        {
          "internalType": "address",
          "name": "_votingEscrow",
          "type": "address"
        },
        {
          "internalType": "bytes32",
          "name": "_merkleRoot",
          "type": "bytes32"
        },
        {
          "internalType": "address",
          "name": "_treasury",
          "type": "address"
        }
      ],
      "stateMutability": "nonpayable",
      "type": "constructor"
    },
    {
      "inputs": [],
      "name": "DistributionAlreadyStarted",
      "type": "error"
    },
    {
      "inputs": [],
      "name": "DistributionEndedEarly",
      "type": "error"
    },
    {
      "inputs": [
        {
          "internalType": "address",
          "name": "_account",
          "type": "address"
        },
        {
          "internalType": "uint256",
          "name": "_amount",
          "type": "uint256"
        },
        {
          "internalType": "bytes32[]",
          "name": "_proof",
          "type": "bytes32[]"
        }
      ],
      "name": "InvalidProof",
      "type": "error"
    },
    {
      "inputs": [],
      "name": "InvalidTimestamp",
      "type": "error"
    },
    {
      "inputs": [],
      "name": "ZeroClaimable",
      "type": "error"
    },
    {
      "inputs": [],
      "name": "alreadyLocked",
      "type": "error"
    },
    {
      "inputs": [],
      "name": "outsideLockRange",
      "type": "error"
    },
    {
      "anonymous": false,
      "inputs": [
        {
          "indexed": false,
          "internalType": "address",
          "name": "_account",
          "type": "address"
        },
        {
          "indexed": false,
          "internalType": "uint256",
          "name": "_amount",
          "type": "uint256"
        }
      ],
      "name": "DistributionEnded",
      "type": "event"
    },
    {
      "anonymous": false,
      "inputs": [
        {
          "indexed": false,
          "internalType": "address",
          "name": "_account",
          "type": "address"
        },
        {
          "indexed": false,
          "internalType": "uint256",
          "name": "_amount",
          "type": "uint256"
        }
      ],
      "name": "DistributionLocked",
      "type": "event"
    },
    {
      "anonymous": false,
      "inputs": [
        {
          "indexed": false,
          "internalType": "address",
          "name": "_account",
          "type": "address"
        }
      ],
      "name": "DistributionStarted",
      "type": "event"
    },
    {
      "anonymous": false,
      "inputs": [
        {
          "indexed": false,
          "internalType": "address",
          "name": "_account",
          "type": "address"
        },
        {
          "indexed": false,
          "internalType": "uint256",
          "name": "_amount",
          "type": "uint256"
        }
      ],
      "name": "TokensClaimed",
      "type": "event"
    },
    {
      "inputs": [],
      "name": "baoToken",
      "outputs": [
        {
          "internalType": "contract IERC20",
          "name": "",
          "type": "address"
        }
      ],
      "stateMutability": "view",
      "type": "function"
    },
    {
      "inputs": [],
      "name": "claim",
      "outputs": [],
      "stateMutability": "nonpayable",
      "type": "function"
    },
    {
      "inputs": [
        {
          "internalType": "address",
          "name": "_account",
          "type": "address"
        },
        {
          "internalType": "uint64",
          "name": "_timestamp",
          "type": "uint64"
        }
      ],
      "name": "claimable",
      "outputs": [
        {
          "internalType": "uint256",
          "name": "c",
          "type": "uint256"
        }
      ],
      "stateMutability": "view",
      "type": "function"
    },
    {
      "inputs": [
        {
          "internalType": "uint256",
          "name": "_amountOwedTotal",
          "type": "uint256"
        },
        {
          "internalType": "uint256",
          "name": "_daysSinceStart",
          "type": "uint256"
        }
      ],
      "name": "distCurve",
      "outputs": [
        {
          "internalType": "uint256",
          "name": "_amount",
          "type": "uint256"
        }
      ],
      "stateMutability": "pure",
      "type": "function"
    },
    {
      "inputs": [
        {
          "internalType": "address",
          "name": "",
          "type": "address"
        }
      ],
      "name": "distributions",
      "outputs": [
        {
          "internalType": "uint64",
          "name": "dateStarted",
          "type": "uint64"
        },
        {
          "internalType": "uint64",
          "name": "dateEnded",
          "type": "uint64"
        },
        {
          "internalType": "uint64",
          "name": "lastClaim",
          "type": "uint64"
        },
        {
          "internalType": "uint256",
          "name": "amountOwedTotal",
          "type": "uint256"
        }
      ],
      "stateMutability": "view",
      "type": "function"
    },
    {
      "inputs": [],
      "name": "endDistribution",
      "outputs": [],
      "stateMutability": "nonpayable",
      "type": "function"
    },
    {
      "inputs": [
        {
          "internalType": "uint256",
          "name": "_time",
          "type": "uint256"
        }
      ],
      "name": "lockDistribution",
      "outputs": [],
      "stateMutability": "nonpayable",
      "type": "function"
    },
    {
      "inputs": [
        {
          "internalType": "address",
          "name": "",
          "type": "address"
        }
      ],
      "name": "lockStatus",
      "outputs": [
        {
          "internalType": "bool",
          "name": "",
          "type": "bool"
        }
      ],
      "stateMutability": "view",
      "type": "function"
    },
    {
      "inputs": [],
      "name": "merkleRoot",
      "outputs": [
        {
          "internalType": "bytes32",
          "name": "",
          "type": "bytes32"
        }
      ],
      "stateMutability": "view",
      "type": "function"
    },
    {
      "inputs": [
        {
          "internalType": "bytes32[]",
          "name": "_proof",
          "type": "bytes32[]"
        },
        {
          "internalType": "uint256",
          "name": "_amount",
          "type": "uint256"
        }
      ],
      "name": "startDistribution",
      "outputs": [],
      "stateMutability": "nonpayable",
      "type": "function"
    },
    {
      "inputs": [],
      "name": "treasury",
      "outputs": [
        {
          "internalType": "address",
          "name": "",
          "type": "address"
        }
      ],
      "stateMutability": "view",
      "type": "function"
    },
    {
      "inputs": [],
      "name": "votingEscrow",
      "outputs": [
        {
          "internalType": "contract IVotingEscrow",
          "name": "",
          "type": "address"
        }
      ],
      "stateMutability": "view",
      "type": "function"
    }
  ],
  "bytecode": "0x60a0604052600160005534801561001557600080fd5b5060405161118a38038061118a83398101604081905261003491610098565b600180546001600160a01b039586166001600160a01b0319918216179091556002805494861694821694909417909355608091909152600580549190931691161790556100e5565b80516001600160a01b038116811461009357600080fd5b919050565b600080600080608085870312156100ae57600080fd5b6100b78561007c565b93506100c56020860161007c565b9250604085015191506100da6060860161007c565b905092959194509250565b6080516110836101076000396000818161010b0152610c8b01526110836000f3fe608060405234801561001057600080fd5b50600436106100b45760003560e01c806364c761171161007157806364c7611714610181578063711bc2cc146101895780639353b9df1461019c578063c2a395941461021a578063ecb16c951461022d578063f0f140561461024057600080fd5b80631287d614146100b957806315497d2c146100ce5780632eb4a7ab146101065780634e71d92d1461013b5780634f2bfe5b1461014357806361d027b31461016e575b600080fd5b6100cc6100c7366004610d77565b610253565b005b6100f16100dc366004610e56565b60046020526000908152604090205460ff1681565b60405190151581526020015b60405180910390f35b61012d7f000000000000000000000000000000000000000000000000000000000000000081565b6040519081526020016100fd565b6100cc6103df565b600254610156906001600160a01b031681565b6040516001600160a01b0390911681526020016100fd565b600554610156906001600160a01b031681565b6100cc61051f565b6100cc610197366004610e71565b61081d565b6101e56101aa366004610e56565b600360205260009081526040902080546001909101546001600160401b0380831692600160401b8104821692600160801b9091049091169084565b6040516100fd94939291906001600160401b039485168152928416602084015292166040820152606081019190915260800190565b61012d610228366004610e8a565b610a90565b600154610156906001600160a01b031681565b61012d61024e366004610ecd565b610be4565b336000908152600360205260409020546001600160401b03161561028a5760405163e0e70c4960e01b815260040160405180910390fd5b6040516bffffffffffffffffffffffff193360601b166020820152603481018290526102d090839060540160405160208183030381529060405280519060200120610c83565b6102fc57338183604051630bcc64c960e21b81526004016102f393929190610eef565b60405180910390fd5b60408051608081018252426001600160401b0381168083526000602084015292820192909252606081016103326103e885610f62565b9052336000818152600360209081526040918290208451815486840151878601516001600160401b03908116600160801b0267ffffffffffffffff60801b19928216600160401b026fffffffffffffffffffffffffffffffff1990941691909416179190911716178155606090940151600190940193909355519081527fab67d7ea3f6d1612bda63a01384162c8ee0decb1b35cab6c6ff10dbe0e7d57e0910160405180910390a1505050565b6000546001146104015760405162461bcd60e51b81526004016102f390610f84565b600260009081556104123382610a90565b9050806000036104355760405163be7538fb60e01b815260040160405180910390fd5b3360008181526003602052604090819020805467ffffffffffffffff60801b1916600160801b426001600160401b031602179055600154905163a9059cbb60e01b81526004810192909252602482018390526001600160a01b03169063a9059cbb906044016020604051808303816000875af11580156104b9573d6000803e3d6000fd5b505050506040513d601f19601f820116820180604052508101906104dd9190610fa8565b5060408051338152602081018390527f896e034966eaaf1adc54acc0f257056febbd300c9e47182cf761982cf1f5e430910160405180910390a1506001600055565b6000546001146105415760405162461bcd60e51b81526004016102f390610f84565b600260009081556105523382610a90565b9050806000036105755760405163be7538fb60e01b815260040160405180910390fd5b3360009081526003602052604081208054909142916105bc906105a1906001600160401b031684610fd1565b6001600160401b0316670de0b6b3a764000062015180610cb0565b905060006105ce846001015483610be4565b84600101546105dd9190610ff8565b905060006106396813c9647e25a9940000841161062057610609846351a673656509184e72a000610cb0565b61061b90670de0b6b3a7640000610ff8565b61062a565b670d2f13f7789f00005b83670de0b6b3a7640000610cb0565b905060006106478284610ff8565b6001549091506001600160a01b031663a9059cbb336106668a8561100b565b6040516001600160e01b031960e085901b1681526001600160a01b03909216600483015260248201526044016020604051808303816000875af11580156106b1573d6000803e3d6000fd5b505050506040513d601f19601f820116820180604052508101906106d59190610fa8565b5060015460055460405163a9059cbb60e01b81526001600160a01b0391821660048201526024810185905291169063a9059cbb906044016020604051808303816000875af115801561072b573d6000803e3d6000fd5b505050506040513d601f19601f8201168201806040525081019061074f9190610fa8565b50855477ffffffffffffffffffffffffffffffff00000000000000001916600160801b6001600160401b03871690810267ffffffffffffffff60401b191691909117600160401b9190910217865560408051338152602081018990527f896e034966eaaf1adc54acc0f257056febbd300c9e47182cf761982cf1f5e430910160405180910390a160408051338152602081018390527f5367ccf79b9a526d66835ee11189c8c710ba3ef031629c51977139111d90b953910160405180910390a1505060016000555050505050565b60005460011461083f5760405162461bcd60e51b81526004016102f390610f84565b600260009081553381526004602052604090205460ff16151560010361087857604051637e2f954760e01b815260040160405180910390fd5b6000610885336000610a90565b9050806000036108a85760405163be7538fb60e01b815260040160405180910390fd5b6108b6426305a39a8061100b565b8210156108d65760405163d6cf6c6760e01b815260040160405180910390fd5b336000908152600360205260408120805490914291610902906105a1906001600160401b031684610fd1565b90506000610914846001015483610be4565b84600101546109239190610ff8565b60015460025460405163095ea7b360e01b81526001600160a01b03918216600482015260248101849052929350169063095ea7b3906044016020604051808303816000875af115801561097a573d6000803e3d6000fd5b505050506040513d601f19601f8201168201806040525081019061099e9190610fa8565b50600254604051633e173b2960e01b815233600482015260248101839052604481018890526001600160a01b0390911690633e173b2990606401600060405180830381600087803b1580156109f257600080fd5b505af1158015610a06573d6000803e3d6000fd5b5050336000818152600460209081526040918290208054600160ff19909116179055885467ffffffffffffffff60401b1916600160401b6001600160401b038a1602178955815192835282018590527f8bcae1a205c9e844b0492205ba6ad2b480293ba662b8d7105268451eb7b78d2f935001905060405180910390a15050600160005550505050565b6001600160a01b0382166000908152600360209081526040808320815160808101835281546001600160401b03808216808452600160401b8304821696840196909652600160801b909104169281019290925260010154606082015290808303610b0d5760405163be7538fb60e01b815260040160405180910390fd5b60208201516001600160401b031615610b395760405163bc21cd9360e01b815260040160405180910390fd5b60006001600160401b03851615610b505784610b52565b425b9050816001600160401b0316816001600160401b03161015610b875760405163b7d0949760e01b815260040160405180910390fd5b6000610b966105a18484610fd1565b90506000610bad8560400151846105a19190610fd1565b6060860151909150610bc38161024e8486610ff8565b610bcd8285610be4565b610bd79190610ff8565b9998505050505050505050565b6000683b5c2d7a70fcbc00008210610bfd575081610c7d565b610c24565b808202831515821583830485141716610c1a57600080fd5b9290920492915050565b610c7a68056bc75e2d6310000084670de0b6b3a76400006002610c73670de0b6b3a764000088610c6e680bdf3c4bb0328c0000670de0b6b3a7640000671bc16d674ec80000610c02565b610c02565b0a04610c02565b90505b92915050565b6000610c7a837f000000000000000000000000000000000000000000000000000000000000000084610ccf565b828202811515841585830485141716610cc857600080fd5b0492915050565b600082610cdc8584610ce5565b14949350505050565b600081815b8451811015610d2a57610d1682868381518110610d0957610d0961101e565b6020026020010151610d32565b915080610d2281611034565b915050610cea565b509392505050565b6000818310610d4e576000828152602084905260409020610c7a565b6000838152602083905260409020610c7a565b634e487b7160e01b600052604160045260246000fd5b60008060408385031215610d8a57600080fd5b82356001600160401b0380821115610da157600080fd5b818501915085601f830112610db557600080fd5b8135602082821115610dc957610dc9610d61565b8160051b604051601f19603f83011681018181108682111715610dee57610dee610d61565b604052928352818301935084810182019289841115610e0c57600080fd5b948201945b83861015610e2a57853585529482019493820193610e11565b9997909101359750505050505050565b80356001600160a01b0381168114610e5157600080fd5b919050565b600060208284031215610e6857600080fd5b610c7a82610e3a565b600060208284031215610e8357600080fd5b5035919050565b60008060408385031215610e9d57600080fd5b610ea683610e3a565b915060208301356001600160401b0381168114610ec257600080fd5b809150509250929050565b60008060408385031215610ee057600080fd5b50508035926020909101359150565b6001600160a01b038416815260208082018490526060604083018190528351908301819052600091848101916080850190845b81811015610f3e57845183529383019391830191600101610f22565b509098975050505050505050565b634e487b7160e01b600052601160045260246000fd5b600082610f7f57634e487b7160e01b600052601260045260246000fd5b500490565b6020808252600a90820152695245454e5452414e435960b01b604082015260600190565b600060208284031215610fba57600080fd5b81518015158114610fca57600080fd5b9392505050565b6001600160401b03828116828216039080821115610ff157610ff1610f4c565b5092915050565b81810381811115610c7d57610c7d610f4c565b80820180821115610c7d57610c7d610f4c565b634e487b7160e01b600052603260045260246000fd5b60006001820161104657611046610f4c565b506001019056fea264697066735822122017a5850431d77d69fe840581eb6e10d56c3dfc7c566613a013d65026447d395364736f6c63430008110033",
  "linkReferences": {},
  "deployedLinkReferences": {}
}