{
  "address": "0x104079a87CE46fe2Cf27b811f6b406b69F6872B3",
  "abi": [
    {
      "inputs": [
        {
          "internalType": "contract ComptrollerInterface",
          "name": "comptroller_",
          "type": "address"
        },
        {
          "internalType": "contract InterestRateModel",
          "name": "interestRateModel_",
          "type": "address"
        },
        {
          "internalType": "uint256",
          "name": "initialExchangeRateMantissa_",
          "type": "uint256"
        },
        {
          "internalType": "string",
          "name": "name_",
          "type": "string"
        },
        {
          "internalType": "string",
          "name": "symbol_",
          "type": "string"
        },
        {
          "internalType": "uint8",
          "name": "decimals_",
          "type": "uint8"
        }
      ],
      "payable": false,
      "stateMutability": "nonpayable",
      "type": "constructor"
    },
    {
      "anonymous": false,
      "inputs": [
        {
          "indexed": false,
          "internalType": "uint256",
          "name": "cashPrior",
          "type": "uint256"
        },
        {
          "indexed": false,
          "internalType": "uint256",
          "name": "interestAccumulated",
          "type": "uint256"
        },
        {
          "indexed": false,
          "internalType": "uint256",
          "name": "borrowIndex",
          "type": "uint256"
        },
        {
          "indexed": false,
          "internalType": "uint256",
          "name": "totalBorrows",
          "type": "uint256"
        }
      ],
      "name": "AccrueInterest",
      "type": "event"
    },
    {
      "anonymous": false,
      "inputs": [
        {
          "indexed": true,
          "internalType": "address",
          "name": "owner",
          "type": "address"
        },
        {
          "indexed": true,
          "internalType": "address",
          "name": "spender",
          "type": "address"
        },
        {
          "indexed": false,
          "internalType": "uint256",
          "name": "amount",
          "type": "uint256"
        }
      ],
      "name": "Approval",
      "type": "event"
    },
    {
      "anonymous": false,
      "inputs": [
        {
          "indexed": false,
          "internalType": "address",
          "name": "borrower",
          "type": "address"
        },
        {
          "indexed": false,
          "internalType": "uint256",
          "name": "borrowAmount",
          "type": "uint256"
        },
        {
          "indexed": false,
          "internalType": "uint256",
          "name": "accountBorrows",
          "type": "uint256"
        },
        {
          "indexed": false,
          "internalType": "uint256",
          "name": "totalBorrows",
          "type": "uint256"
        }
      ],
      "name": "Borrow",
      "type": "event"
    },
    {
      "anonymous": false,
      "inputs": [
        {
          "indexed": false,
          "internalType": "uint256",
          "name": "error",
          "type": "uint256"
        },
        {
          "indexed": false,
          "internalType": "uint256",
          "name": "info",
          "type": "uint256"
        },
        {
          "indexed": false,
          "internalType": "uint256",
          "name": "detail",
          "type": "uint256"
        }
      ],
      "name": "Failure",
      "type": "event"
    },
    {
      "anonymous": false,
      "inputs": [
        {
          "indexed": false,
          "internalType": "address",
          "name": "liquidator",
          "type": "address"
        },
        {
          "indexed": false,
          "internalType": "address",
          "name": "borrower",
          "type": "address"
        },
        {
          "indexed": false,
          "internalType": "uint256",
          "name": "repayAmount",
          "type": "uint256"
        },
        {
          "indexed": false,
          "internalType": "address",
          "name": "cTokenCollateral",
          "type": "address"
        },
        {
          "indexed": false,
          "internalType": "uint256",
          "name": "seizeTokens",
          "type": "uint256"
        }
      ],
      "name": "LiquidateBorrow",
      "type": "event"
    },
    {
      "anonymous": false,
      "inputs": [
        {
          "indexed": false,
          "internalType": "address",
          "name": "minter",
          "type": "address"
        },
        {
          "indexed": false,
          "internalType": "uint256",
          "name": "mintAmount",
          "type": "uint256"
        },
        {
          "indexed": false,
          "internalType": "uint256",
          "name": "mintTokens",
          "type": "uint256"
        }
      ],
      "name": "Mint",
      "type": "event"
    },
    {
      "anonymous": false,
      "inputs": [
        {
          "indexed": false,
          "internalType": "address",
          "name": "oldAdmin",
          "type": "address"
        },
        {
          "indexed": false,
          "internalType": "address",
          "name": "newAdmin",
          "type": "address"
        }
      ],
      "name": "NewAdmin",
      "type": "event"
    },
    {
      "anonymous": false,
      "inputs": [
        {
          "indexed": false,
          "internalType": "contract ComptrollerInterface",
          "name": "oldComptroller",
          "type": "address"
        },
        {
          "indexed": false,
          "internalType": "contract ComptrollerInterface",
          "name": "newComptroller",
          "type": "address"
        }
      ],
      "name": "NewComptroller",
      "type": "event"
    },
    {
      "anonymous": false,
      "inputs": [
        {
          "indexed": false,
          "internalType": "contract InterestRateModel",
          "name": "oldInterestRateModel",
          "type": "address"
        },
        {
          "indexed": false,
          "internalType": "contract InterestRateModel",
          "name": "newInterestRateModel",
          "type": "address"
        }
      ],
      "name": "NewMarketInterestRateModel",
      "type": "event"
    },
    {
      "anonymous": false,
      "inputs": [
        {
          "indexed": false,
          "internalType": "address",
          "name": "oldPendingAdmin",
          "type": "address"
        },
        {
          "indexed": false,
          "internalType": "address",
          "name": "newPendingAdmin",
          "type": "address"
        }
      ],
      "name": "NewPendingAdmin",
      "type": "event"
    },
    {
      "anonymous": false,
      "inputs": [
        {
          "indexed": false,
          "internalType": "uint256",
          "name": "oldProtocolSeizeShareMantissa",
          "type": "uint256"
        },
        {
          "indexed": false,
          "internalType": "uint256",
          "name": "newProtocolSeizeShareMantissa",
          "type": "uint256"
        }
      ],
      "name": "NewProtocolSeizeShare",
      "type": "event"
    },
    {
      "anonymous": false,
      "inputs": [
        {
          "indexed": false,
          "internalType": "uint256",
          "name": "oldReserveFactorMantissa",
          "type": "uint256"
        },
        {
          "indexed": false,
          "internalType": "uint256",
          "name": "newReserveFactorMantissa",
          "type": "uint256"
        }
      ],
      "name": "NewReserveFactor",
      "type": "event"
    },
    {
      "anonymous": false,
      "inputs": [
        {
          "indexed": false,
          "internalType": "address",
          "name": "redeemer",
          "type": "address"
        },
        {
          "indexed": false,
          "internalType": "uint256",
          "name": "redeemAmount",
          "type": "uint256"
        },
        {
          "indexed": false,
          "internalType": "uint256",
          "name": "redeemTokens",
          "type": "uint256"
        }
      ],
      "name": "Redeem",
      "type": "event"
    },
    {
      "anonymous": false,
      "inputs": [
        {
          "indexed": false,
          "internalType": "address",
          "name": "payer",
          "type": "address"
        },
        {
          "indexed": false,
          "internalType": "address",
          "name": "borrower",
          "type": "address"
        },
        {
          "indexed": false,
          "internalType": "uint256",
          "name": "repayAmount",
          "type": "uint256"
        },
        {
          "indexed": false,
          "internalType": "uint256",
          "name": "accountBorrows",
          "type": "uint256"
        },
        {
          "indexed": false,
          "internalType": "uint256",
          "name": "totalBorrows",
          "type": "uint256"
        }
      ],
      "name": "RepayBorrow",
      "type": "event"
    },
    {
      "anonymous": false,
      "inputs": [
        {
          "indexed": false,
          "internalType": "address",
          "name": "benefactor",
          "type": "address"
        },
        {
          "indexed": false,
          "internalType": "uint256",
          "name": "addAmount",
          "type": "uint256"
        },
        {
          "indexed": false,
          "internalType": "uint256",
          "name": "newTotalReserves",
          "type": "uint256"
        }
      ],
      "name": "ReservesAdded",
      "type": "event"
    },
    {
      "anonymous": false,
      "inputs": [
        {
          "indexed": false,
          "internalType": "address",
          "name": "admin",
          "type": "address"
        },
        {
          "indexed": false,
          "internalType": "uint256",
          "name": "reduceAmount",
          "type": "uint256"
        },
        {
          "indexed": false,
          "internalType": "uint256",
          "name": "newTotalReserves",
          "type": "uint256"
        }
      ],
      "name": "ReservesReduced",
      "type": "event"
    },
    {
      "anonymous": false,
      "inputs": [
        {
          "indexed": true,
          "internalType": "address",
          "name": "from",
          "type": "address"
        },
        {
          "indexed": true,
          "internalType": "address",
          "name": "to",
          "type": "address"
        },
        {
          "indexed": false,
          "internalType": "uint256",
          "name": "amount",
          "type": "uint256"
        }
      ],
      "name": "Transfer",
      "type": "event"
    },
    {
      "payable": true,
      "stateMutability": "payable",
      "type": "fallback"
    },
    {
      "constant": false,
      "inputs": [],
      "name": "_acceptAdmin",
      "outputs": [
        {
          "internalType": "uint256",
          "name": "",
          "type": "uint256"
        }
      ],
      "payable": false,
      "stateMutability": "nonpayable",
      "type": "function"
    },
    {
      "constant": false,
      "inputs": [],
      "name": "_addReserves",
      "outputs": [
        {
          "internalType": "uint256",
          "name": "",
          "type": "uint256"
        }
      ],
      "payable": true,
      "stateMutability": "payable",
      "type": "function"
    },
    {
      "constant": false,
      "inputs": [
        {
          "internalType": "uint256",
          "name": "reduceAmount",
          "type": "uint256"
        }
      ],
      "name": "_reduceReserves",
      "outputs": [
        {
          "internalType": "uint256",
          "name": "",
          "type": "uint256"
        }
      ],
      "payable": false,
      "stateMutability": "nonpayable",
      "type": "function"
    },
    {
      "constant": false,
      "inputs": [
        {
          "internalType": "contract ComptrollerInterface",
          "name": "newComptroller",
          "type": "address"
        }
      ],
      "name": "_setComptroller",
      "outputs": [
        {
          "internalType": "uint256",
          "name": "",
          "type": "uint256"
        }
      ],
      "payable": false,
      "stateMutability": "nonpayable",
      "type": "function"
    },
    {
      "constant": false,
      "inputs": [
        {
          "internalType": "contract InterestRateModel",
          "name": "newInterestRateModel",
          "type": "address"
        }
      ],
      "name": "_setInterestRateModel",
      "outputs": [
        {
          "internalType": "uint256",
          "name": "",
          "type": "uint256"
        }
      ],
      "payable": false,
      "stateMutability": "nonpayable",
      "type": "function"
    },
    {
      "constant": false,
      "inputs": [
        {
          "internalType": "address payable",
          "name": "newPendingAdmin",
          "type": "address"
        }
      ],
      "name": "_setPendingAdmin",
      "outputs": [
        {
          "internalType": "uint256",
          "name": "",
          "type": "uint256"
        }
      ],
      "payable": false,
      "stateMutability": "nonpayable",
      "type": "function"
    },
    {
      "constant": false,
      "inputs": [
        {
          "internalType": "uint256",
          "name": "newProtocolSeizeShareMantissa",
          "type": "uint256"
        }
      ],
      "name": "_setProtocolSeizeShare",
      "outputs": [
        {
          "internalType": "uint256",
          "name": "",
          "type": "uint256"
        }
      ],
      "payable": false,
      "stateMutability": "nonpayable",
      "type": "function"
    },
    {
      "constant": false,
      "inputs": [
        {
          "internalType": "uint256",
          "name": "newReserveFactorMantissa",
          "type": "uint256"
        }
      ],
      "name": "_setReserveFactor",
      "outputs": [
        {
          "internalType": "uint256",
          "name": "",
          "type": "uint256"
        }
      ],
      "payable": false,
      "stateMutability": "nonpayable",
      "type": "function"
    },
    {
      "constant": true,
      "inputs": [],
      "name": "accrualBlockNumber",
      "outputs": [
        {
          "internalType": "uint256",
          "name": "",
          "type": "uint256"
        }
      ],
      "payable": false,
      "stateMutability": "view",
      "type": "function"
    },
    {
      "constant": false,
      "inputs": [],
      "name": "accrueInterest",
      "outputs": [
        {
          "internalType": "uint256",
          "name": "",
          "type": "uint256"
        }
      ],
      "payable": false,
      "stateMutability": "nonpayable",
      "type": "function"
    },
    {
      "constant": true,
      "inputs": [],
      "name": "admin",
      "outputs": [
        {
          "internalType": "address payable",
          "name": "",
          "type": "address"
        }
      ],
      "payable": false,
      "stateMutability": "view",
      "type": "function"
    },
    {
      "constant": true,
      "inputs": [
        {
          "internalType": "address",
          "name": "owner",
          "type": "address"
        },
        {
          "internalType": "address",
          "name": "spender",
          "type": "address"
        }
      ],
      "name": "allowance",
      "outputs": [
        {
          "internalType": "uint256",
          "name": "",
          "type": "uint256"
        }
      ],
      "payable": false,
      "stateMutability": "view",
      "type": "function"
    },
    {
      "constant": false,
      "inputs": [
        {
          "internalType": "address",
          "name": "spender",
          "type": "address"
        },
        {
          "internalType": "uint256",
          "name": "amount",
          "type": "uint256"
        }
      ],
      "name": "approve",
      "outputs": [
        {
          "internalType": "bool",
          "name": "",
          "type": "bool"
        }
      ],
      "payable": false,
      "stateMutability": "nonpayable",
      "type": "function"
    },
    {
      "constant": true,
      "inputs": [
        {
          "internalType": "address",
          "name": "owner",
          "type": "address"
        }
      ],
      "name": "balanceOf",
      "outputs": [
        {
          "internalType": "uint256",
          "name": "",
          "type": "uint256"
        }
      ],
      "payable": false,
      "stateMutability": "view",
      "type": "function"
    },
    {
      "constant": true,
      "inputs": [
        {
          "internalType": "address",
          "name": "owner",
          "type": "address"
        }
      ],
      "name": "balanceOfUnderlying",
      "outputs": [
        {
          "internalType": "uint256",
          "name": "",
          "type": "uint256"
        }
      ],
      "payable": false,
      "stateMutability": "view",
      "type": "function"
    },
    {
      "constant": false,
      "inputs": [
        {
          "internalType": "uint256",
          "name": "borrowAmount",
          "type": "uint256"
        }
      ],
      "name": "borrow",
      "outputs": [
        {
          "internalType": "uint256",
          "name": "",
          "type": "uint256"
        }
      ],
      "payable": false,
      "stateMutability": "nonpayable",
      "type": "function"
    },
    {
      "constant": false,
      "inputs": [
        {
          "internalType": "address",
          "name": "account",
          "type": "address"
        }
      ],
      "name": "borrowBalanceCurrent",
      "outputs": [
        {
          "internalType": "uint256",
          "name": "",
          "type": "uint256"
        }
      ],
      "payable": false,
      "stateMutability": "nonpayable",
      "type": "function"
    },
    {
      "constant": true,
      "inputs": [
        {
          "internalType": "address",
          "name": "account",
          "type": "address"
        }
      ],
      "name": "borrowBalanceStored",
      "outputs": [
        {
          "internalType": "uint256",
          "name": "",
          "type": "uint256"
        }
      ],
      "payable": false,
      "stateMutability": "view",
      "type": "function"
    },
    {
      "constant": true,
      "inputs": [],
      "name": "borrowIndex",
      "outputs": [
        {
          "internalType": "uint256",
          "name": "",
          "type": "uint256"
        }
      ],
      "payable": false,
      "stateMutability": "view",
      "type": "function"
    },
    {
      "constant": true,
      "inputs": [],
      "name": "borrowRatePerBlock",
      "outputs": [
        {
          "internalType": "uint256",
          "name": "",
          "type": "uint256"
        }
      ],
      "payable": false,
      "stateMutability": "view",
      "type": "function"
    },
    {
      "constant": true,
      "inputs": [],
      "name": "comptroller",
      "outputs": [
        {
          "internalType": "contract ComptrollerInterface",
          "name": "",
          "type": "address"
        }
      ],
      "payable": false,
      "stateMutability": "view",
      "type": "function"
    },
    {
      "constant": true,
      "inputs": [],
      "name": "decimals",
      "outputs": [
        {
          "internalType": "uint8",
          "name": "",
          "type": "uint8"
        }
      ],
      "payable": false,
      "stateMutability": "view",
      "type": "function"
    },
    {
      "constant": true,
      "inputs": [],
      "name": "exchangeRateCurrent",
      "outputs": [
        {
          "internalType": "uint256",
          "name": "",
          "type": "uint256"
        }
      ],
      "payable": false,
      "stateMutability": "view",
      "type": "function"
    },
    {
      "constant": true,
      "inputs": [],
      "name": "exchangeRateStored",
      "outputs": [
        {
          "internalType": "uint256",
          "name": "",
          "type": "uint256"
        }
      ],
      "payable": false,
      "stateMutability": "view",
      "type": "function"
    },
    {
      "constant": true,
      "inputs": [
        {
          "internalType": "address",
          "name": "account",
          "type": "address"
        }
      ],
      "name": "getAccountSnapshot",
      "outputs": [
        {
          "internalType": "uint256",
          "name": "",
          "type": "uint256"
        },
        {
          "internalType": "uint256",
          "name": "",
          "type": "uint256"
        },
        {
          "internalType": "uint256",
          "name": "",
          "type": "uint256"
        },
        {
          "internalType": "uint256",
          "name": "",
          "type": "uint256"
        }
      ],
      "payable": false,
      "stateMutability": "view",
      "type": "function"
    },
    {
      "constant": true,
      "inputs": [],
      "name": "getCash",
      "outputs": [
        {
          "internalType": "uint256",
          "name": "",
          "type": "uint256"
        }
      ],
      "payable": false,
      "stateMutability": "view",
      "type": "function"
    },
    {
      "constant": false,
      "inputs": [
        {
          "internalType": "contract ComptrollerInterface",
          "name": "comptroller_",
          "type": "address"
        },
        {
          "internalType": "contract InterestRateModel",
          "name": "interestRateModel_",
          "type": "address"
        },
        {
          "internalType": "uint256",
          "name": "initialExchangeRateMantissa_",
          "type": "uint256"
        },
        {
          "internalType": "string",
          "name": "name_",
          "type": "string"
        },
        {
          "internalType": "string",
          "name": "symbol_",
          "type": "string"
        },
        {
          "internalType": "uint8",
          "name": "decimals_",
          "type": "uint8"
        }
      ],
      "name": "initialize",
      "outputs": [],
      "payable": false,
      "stateMutability": "nonpayable",
      "type": "function"
    },
    {
      "constant": true,
      "inputs": [],
      "name": "interestRateModel",
      "outputs": [
        {
          "internalType": "contract InterestRateModel",
          "name": "",
          "type": "address"
        }
      ],
      "payable": false,
      "stateMutability": "view",
      "type": "function"
    },
    {
      "constant": true,
      "inputs": [],
      "name": "isCToken",
      "outputs": [
        {
          "internalType": "bool",
          "name": "",
          "type": "bool"
        }
      ],
      "payable": false,
      "stateMutability": "view",
      "type": "function"
    },
    {
      "constant": false,
      "inputs": [
        {
          "internalType": "address",
          "name": "borrower",
          "type": "address"
        },
        {
          "internalType": "contract CToken",
          "name": "cTokenCollateral",
          "type": "address"
        }
      ],
      "name": "liquidateBorrow",
      "outputs": [],
      "payable": true,
      "stateMutability": "payable",
      "type": "function"
    },
    {
      "constant": false,
      "inputs": [
        {
          "internalType": "bool",
          "name": "enterMarket",
          "type": "bool"
        }
      ],
      "name": "mint",
      "outputs": [],
      "payable": true,
      "stateMutability": "payable",
      "type": "function"
    },
    {
      "constant": true,
      "inputs": [],
      "name": "name",
      "outputs": [
        {
          "internalType": "string",
          "name": "",
          "type": "string"
        }
      ],
      "payable": false,
      "stateMutability": "view",
      "type": "function"
    },
    {
      "constant": true,
      "inputs": [],
      "name": "pendingAdmin",
      "outputs": [
        {
          "internalType": "address payable",
          "name": "",
          "type": "address"
        }
      ],
      "payable": false,
      "stateMutability": "view",
      "type": "function"
    },
    {
      "constant": true,
      "inputs": [],
      "name": "protocolSeizeShareMantissa",
      "outputs": [
        {
          "internalType": "uint256",
          "name": "",
          "type": "uint256"
        }
      ],
      "payable": false,
      "stateMutability": "view",
      "type": "function"
    },
    {
      "constant": false,
      "inputs": [
        {
          "internalType": "uint256",
          "name": "redeemTokens",
          "type": "uint256"
        }
      ],
      "name": "redeem",
      "outputs": [
        {
          "internalType": "uint256",
          "name": "",
          "type": "uint256"
        }
      ],
      "payable": false,
      "stateMutability": "nonpayable",
      "type": "function"
    },
    {
      "constant": false,
      "inputs": [
        {
          "internalType": "uint256",
          "name": "redeemAmount",
          "type": "uint256"
        }
      ],
      "name": "redeemUnderlying",
      "outputs": [
        {
          "internalType": "uint256",
          "name": "",
          "type": "uint256"
        }
      ],
      "payable": false,
      "stateMutability": "nonpayable",
      "type": "function"
    },
    {
      "constant": false,
      "inputs": [],
      "name": "repayBorrow",
      "outputs": [],
      "payable": true,
      "stateMutability": "payable",
      "type": "function"
    },
    {
      "constant": false,
      "inputs": [
        {
          "internalType": "address",
          "name": "borrower",
          "type": "address"
        }
      ],
      "name": "repayBorrowBehalf",
      "outputs": [],
      "payable": true,
      "stateMutability": "payable",
      "type": "function"
    },
    {
      "constant": true,
      "inputs": [],
      "name": "reserveFactorMantissa",
      "outputs": [
        {
          "internalType": "uint256",
          "name": "",
          "type": "uint256"
        }
      ],
      "payable": false,
      "stateMutability": "view",
      "type": "function"
    },
    {
      "constant": false,
      "inputs": [
        {
          "internalType": "address",
          "name": "liquidator",
          "type": "address"
        },
        {
          "internalType": "address",
          "name": "borrower",
          "type": "address"
        },
        {
          "internalType": "uint256",
          "name": "seizeTokens",
          "type": "uint256"
        }
      ],
      "name": "seize",
      "outputs": [
        {
          "internalType": "uint256",
          "name": "",
          "type": "uint256"
        }
      ],
      "payable": false,
      "stateMutability": "nonpayable",
      "type": "function"
    },
    {
      "constant": true,
      "inputs": [],
      "name": "supplyRatePerBlock",
      "outputs": [
        {
          "internalType": "uint256",
          "name": "",
          "type": "uint256"
        }
      ],
      "payable": false,
      "stateMutability": "view",
      "type": "function"
    },
    {
      "constant": true,
      "inputs": [],
      "name": "symbol",
      "outputs": [
        {
          "internalType": "string",
          "name": "",
          "type": "string"
        }
      ],
      "payable": false,
      "stateMutability": "view",
      "type": "function"
    },
    {
      "constant": true,
      "inputs": [],
      "name": "totalBorrows",
      "outputs": [
        {
          "internalType": "uint256",
          "name": "",
          "type": "uint256"
        }
      ],
      "payable": false,
      "stateMutability": "view",
      "type": "function"
    },
    {
      "constant": false,
      "inputs": [],
      "name": "totalBorrowsCurrent",
      "outputs": [
        {
          "internalType": "uint256",
          "name": "",
          "type": "uint256"
        }
      ],
      "payable": false,
      "stateMutability": "nonpayable",
      "type": "function"
    },
    {
      "constant": true,
      "inputs": [],
      "name": "totalReserves",
      "outputs": [
        {
          "internalType": "uint256",
          "name": "",
          "type": "uint256"
        }
      ],
      "payable": false,
      "stateMutability": "view",
      "type": "function"
    },
    {
      "constant": true,
      "inputs": [],
      "name": "totalSupply",
      "outputs": [
        {
          "internalType": "uint256",
          "name": "",
          "type": "uint256"
        }
      ],
      "payable": false,
      "stateMutability": "view",
      "type": "function"
    },
    {
      "constant": false,
      "inputs": [
        {
          "internalType": "address",
          "name": "dst",
          "type": "address"
        },
        {
          "internalType": "uint256",
          "name": "amount",
          "type": "uint256"
        }
      ],
      "name": "transfer",
      "outputs": [
        {
          "internalType": "bool",
          "name": "",
          "type": "bool"
        }
      ],
      "payable": false,
      "stateMutability": "nonpayable",
      "type": "function"
    },
    {
      "constant": false,
      "inputs": [
        {
          "internalType": "address",
          "name": "src",
          "type": "address"
        },
        {
          "internalType": "address",
          "name": "dst",
          "type": "address"
        },
        {
          "internalType": "uint256",
          "name": "amount",
          "type": "uint256"
        }
      ],
      "name": "transferFrom",
      "outputs": [
        {
          "internalType": "bool",
          "name": "",
          "type": "bool"
        }
      ],
      "payable": false,
      "stateMutability": "nonpayable",
      "type": "function"
    }
  ],
  "transactionHash": "0x927ca168272eb88f136ada999aea36742b3b4b24d42ea84c9da32f6ea5aa63db",
  "args": [
    "0x8e8C327AD3Fa97092cdAba70efCf82DaC3081fa1",
    "0x8D5648Be10F8B25a1E93C3E8eBebF816BF7f8512",
    "200000000000000000",
    "bao deposited Ether",
    "bdETH",
    "8"
  ],
  "numDeployments": 1,
  "solcInputHash": "bc025e7bce9ee8dee5f68883a99283cb",
  "bytecode": "0x6080604052666379da05b600006011553480156200001c57600080fd5b5060405162005fdf38038062005fdf833981810160405260c08110156200004257600080fd5b8151602083015160408085015160608601805192519496939591949391820192846401000000008211156200007657600080fd5b9083019060208201858111156200008c57600080fd5b8251640100000000811182820188101715620000a757600080fd5b82525081516020918201929091019080838360005b83811015620000d6578181015183820152602001620000bc565b50505050905090810190601f168015620001045780820380516001836020036101000a031916815260200191505b50604052602001805160405193929190846401000000008211156200012857600080fd5b9083019060208201858111156200013e57600080fd5b82516401000000008111828201881017156200015957600080fd5b82525081516020918201929091019080838360005b83811015620001885781810151838201526020016200016e565b50505050905090810190601f168015620001b65780820380516001836020036101000a031916815260200191505b506040526020015160038054610100600160a81b03191633610100021790559150620001e990508686868686866200020d565b505060038054610100600160a81b0319163261010002179055506200084892505050565b60035461010090046001600160a01b031633146200025d5760405162461bcd60e51b815260040180806020018281038252602481526020018062005f466024913960400191505060405180910390fd5b6009541580156200026e5750600a54155b620002ab5760405162461bcd60e51b815260040180806020018281038252602381526020018062005f6a6023913960400191505060405180910390fd5b600784905583620002ee5760405162461bcd60e51b815260040180806020018281038252603081526020018062005f8d6030913960400191505060405180910390fd5b600062000304876001600160e01b036200042316565b905080156200035a576040805162461bcd60e51b815260206004820152601a60248201527f73657474696e6720636f6d7074726f6c6c6572206661696c6564000000000000604482015290519081900360640190fd5b6200036d6001600160e01b036200058b16565b600955670de0b6b3a7640000600a5562000390866001600160e01b036200059016565b90508015620003d15760405162461bcd60e51b815260040180806020018281038252602281526020018062005fbd6022913960400191505060405180910390fd5b8351620003e6906001906020870190620007a6565b508251620003fc906002906020860190620007a6565b50506003805460ff90921660ff199283161790556000805490911660011790555050505050565b60035460009061010090046001600160a01b031633146200045d57620004556001603f6001600160e01b036200073616565b905062000586565b60055460408051623f1ee960e11b815290516001600160a01b0392831692851691627e3dd2916004808301926020929190829003018186803b158015620004a357600080fd5b505afa158015620004b8573d6000803e3d6000fd5b505050506040513d6020811015620004cf57600080fd5b505162000523576040805162461bcd60e51b815260206004820152601c60248201527f6d61726b6572206d6574686f642072657475726e65642066616c736500000000604482015290519081900360640190fd5b600580546001600160a01b0319166001600160a01b03858116918217909255604080519284168352602083019190915280517f7ac369dbd14fa5ea3f473ed67cc9d598964a77501540ba6751eb0b3decf5870d9281900390910190a160005b9150505b919050565b435b90565b600354600090819061010090046001600160a01b03163314620005cd57620005c4600160426001600160e01b036200073616565b91505062000586565b620005e06001600160e01b036200058b16565b600954146200060057620005c4600a60416001600160e01b036200073616565b600660009054906101000a90046001600160a01b03169050826001600160a01b0316632191f92a6040518163ffffffff1660e01b815260040160206040518083038186803b1580156200065257600080fd5b505afa15801562000667573d6000803e3d6000fd5b505050506040513d60208110156200067e57600080fd5b5051620006d2576040805162461bcd60e51b815260206004820152601c60248201527f6d61726b6572206d6574686f642072657475726e65642066616c736500000000604482015290519081900360640190fd5b600680546001600160a01b0319166001600160a01b03858116918217909255604080519284168352602083019190915280517fedffc32e068c7c95dfd4bdfd5c4d939a084d6b11c4199eac8436ed234d72f9269281900390910190a1600062000582565b60007f45b96fe442630264581b197e84bbada861235052c5a1aadfff9ea4e40a969aa08360108111156200076657fe5b8360508111156200077357fe5b604080519283526020830191909152600082820152519081900360600190a18260108111156200079f57fe5b9392505050565b828054600181600116156101000203166002900490600052602060002090601f016020900481019282601f10620007e957805160ff191683800117855562000819565b8280016001018555821562000819579182015b8281111562000819578251825591602001919060010190620007fc565b50620008279291506200082b565b5090565b6200058d91905b8082111562000827576000815560010162000832565b6156ee80620008586000396000f3fe6080604052600436106102935760003560e01c806395d89b411161015a578063c5ebeaec116100c1578063f3fdb15a1161007a578063f3fdb15a14610acc578063f851a44014610ae1578063f8f9da2814610af6578063fca7820b14610b0b578063fcb6414714610b35578063fe9c44ae14610b3d57610293565b8063c5ebeaec146109cf578063db006a75146109f9578063dd62ed3e14610a23578063e597461914610a5e578063e9c714f214610a84578063f2b3abbd14610a9957610293565b8063aae40a2a11610113578063aae40a2a146108a8578063ae9d70b0146108d6578063b2a02ff1146108eb578063b71d1a0c1461092e578063bd6d894d14610961578063c37f68e21461097657610293565b806395d89b411461069e57806395dd9193146106b357806399d8c1b4146106e6578063a6afed9514610845578063a9059cbb1461085a578063aa5af0fd1461089357610293565b80634576b5db116101fe5780636c540baf116101b75780636c540baf146105d857806370a08231146105ed57806373acee98146106205780638303084614610635578063852a12e31461065f5780638f840ddd1461068957610293565b80634576b5db1461053457806347bd3718146105675780634e4d9fea1461057c5780635fe3b56714610584578063601a0bf1146105995780636752e702146105c357610293565b806318c41a801161025057806318c41a801461042c57806323b872dd1461044d5780632678224714610490578063313ce567146104c15780633af9e669146104ec5780633b1d21a21461051f57610293565b806306fdde03146102d1578063095ea7b31461035b578063173b9904146103a857806317bfdfbc146103cf57806318160ddd14610402578063182df0f514610417575b600061029e34610b52565b5090506102ce816040518060400160405280600b81526020016a1b5a5b9d0819985a5b195960aa1b815250610bfa565b50005b3480156102dd57600080fd5b506102e6610dfa565b6040805160208082528351818301528351919283929083019185019080838360005b83811015610320578181015183820152602001610308565b50505050905090810190601f16801561034d5780820380516001836020036101000a031916815260200191505b509250505060405180910390f35b34801561036757600080fd5b506103946004803603604081101561037e57600080fd5b506001600160a01b038135169060200135610e87565b604080519115158252519081900360200190f35b3480156103b457600080fd5b506103bd610ef4565b60408051918252519081900360200190f35b3480156103db57600080fd5b506103bd600480360360208110156103f257600080fd5b50356001600160a01b0316610efa565b34801561040e57600080fd5b506103bd610fba565b34801561042357600080fd5b506103bd610fc0565b61044b6004803603602081101561044257600080fd5b50351515611023565b005b34801561045957600080fd5b506103946004803603606081101561047057600080fd5b506001600160a01b0381358116916020810135909116906040013561120c565b34801561049c57600080fd5b506104a561127e565b604080516001600160a01b039092168252519081900360200190f35b3480156104cd57600080fd5b506104d661128d565b6040805160ff9092168252519081900360200190f35b3480156104f857600080fd5b506103bd6004803603602081101561050f57600080fd5b50356001600160a01b0316611296565b34801561052b57600080fd5b506103bd6112d9565b34801561054057600080fd5b506103bd6004803603602081101561055757600080fd5b50356001600160a01b03166112e8565b34801561057357600080fd5b506103bd61143d565b61044b611443565b34801561059057600080fd5b506104a5611488565b3480156105a557600080fd5b506103bd600480360360208110156105bc57600080fd5b5035611497565b3480156105cf57600080fd5b506103bd611532565b3480156105e457600080fd5b506103bd611538565b3480156105f957600080fd5b506103bd6004803603602081101561061057600080fd5b50356001600160a01b031661153e565b34801561062c57600080fd5b506103bd611559565b34801561064157600080fd5b506103bd6004803603602081101561065857600080fd5b503561160f565b34801561066b57600080fd5b506103bd6004803603602081101561068257600080fd5b50356116fd565b34801561069557600080fd5b506103bd611708565b3480156106aa57600080fd5b506102e661170e565b3480156106bf57600080fd5b506103bd600480360360208110156106d657600080fd5b50356001600160a01b0316611766565b3480156106f257600080fd5b5061044b600480360360c081101561070957600080fd5b6001600160a01b0382358116926020810135909116916040820135919081019060808101606082013564010000000081111561074457600080fd5b82018360208201111561075657600080fd5b8035906020019184600183028401116401000000008311171561077857600080fd5b91908080601f01602080910402602001604051908101604052809392919081815260200183838082843760009201919091525092959493602081019350359150506401000000008111156107cb57600080fd5b8201836020820111156107dd57600080fd5b803590602001918460018302840111640100000000831117156107ff57600080fd5b91908080601f0160208091040260200160405190810160405280939291908181526020018383808284376000920191909152509295505050903560ff1691506117c39050565b34801561085157600080fd5b506103bd6119aa565b34801561086657600080fd5b506103946004803603604081101561087d57600080fd5b506001600160a01b038135169060200135611d02565b34801561089f57600080fd5b506103bd611d73565b61044b600480360360408110156108be57600080fd5b506001600160a01b0381358116916020013516611d79565b3480156108e257600080fd5b506103bd611dc6565b3480156108f757600080fd5b506103bd6004803603606081101561090e57600080fd5b506001600160a01b03813581169160208101359091169060400135611e65565b34801561093a57600080fd5b506103bd6004803603602081101561095157600080fd5b50356001600160a01b0316611ed6565b34801561096d57600080fd5b506103bd611f62565b34801561098257600080fd5b506109a96004803603602081101561099957600080fd5b50356001600160a01b03166120ea565b604080519485526020850193909352838301919091526060830152519081900360800190f35b3480156109db57600080fd5b506103bd600480360360208110156109f257600080fd5b503561217f565b348015610a0557600080fd5b506103bd60048036036020811015610a1c57600080fd5b503561218a565b348015610a2f57600080fd5b506103bd60048036036040811015610a4657600080fd5b506001600160a01b0381358116916020013516612195565b61044b60048036036020811015610a7457600080fd5b50356001600160a01b03166121c0565b348015610a9057600080fd5b506103bd61220e565b348015610aa557600080fd5b506103bd60048036036020811015610abc57600080fd5b50356001600160a01b0316612311565b348015610ad857600080fd5b506104a561234b565b348015610aed57600080fd5b506104a561235a565b348015610b0257600080fd5b506103bd61236e565b348015610b1757600080fd5b506103bd60048036036020811015610b2e57600080fd5b50356123d2565b6103bd612450565b348015610b4957600080fd5b5061039461245b565b60008054819060ff16610b99576040805162461bcd60e51b815260206004820152600a6024820152691c994b595b9d195c995960b21b604482015290519081900360640190fd5b6000805460ff19168155610bab6119aa565b90508015610bd657610bc9816010811115610bc257fe5b601e612460565b925060009150610be69050565b610be033856124c6565b92509250505b6000805460ff191660011790559092909150565b81610c0457610df6565b606081516005016040519080825280601f01601f191660200182016040528015610c35576020820181803883390190505b50905060005b8251811015610c8657828181518110610c5057fe5b602001015160f81c60f81b828281518110610c6757fe5b60200101906001600160f81b031916908160001a905350600101610c3b565b8151600160fd1b90839083908110610c9a57fe5b60200101906001600160f81b031916908160001a905350602860f81b828260010181518110610cc557fe5b60200101906001600160f81b031916908160001a905350600a840460300160f81b828260020181518110610cf557fe5b60200101906001600160f81b031916908160001a905350600a840660300160f81b828260030181518110610d2557fe5b60200101906001600160f81b031916908160001a905350602960f81b828260040181518110610d5057fe5b60200101906001600160f81b031916908160001a905350818415610df25760405162461bcd60e51b81526004018080602001828103825283818151815260200191508051906020019080838360005b83811015610db7578181015183820152602001610d9f565b50505050905090810190601f168015610de45780820380516001836020036101000a031916815260200191505b509250505060405180910390fd5b5050505b5050565b60018054604080516020600284861615610100026000190190941693909304601f81018490048402820184019092528181529291830182828015610e7f5780601f10610e5457610100808354040283529160200191610e7f565b820191906000526020600020905b815481529060010190602001808311610e6257829003601f168201915b505050505081565b336000818152600f602090815260408083206001600160a01b03871680855290835281842086905581518681529151939493909284927f8c5be1e5ebec7d5bd14f71427d1e84f3dd0314c0f7b2291e5b200ac8c7c3b925929081900390910190a360019150505b92915050565b60085481565b6000805460ff16610f3f576040805162461bcd60e51b815260206004820152600a6024820152691c994b595b9d195c995960b21b604482015290519081900360640190fd5b6000805460ff19168155610f516119aa565b14610f9c576040805162461bcd60e51b81526020600482015260166024820152751858d8dc9d59481a5b9d195c995cdd0819985a5b195960521b604482015290519081900360640190fd5b610fa582611766565b90505b6000805460ff19166001179055919050565b600d5481565b6000806000610fcd612926565b90925090506000826003811115610fe057fe5b1461101c5760405162461bcd60e51b81526004018080602001828103825260358152602001806156056035913960400191505060405180910390fd5b9150505b90565b600061102e34610b52565b50905061105e816040518060400160405280600b81526020016a1b5a5b9d0819985a5b195960aa1b815250610bfa565b60018215151415610df65760408051600180825281830190925260609160208083019080388339019050509050308160008151811061109957fe5b6001600160a01b039283166020918202929092018101919091526005546040805163effd86f560e01b8152336024820181905260048201928352865160448301528651939095169463effd86f59487949193928392606490910191868101910280838360005b838110156111175781810151838201526020016110ff565b505050509050019350505050600060405180830381600087803b15801561113d57600080fd5b505af1158015611151573d6000803e3d6000fd5b505050506040513d6000823e601f3d908101601f19168201604052602081101561117a57600080fd5b810190808051604051939291908464010000000082111561119a57600080fd5b9083019060208201858111156111af57600080fd5b82518660208202830111640100000000821117156111cc57600080fd5b82525081516020918201928201910280838360005b838110156111f95781810151838201526020016111e1565b5050505090500160405250505050505050565b6000805460ff16611251576040805162461bcd60e51b815260206004820152600a6024820152691c994b595b9d195c995960b21b604482015290519081900360640190fd5b6000805460ff19168155611267338686866129d5565b1490506000805460ff191660011790559392505050565b6004546001600160a01b031681565b60035460ff1681565b60006112d16112a3611f62565b6001600160a01b0384166000908152600e602052604090205490670de0b6b3a764000063ffffffff612ce516565b90505b919050565b60006112e3612d00565b905090565b60035460009061010090046001600160a01b031633146113155761130e6001603f612460565b90506112d4565b60055460408051623f1ee960e11b815290516001600160a01b0392831692851691627e3dd2916004808301926020929190829003018186803b15801561135a57600080fd5b505afa15801561136e573d6000803e3d6000fd5b505050506040513d602081101561138457600080fd5b50516113d7576040805162461bcd60e51b815260206004820152601c60248201527f6d61726b6572206d6574686f642072657475726e65642066616c736500000000604482015290519081900360640190fd5b600580546001600160a01b0319166001600160a01b03858116918217909255604080519284168352602083019190915280517f7ac369dbd14fa5ea3f473ed67cc9d598964a77501540ba6751eb0b3decf5870d9281900390910190a160005b9392505050565b600b5481565b600061144e34612d2c565b50905061148581604051806040016040528060128152602001711c995c185e509bdc9c9bddc819985a5b195960721b815250610bfa565b50565b6005546001600160a01b031681565b6000805460ff166114dc576040805162461bcd60e51b815260206004820152600a6024820152691c994b595b9d195c995960b21b604482015290519081900360640190fd5b6000805460ff191681556114ee6119aa565b905080156115145761150c81601081111561150557fe5b6030612460565b915050610fa8565b61151d83612dae565b9150506000805460ff19166001179055919050565b60115481565b60095481565b6001600160a01b03166000908152600e602052604090205490565b6000805460ff1661159e576040805162461bcd60e51b815260206004820152600a6024820152691c994b595b9d195c995960b21b604482015290519081900360640190fd5b6000805460ff191681556115b06119aa565b146115fb576040805162461bcd60e51b81526020600482015260166024820152751858d8dc9d59481a5b9d195c995cdd0819985a5b195960521b604482015290519081900360640190fd5b50600b546000805460ff1916600117905590565b60035460009061010090046001600160a01b0316331461166c576040805162461bcd60e51b815260206004820152601360248201527221b0b63632b91034b9903737ba1020b236b4b760691b604482015290519081900360640190fd5b670de0b6b3a76400008211156116b35760405162461bcd60e51b81526004018080602001828103825260238152602001806154296023913960400191505060405180910390fd5b6011805490839055604080518281526020810185905281517ff5815f353a60e815cce7553e4f60c533a59d26b1b5504ea4b6db8d60da3e4da2929181900390910190a16000611436565b60006112d182612ee1565b600c5481565b6002805460408051602060018416156101000260001901909316849004601f81018490048402820184019092528181529291830182828015610e7f5780601f10610e5457610100808354040283529160200191610e7f565b600080600061177484612f62565b9092509050600082600381111561178757fe5b146114365760405162461bcd60e51b81526004018080602001828103825260378152602001806155106037913960400191505060405180910390fd5b60035461010090046001600160a01b031633146118115760405162461bcd60e51b815260040180806020018281038252602481526020018061544c6024913960400191505060405180910390fd5b6009541580156118215750600a54155b61185c5760405162461bcd60e51b81526004018080602001828103825260238152602001806154706023913960400191505060405180910390fd5b60078490558361189d5760405162461bcd60e51b81526004018080602001828103825260308152602001806154936030913960400191505060405180910390fd5b60006118a8876112e8565b905080156118fd576040805162461bcd60e51b815260206004820152601a60248201527f73657474696e6720636f6d7074726f6c6c6572206661696c6564000000000000604482015290519081900360640190fd5b611905613016565b600955670de0b6b3a7640000600a5561191d8661301a565b9050801561195c5760405162461bcd60e51b81526004018080602001828103825260228152602001806154c36022913960400191505060405180910390fd5b835161196f906001906020870190615283565b508251611983906002906020860190615283565b50506003805460ff90921660ff199283161790556000805490911660011790555050505050565b6000806119b5613016565b600954909150808214156119ce57600092505050611020565b60006119d8612d00565b600b54600c54600a54600654604080516315f2405360e01b815260048101879052602481018690526044810185905290519596509394929391926000926001600160a01b03909216916315f24053916064808301926020929190829003018186803b158015611a4657600080fd5b505afa158015611a5a573d6000803e3d6000fd5b505050506040513d6020811015611a7057600080fd5b5051905065048c27395000811115611acf576040805162461bcd60e51b815260206004820152601c60248201527f626f72726f772072617465206973206162737572646c79206869676800000000604482015290519081900360640190fd5b600080611adc898961318f565b90925090506000826003811115611aef57fe5b14611b41576040805162461bcd60e51b815260206004820152601f60248201527f636f756c64206e6f742063616c63756c61746520626c6f636b2064656c746100604482015290519081900360640190fd5b611b49615301565b600080600080611b6760405180602001604052808a815250876131b2565b90975094506000876003811115611b7a57fe5b14611bac57611b9760096006896003811115611b9257fe5b61321a565b9e505050505050505050505050505050611020565b611bb6858c613280565b90975093506000876003811115611bc957fe5b14611be157611b9760096001896003811115611b9257fe5b611beb848c6132d3565b90975092506000876003811115611bfe57fe5b14611c1657611b9760096004896003811115611b9257fe5b611c316040518060200160405280600854815250858c6132f9565b90975091506000876003811115611c4457fe5b14611c5c57611b9760096005896003811115611b9257fe5b611c67858a8b6132f9565b90975090506000876003811115611c7a57fe5b14611c9257611b9760096003896003811115611b9257fe5b60098e9055600a819055600b839055600c829055604080518d8152602081018690528082018390526060810185905290517f4dec04e750ca11537cabcd8a9eab06494de08da3735bc8871cd41250e190bc049181900360800190a160009e50505050505050505050505050505090565b6000805460ff16611d47576040805162461bcd60e51b815260206004820152600a6024820152691c994b595b9d195c995960b21b604482015290519081900360640190fd5b6000805460ff19168155611d5d333386866129d5565b1490506000805460ff1916600117905592915050565b600a5481565b6000611d86833484613355565b509050611dc181604051806040016040528060168152602001751b1a5c5d5a59185d19509bdc9c9bddc819985a5b195960521b815250610bfa565b505050565b6006546000906001600160a01b031663b8168816611de2612d00565b600b54600c546008546040518563ffffffff1660e01b81526004018085815260200184815260200183815260200182815260200194505050505060206040518083038186803b158015611e3457600080fd5b505afa158015611e48573d6000803e3d6000fd5b505050506040513d6020811015611e5e57600080fd5b5051905090565b6000805460ff16611eaa576040805162461bcd60e51b815260206004820152600a6024820152691c994b595b9d195c995960b21b604482015290519081900360640190fd5b6000805460ff19169055611ec033858585613487565b90506000805460ff191660011790559392505050565b60035460009061010090046001600160a01b03163314611efc5761130e60016045612460565b600480546001600160a01b038481166001600160a01b0319831681179093556040805191909216808252602082019390935281517fca4f2f25d0898edd99413412fb94012f9e54ec8142f9b093e7720646a95b16a9929181900390910190a16000611436565b60095460009043811415611f8057611f78610fc0565b915050611020565b600b54600c54600654604080516315f2405360e01b8152476004820181905260248201869052604482018590529151919493926000926001600160a01b03909116916315f24053916064808301926020929190829003018186803b158015611fe757600080fd5b505afa158015611ffb573d6000803e3d6000fd5b505050506040513d602081101561201157600080fd5b5051905065048c27395000811115612060576040805162461bcd60e51b815260206004820152600d60248201526c0a482a88abea89e9ebe90928e9609b1b604482015290519081900360640190fd5b600061208043879003830285670de0b6b3a764000063ffffffff612ce516565b90506000836120a483670de0b6b3a7640000600854612ce59092919063ffffffff16565b600d54910191508286019080156120d8576120d388830184900382670de0b6b3a764000063ffffffff61385c16565b6120dc565b6007545b995050505050505050505090565b6001600160a01b0381166000908152600e602052604081205481908190819081808061211589612f62565b93509050600081600381111561212757fe5b146121455760095b9750600096508695508594506121789350505050565b61214d612926565b92509050600081600381111561215f57fe5b1461216b57600961212f565b5060009650919450925090505b9193509193565b60006112d18261387e565b60006112d1826138fd565b6001600160a01b039182166000908152600f6020908152604080832093909416825291909152205490565b60006121cc8234613977565b509050610df6816040518060400160405280601881526020017f7265706179426f72726f77426568616c66206661696c65640000000000000000815250610bfa565b6004546000906001600160a01b031633141580612229575033155b156122415761223a60016000612460565b9050611020565b60038054600480546001600160a01b03818116610100818102610100600160a81b0319871617968790556001600160a01b031990931690935560408051948390048216808652929095041660208401528351909391927ff9ffabca9c8276e99321725bcb43fb076a6c66a54b7f21c4e8146d8519b417dc92908290030190a1600454604080516001600160a01b038085168252909216602083015280517fca4f2f25d0898edd99413412fb94012f9e54ec8142f9b093e7720646a95b16a99281900390910190a160009250505090565b60008061231c6119aa565b905080156123425761233a81601081111561233357fe5b6040612460565b9150506112d4565b6114368361301a565b6006546001600160a01b031681565b60035461010090046001600160a01b031681565b6006546000906001600160a01b03166315f2405361238a612d00565b600b54600c546040518463ffffffff1660e01b815260040180848152602001838152602001828152602001935050505060206040518083038186803b158015611e3457600080fd5b6000805460ff16612417576040805162461bcd60e51b815260206004820152600a6024820152691c994b595b9d195c995960b21b604482015290519081900360640190fd5b6000805460ff191681556124296119aa565b905080156124475761150c81601081111561244057fe5b6046612460565b61151d83613a22565b60006112e334613aca565b600181565b60007f45b96fe442630264581b197e84bbada861235052c5a1aadfff9ea4e40a969aa083601081111561248f57fe5b83605081111561249b57fe5b604080519283526020830191909152600082820152519081900360600190a182601081111561143657fe5b60055460408051634ef4c3e160e01b81523060048201526001600160a01b03858116602483015260448201859052915160009384938493911691634ef4c3e19160648082019260209290919082900301818787803b15801561252757600080fd5b505af115801561253b573d6000803e3d6000fd5b505050506040513d602081101561255157600080fd5b505190508015612575576125686003601f8361321a565b92506000915061291f9050565b61257d613016565b6009541461259157612568600a6022612460565b612599615314565b6125a1612926565b60408301819052602083018260038111156125b857fe5b60038111156125c357fe5b90525060009050816020015160038111156125da57fe5b14612604576125f66009602183602001516003811115611b9257fe5b93506000925061291f915050565b61260e8686613b5e565b60c082018190526040805160208101825290830151815261262f9190613bfa565b606083018190526020830182600381111561264657fe5b600381111561265157fe5b905250600090508160200151600381111561266857fe5b146126ba576040805162461bcd60e51b815260206004820181905260248201527f4d494e545f45584348414e47455f43414c43554c4154494f4e5f4641494c4544604482015290519081900360640190fd5b6126ca600d5482606001516132d3565b60808301819052602083018260038111156126e157fe5b60038111156126ec57fe5b905250600090508160200151600381111561270357fe5b1461273f5760405162461bcd60e51b815260040180806020018281038252602881526020018061563a6028913960400191505060405180910390fd5b6001600160a01b0386166000908152600e6020526040902054606082015161276791906132d3565b60a083018190526020830182600381111561277e57fe5b600381111561278957fe5b90525060009050816020015160038111156127a057fe5b146127dc5760405162461bcd60e51b815260040180806020018281038252602b8152602001806154e5602b913960400191505060405180910390fd5b6080810151600d5560a08101516001600160a01b0387166000818152600e60209081526040918290209390935560c084015160608086015183519485529484019190915282820193909352517f4c209b5fc8ad50758f13e2e1088ba56a560dff690a1c6fef26394f4c03821c4f929181900390910190a1606081015160408051918252516001600160a01b0388169130916000805160206155818339815191529181900360200190a360055460c08201516060830151604080516341c728b960e01b81523060048201526001600160a01b038b81166024830152604482019490945260648101929092525191909216916341c728b991608480830192600092919082900301818387803b1580156128f257600080fd5b505af1158015612906573d6000803e3d6000fd5b5060009250612913915050565b8160c001519350935050505b9250929050565b600d54600090819080612941575050600754600091506129d1565b600061294b612d00565b90506000612957615301565b600061296884600b54600c54613c11565b93509050600081600381111561297a57fe5b1461298f579550600094506129d19350505050565b6129998386613c4f565b9250905060008160038111156129ab57fe5b146129c0579550600094506129d19350505050565b50516000955093506129d192505050565b9091565b600554604080516317b9b84b60e31b81523060048201526001600160a01b03868116602483015285811660448301526064820185905291516000938493169163bdcdc25891608480830192602092919082900301818787803b158015612a3a57600080fd5b505af1158015612a4e573d6000803e3d6000fd5b505050506040513d6020811015612a6457600080fd5b505190508015612a8357612a7b6003604a8361321a565b915050612cdd565b836001600160a01b0316856001600160a01b03161415612aa957612a7b6002604b612460565b60006001600160a01b038781169087161415612ac85750600019612af0565b506001600160a01b038086166000908152600f60209081526040808320938a16835292905220545b600080600080612b00858961318f565b90945092506000846003811115612b1357fe5b14612b3157612b246009604b612460565b9650505050505050612cdd565b6001600160a01b038a166000908152600e6020526040902054612b54908961318f565b90945091506000846003811115612b6757fe5b14612b7857612b246009604c612460565b6001600160a01b0389166000908152600e6020526040902054612b9b90896132d3565b90945090506000846003811115612bae57fe5b14612bbf57612b246009604d612460565b6001600160a01b03808b166000908152600e6020526040808220859055918b168152208190556000198514612c17576001600160a01b03808b166000908152600f60209081526040808320938f168352929052208390555b886001600160a01b03168a6001600160a01b03166000805160206155818339815191528a6040518082815260200191505060405180910390a36005546040805163352b4a3f60e11b81523060048201526001600160a01b038d811660248301528c81166044830152606482018c905291519190921691636a56947e91608480830192600092919082900301818387803b158015612cb357600080fd5b505af1158015612cc7573d6000803e3d6000fd5b5060009250612cd4915050565b96505050505050505b949350505050565b8282028315848204841417612cf957600080fd5b0492915050565b6000806000612d0f473461318f565b90925090506000826003811115612d2257fe5b1461101c57600080fd5b60008054819060ff16612d73576040805162461bcd60e51b815260206004820152600a6024820152691c994b595b9d195c995960b21b604482015290519081900360640190fd5b6000805460ff19168155612d856119aa565b90508015612da357610bc9816010811115612d9c57fe5b6036612460565b610be0333386613cff565b600354600090819061010090046001600160a01b03163314612dd65761233a60016031612460565b612dde613016565b60095414612df25761233a600a6033612460565b82612dfb612d00565b1015612e0d5761233a600e6032612460565b600c54831115612e235761233a60026034612460565b50600c5482810390811115612e695760405162461bcd60e51b81526004018080602001828103825260248152602001806156966024913960400191505060405180910390fd5b600c819055600354612e899061010090046001600160a01b0316846140e4565b600354604080516101009092046001600160a01b0316825260208201859052818101839052517f3bad0c59cf2f06e7314077049f48a93578cd16f5ef92329f1dab1420a99c177e916060908290030190a16000611436565b6000805460ff16612f26576040805162461bcd60e51b815260206004820152600a6024820152691c994b595b9d195c995960b21b604482015290519081900360640190fd5b6000805460ff19168155612f386119aa565b90508015612f565761150c816010811115612f4f57fe5b6027612460565b61151d3360008561411a565b6001600160a01b038116600090815260106020526040812080548291829182918291612f9957506000945084935061301192505050565b612fa98160000154600a546145e1565b90945092506000846003811115612fbc57fe5b14612fd1575091935060009250613011915050565b612fdf838260010154614620565b90945091506000846003811115612ff257fe5b14613007575091935060009250613011915050565b5060009450925050505b915091565b4390565b600354600090819061010090046001600160a01b031633146130425761233a60016042612460565b61304a613016565b6009541461305e5761233a600a6041612460565b600660009054906101000a90046001600160a01b03169050826001600160a01b0316632191f92a6040518163ffffffff1660e01b815260040160206040518083038186803b1580156130af57600080fd5b505afa1580156130c3573d6000803e3d6000fd5b505050506040513d60208110156130d957600080fd5b505161312c576040805162461bcd60e51b815260206004820152601c60248201527f6d61726b6572206d6574686f642072657475726e65642066616c736500000000604482015290519081900360640190fd5b600680546001600160a01b0319166001600160a01b03858116918217909255604080519284168352602083019190915280517fedffc32e068c7c95dfd4bdfd5c4d939a084d6b11c4199eac8436ed234d72f9269281900390910190a16000611436565b6000808383116131a657506000905081830361291f565b5060039050600061291f565b60006131bc615301565b6000806131cd8660000151866145e1565b909250905060008260038111156131e057fe5b146131ff5750604080516020810190915260008152909250905061291f565b60408051602081019091529081526000969095509350505050565b60007f45b96fe442630264581b197e84bbada861235052c5a1aadfff9ea4e40a969aa084601081111561324957fe5b84605081111561325557fe5b604080519283526020830191909152818101859052519081900360600190a1836010811115612cdd57fe5b600080600061328d615301565b61329786866131b2565b909250905060008260038111156132aa57fe5b146132bb575091506000905061291f565b60006132c68261464b565b9350935050509250929050565b6000808383018481106132eb5760009250905061291f565b50600291506000905061291f565b6000806000613306615301565b61331087876131b2565b9092509050600082600381111561332357fe5b14613334575091506000905061334d565b6133466133408261464b565b866132d3565b9350935050505b935093915050565b60008054819060ff1661339c576040805162461bcd60e51b815260206004820152600a6024820152691c994b595b9d195c995960b21b604482015290519081900360640190fd5b6000805460ff191681556133ae6119aa565b905080156133d9576133cc8160108111156133c557fe5b600f612460565b9250600091506134709050565b836001600160a01b031663a6afed956040518163ffffffff1660e01b8152600401602060405180830381600087803b15801561341457600080fd5b505af1158015613428573d6000803e3d6000fd5b505050506040513d602081101561343e57600080fd5b50519050801561345e576133cc81601081111561345757fe5b6010612460565b61346a3387878761465a565b92509250505b6000805460ff191660011790559094909350915050565b6005546040805163d02f735160e01b81523060048201526001600160a01b038781166024830152868116604483015285811660648301526084820185905291516000938493169163d02f73519160a480830192602092919082900301818787803b1580156134f457600080fd5b505af1158015613508573d6000803e3d6000fd5b505050506040513d602081101561351e57600080fd5b50519050801561353557612a7b6003601b8361321a565b846001600160a01b0316846001600160a01b0316141561355b57612a7b6006601c612460565b613563615352565b6001600160a01b0385166000908152600e6020526040902054613586908561318f565b602083018190528282600381111561359a57fe5b60038111156135a557fe5b90525060009050815160038111156135b957fe5b146135de576135d56009601a83600001516003811115611b9257fe5b92505050612cdd565b6135f8846040518060200160405280601154815250614bdd565b6080820181905261360a908590614c05565b6060820152613617612926565b60c083018190528282600381111561362b57fe5b600381111561363657fe5b905250600090508151600381111561364a57fe5b1461369c576040805162461bcd60e51b815260206004820152601860248201527f65786368616e67652072617465206d617468206572726f720000000000000000604482015290519081900360640190fd5b6136bc60405180602001604052808360c001518152508260800151614c3f565b60a08201819052600c546136cf91614c5e565b60e0820152600d5460808201516136e69190614c05565b6101008201526001600160a01b0386166000908152600e6020526040902054606082015161371491906132d3565b604083018190528282600381111561372857fe5b600381111561373357fe5b905250600090508151600381111561374757fe5b14613763576135d56009601983600001516003811115611b9257fe5b60e0810151600c55610100810151600d556020808201516001600160a01b038088166000818152600e855260408082209490945583860151928b16808252908490209290925560608501518351908152925191939092600080516020615581833981519152929081900390910190a36080810151604080519182525130916001600160a01b038816916000805160206155818339815191529181900360200190a360a081015160e082015160408051308152602081019390935282810191909152517fa91e67c5ea634cd43a12c5a482724b03de01e85ca68702a53d0c2f45cb7c1dc59181900360600190a16000979650505050505050565b82810282151584158583048414171661387457600080fd5b9190910492915050565b6000805460ff166138c3576040805162461bcd60e51b815260206004820152600a6024820152691c994b595b9d195c995960b21b604482015290519081900360640190fd5b6000805460ff191681556138d56119aa565b905080156138f35761150c8160108111156138ec57fe5b6008612460565b61151d3384614c94565b6000805460ff16613942576040805162461bcd60e51b815260206004820152600a6024820152691c994b595b9d195c995960b21b604482015290519081900360640190fd5b6000805460ff191681556139546119aa565b9050801561396b5761150c816010811115612f4f57fe5b61151d3384600061411a565b60008054819060ff166139be576040805162461bcd60e51b815260206004820152600a6024820152691c994b595b9d195c995960b21b604482015290519081900360640190fd5b6000805460ff191681556139d06119aa565b905080156139fb576139ee8160108111156139e757fe5b6035612460565b925060009150613a0c9050565b613a06338686613cff565b92509250505b6000805460ff1916600117905590939092509050565b60035460009061010090046001600160a01b03163314613a485761130e60016047612460565b613a50613016565b60095414613a645761130e600a6048612460565b670de0b6b3a7640000821115613a805761130e60026049612460565b6008805490839055604080518281526020810185905281517faaa68312e2ea9d50e16af5068410ab56e1a1fd06037b1a35664812c30f821460929181900390910190a16000611436565b6000805460ff16613b0f576040805162461bcd60e51b815260206004820152600a6024820152691c994b595b9d195c995960b21b604482015290519081900360640190fd5b6000805460ff19168155613b216119aa565b90508015613b3f5761150c816010811115613b3857fe5b604e612460565b613b4883614fa2565b509150506000805460ff19166001179055919050565b6000336001600160a01b03841614613baf576040805162461bcd60e51b815260206004820152600f60248201526e0e6cadcc8cae440dad2e6dac2e8c6d608b1b604482015290519081900360640190fd5b813414613bf4576040805162461bcd60e51b815260206004820152600e60248201526d0ecc2d8eaca40dad2e6dac2e8c6d60931b604482015290519081900360640190fd5b50919050565b6000806000613c07615301565b613297868661508a565b600080600080613c2187876132d3565b90925090506000826003811115613c3457fe5b14613c45575091506000905061334d565b613346818661318f565b6000613c59615301565b600080613c6e86670de0b6b3a76400006145e1565b90925090506000826003811115613c8157fe5b14613ca05750604080516020810190915260008152909250905061291f565b600080613cad8388614620565b90925090506000826003811115613cc057fe5b14613ce25750604080516020810190915260008152909450925061291f915050565b604080516020810190915290815260009890975095505050505050565b60055460408051631200453160e11b81523060048201526001600160a01b0386811660248301528581166044830152606482018590529151600093849384939116916324008a629160848082019260209290919082900301818787803b158015613d6857600080fd5b505af1158015613d7c573d6000803e3d6000fd5b505050506040513d6020811015613d9257600080fd5b505190508015613db657613da9600360388361321a565b92506000915061334d9050565b613dbe613016565b60095414613dd257613da9600a6039612460565b613dda61539f565b6001600160a01b0386166000908152601060205260409020600101546060820152613e0486612f62565b6080830181905260208301826003811115613e1b57fe5b6003811115613e2657fe5b9052506000905081602001516003811115613e3d57fe5b14613e6757613e596009603783602001516003811115611b9257fe5b93506000925061334d915050565b600019851415613e805760808101516040820152613e88565b604081018590525b613e96878260400151613b5e565b60e082018190526080820151613eab9161318f565b60a0830181905260208301826003811115613ec257fe5b6003811115613ecd57fe5b9052506000905081602001516003811115613ee457fe5b14613f205760405162461bcd60e51b815260040180806020018281038252603a815260200180615547603a913960400191505060405180910390fd5b613f30600b548260e0015161318f565b60c0830181905260208301826003811115613f4757fe5b6003811115613f5257fe5b9052506000905081602001516003811115613f6957fe5b14613fa55760405162461bcd60e51b81526004018080602001828103825260318152602001806155a16031913960400191505060405180910390fd5b60a080820180516001600160a01b03808a16600081815260106020908152604091829020948555600a5460019095019490945560c0870151600b81905560e088015195518251948f16855294840192909252828101949094526060820192909252608081019190915290517f1a2a22cb034d26d1854bdc6666a5b91fe25efbbb5dcad3b0355478d6f5c362a1929181900390910190a160055460e0820151606083015160408051631ededc9160e01b81523060048201526001600160a01b038c811660248301528b8116604483015260648201949094526084810192909252519190921691631ededc919160a480830192600092919082900301818387803b1580156140b057600080fd5b505af11580156140c4573d6000803e3d6000fd5b50600092506140d1915050565b8160e00151935093505050935093915050565b6040516001600160a01b0383169082156108fc029083906000818181858888f19350505050158015611dc1573d6000803e3d6000fd5b6000821580614127575081155b6141625760405162461bcd60e51b81526004018080602001828103825260348152602001806156626034913960400191505060405180910390fd5b61416a615314565b614172612926565b604083018190526020830182600381111561418957fe5b600381111561419457fe5b90525060009050816020015160038111156141ab57fe5b146141cf576141c76009602b83602001516003811115611b9257fe5b915050611436565b83156142505760608101849052604080516020810182529082015181526141f69085613280565b608083018190526020830182600381111561420d57fe5b600381111561421857fe5b905250600090508160200151600381111561422f57fe5b1461424b576141c76009602983602001516003811115611b9257fe5b6142c9565b61426c8360405180602001604052808460400151815250613bfa565b606083018190526020830182600381111561428357fe5b600381111561428e57fe5b90525060009050816020015160038111156142a557fe5b146142c1576141c76009602a83602001516003811115611b9257fe5b608081018390525b60055460608201516040805163eabe7d9160e01b81523060048201526001600160a01b03898116602483015260448201939093529051600093929092169163eabe7d919160648082019260209290919082900301818787803b15801561432e57600080fd5b505af1158015614342573d6000803e3d6000fd5b505050506040513d602081101561435857600080fd5b5051905080156143785761436f600360288361321a565b92505050611436565b614380613016565b600954146143945761436f600a602c612460565b6143a4600d54836060015161318f565b60a08401819052602084018260038111156143bb57fe5b60038111156143c657fe5b90525060009050826020015160038111156143dd57fe5b146143f95761436f6009602e84602001516003811115611b9257fe5b6001600160a01b0386166000908152600e60205260409020546060830151614421919061318f565b60c084018190526020840182600381111561443857fe5b600381111561444357fe5b905250600090508260200151600381111561445a57fe5b146144765761436f6009602d84602001516003811115611b9257fe5b8160800151614483612d00565b10156144955761436f600e602f612460565b6144a38683608001516140e4565b60a0820151600d5560c08201516001600160a01b0387166000818152600e6020908152604091829020939093556060850151815190815290513093600080516020615581833981519152928290030190a36080820151606080840151604080516001600160a01b038b168152602081019490945283810191909152517fe5b754fb1abb7f01b499791d0b820ae3b6af3424ac1c59768edb53f4ec31a9299281900390910190a160055460808301516060840151604080516351dff98960e01b81523060048201526001600160a01b038b81166024830152604482019490945260648101929092525191909216916351dff98991608480830192600092919082900301818387803b1580156145b657600080fd5b505af11580156145ca573d6000803e3d6000fd5b50600092506145d7915050565b9695505050505050565b600080836145f45750600090508061291f565b8383028385828161460157fe5b04146146155750600291506000905061291f565b60009250905061291f565b60008082614634575060019050600061291f565b600083858161463f57fe5b04915091509250929050565b51670de0b6b3a7640000900490565b60055460408051632fe3f38f60e11b81523060048201526001600160a01b0384811660248301528781166044830152868116606483015260848201869052915160009384938493911691635fc7e71e9160a48082019260209290919082900301818787803b1580156146cb57600080fd5b505af11580156146df573d6000803e3d6000fd5b505050506040513d60208110156146f557600080fd5b5051905080156147195761470c600360128361321a565b925060009150614bd49050565b614721613016565b600954146147355761470c600a6016612460565b61473d613016565b846001600160a01b0316636c540baf6040518163ffffffff1660e01b815260040160206040518083038186803b15801561477657600080fd5b505afa15801561478a573d6000803e3d6000fd5b505050506040513d60208110156147a057600080fd5b5051146147b35761470c600a6011612460565b866001600160a01b0316866001600160a01b031614156147d95761470c60066017612460565b846147ea5761470c60076015612460565b6000198514156148005761470c60076014612460565b60008061480e898989613cff565b9092509050811561483e5761482f82601081111561482857fe5b6018612460565b945060009350614bd492505050565b6005546040805163c488847b60e01b81523060048201526001600160a01b038981166024830152604482018590528251600094859492169263c488847b926064808301939192829003018186803b15801561489857600080fd5b505afa1580156148ac573d6000803e3d6000fd5b505050506040513d60408110156148c257600080fd5b5080516020909101519092509050811561490d5760405162461bcd60e51b81526004018080602001828103825260338152602001806155d26033913960400191505060405180910390fd5b80886001600160a01b03166370a082318c6040518263ffffffff1660e01b815260040180826001600160a01b03166001600160a01b0316815260200191505060206040518083038186803b15801561496457600080fd5b505afa158015614978573d6000803e3d6000fd5b505050506040513d602081101561498e57600080fd5b505110156149e3576040805162461bcd60e51b815260206004820152601860248201527f4c49515549444154455f5345495a455f544f4f5f4d5543480000000000000000604482015290519081900360640190fd5b60006001600160a01b038916301415614a0957614a02308d8d85613487565b9050614a93565b6040805163b2a02ff160e01b81526001600160a01b038e811660048301528d81166024830152604482018590529151918b169163b2a02ff1916064808201926020929091908290030181600087803b158015614a6457600080fd5b505af1158015614a78573d6000803e3d6000fd5b505050506040513d6020811015614a8e57600080fd5b505190505b8015614add576040805162461bcd60e51b81526020600482015260146024820152731d1bdad95b881cd95a5e9d5c994819985a5b195960621b604482015290519081900360640190fd5b604080516001600160a01b03808f168252808e1660208301528183018790528b1660608201526080810184905290517f298637f684da70674f26509b10f07ec2fbc77a335ab1e7d6215a4b2484d8bb529181900360a00190a1600554604080516347ef3b3b60e01b81523060048201526001600160a01b038c811660248301528f811660448301528e811660648301526084820188905260a48201869052915191909216916347ef3b3b9160c480830192600092919082900301818387803b158015614ba857600080fd5b505af1158015614bbc573d6000803e3d6000fd5b5060009250614bc9915050565b975092955050505050505b94509492505050565b6000670de0b6b3a7640000614bf68484600001516150e9565b81614bfd57fe5b049392505050565b60006114368383604051806040016040528060158152602001747375627472616374696f6e20756e646572666c6f7760581b81525061512b565b6000614c49615301565b614c538484615185565b9050612cdd8161464b565b60006114368383604051806040016040528060118152602001706164646974696f6e206f766572666c6f7760781b8152506151af565b6005546040805163368f515360e21b81523060048201526001600160a01b0385811660248301526044820185905291516000938493169163da3d454c91606480830192602092919082900301818787803b158015614cf157600080fd5b505af1158015614d05573d6000803e3d6000fd5b505050506040513d6020811015614d1b57600080fd5b505190508015614d3a57614d326003600e8361321a565b915050610eee565b614d42613016565b60095414614d5557614d32600a80612460565b82614d5e612d00565b1015614d7057614d32600e6009612460565b614d786153e5565b614d8185612f62565b6020830181905282826003811115614d9557fe5b6003811115614da057fe5b9052506000905081516003811115614db457fe5b14614dd957614dd06009600783600001516003811115611b9257fe5b92505050610eee565b614de78160200151856132d3565b6040830181905282826003811115614dfb57fe5b6003811115614e0657fe5b9052506000905081516003811115614e1a57fe5b14614e3657614dd06009600c83600001516003811115611b9257fe5b614e42600b54856132d3565b6060830181905282826003811115614e5657fe5b6003811115614e6157fe5b9052506000905081516003811115614e7557fe5b14614e9157614dd06009600b83600001516003811115611b9257fe5b614e9b85856140e4565b604080820180516001600160a01b03881660008181526010602090815290859020928355600a54600190930192909255606080860151600b81905593518551928352928201899052818501929092529081019190915290517f13ed6866d4e1ee6da46f845c46d7e54120883d75c5ea9a2dacc1c4ca8984ab809181900360800190a160055460408051635c77860560e01b81523060048201526001600160a01b0388811660248301526044820188905291519190921691635c77860591606480830192600092919082900301818387803b158015614f7857600080fd5b505af1158015614f8c573d6000803e3d6000fd5b5060009250614f99915050565b95945050505050565b600080600080614fb0613016565b60095414614fcf57614fc4600a604f612460565b935091506130119050565b614fd93386613b5e565b905080600c54019150600c54821015615039576040805162461bcd60e51b815260206004820181905260248201527f61646420726573657276657320756e6578706563746564206f766572666c6f77604482015290519081900360640190fd5b600c829055604080513381526020810183905280820184905290517fa91e67c5ea634cd43a12c5a482724b03de01e85ca68702a53d0c2f45cb7c1dc59181900360600190a160009350915050915091565b6000615094615301565b6000806150a9670de0b6b3a7640000876145e1565b909250905060008260038111156150bc57fe5b146150db5750604080516020810190915260008152909250905061291f565b6132c6818660000151613c4f565b600061143683836040518060400160405280601781526020017f6d756c7469706c69636174696f6e206f766572666c6f7700000000000000000081525061520d565b6000818484111561517d5760405162461bcd60e51b8152602060048201818152835160248401528351909283926044909101919085019080838360008315610db7578181015183820152602001610d9f565b505050900390565b61518d615301565b60405180602001604052806151a68560000151856150e9565b90529392505050565b600083830182858210156152045760405162461bcd60e51b8152602060048201818152835160248401528351909283926044909101919085019080838360008315610db7578181015183820152602001610d9f565b50949350505050565b600083158061521a575082155b1561522757506000611436565b8383028385828161523457fe5b041483906152045760405162461bcd60e51b8152602060048201818152835160248401528351909283926044909101919085019080838360008315610db7578181015183820152602001610d9f565b828054600181600116156101000203166002900490600052602060002090601f016020900481019282601f106152c457805160ff19168380011785556152f1565b828001600101855582156152f1579182015b828111156152f15782518255916020019190600101906152d6565b506152fd92915061540e565b5090565b6040518060200160405280600081525090565b6040805160e0810190915280600081526020016000815260200160008152602001600081526020016000815260200160008152602001600081525090565b604080516101208101909152806000815260200160008152602001600081526020016000815260200160008152602001600081526020016000815260200160008152602001600081525090565b6040805161010081019091528060008152602001600081526020016000815260200160008152602001600081526020016000815260200160008152602001600081525090565b604080516080810190915280600081526020016000815260200160008152602001600081525090565b61102091905b808211156152fd576000815560010161541456fe50726f746f636f6c207365697a65207368617265206d757374206265203c20313030256f6e6c792061646d696e206d617920696e697469616c697a6520746865206d61726b65746d61726b6574206d6179206f6e6c7920626520696e697469616c697a6564206f6e6365696e697469616c2065786368616e67652072617465206d7573742062652067726561746572207468616e207a65726f2e73657474696e6720696e7465726573742072617465206d6f64656c206661696c65644d494e545f4e45575f4143434f554e545f42414c414e43455f43414c43554c4154494f4e5f4641494c4544626f72726f7742616c616e636553746f7265643a20626f72726f7742616c616e636553746f726564496e7465726e616c206661696c656452455041595f424f52524f575f4e45575f4143434f554e545f424f52524f575f42414c414e43455f43414c43554c4154494f4e5f4641494c4544ddf252ad1be2c89b69c2b068fc378daa952ba7f163c4a11628f55a4df523b3ef52455041595f424f52524f575f4e45575f544f54414c5f42414c414e43455f43414c43554c4154494f4e5f4641494c45444c49515549444154455f434f4d5054524f4c4c45525f43414c43554c4154455f414d4f554e545f5345495a455f4641494c454465786368616e67655261746553746f7265643a2065786368616e67655261746553746f726564496e7465726e616c206661696c65644d494e545f4e45575f544f54414c5f535550504c595f43414c43554c4154494f4e5f4641494c45446f6e65206f662072656465656d546f6b656e73496e206f722072656465656d416d6f756e74496e206d757374206265207a65726f72656475636520726573657276657320756e657870656374656420756e646572666c6f77a265627a7a72315820843af0abead9286fd7764d81869ded9ee8548cab59d41c73ea028d2e2b4a21d864736f6c634300051000326f6e6c792061646d696e206d617920696e697469616c697a6520746865206d61726b65746d61726b6574206d6179206f6e6c7920626520696e697469616c697a6564206f6e6365696e697469616c2065786368616e67652072617465206d7573742062652067726561746572207468616e207a65726f2e73657474696e6720696e7465726573742072617465206d6f64656c206661696c6564",
  "devdoc": {
    "author": "Compound",
    "methods": {
      "_acceptAdmin()": {
        "details": "Admin function for pending admin to accept role and update admin",
        "return": "uint 0=success, otherwise a failure (see ErrorReporter.sol for details)"
      },
      "_reduceReserves(uint256)": {
        "params": {
          "reduceAmount": "Amount of reduction to reserves"
        },
        "return": "uint 0=success, otherwise a failure (see ErrorReporter.sol for details)"
      },
      "_setComptroller(address)": {
        "details": "Admin function to set a new comptroller",
        "return": "uint 0=success, otherwise a failure (see ErrorReporter.sol for details)"
      },
      "_setInterestRateModel(address)": {
        "details": "Admin function to accrue interest and update the interest rate model",
        "params": {
          "newInterestRateModel": "the new interest rate model to use"
        },
        "return": "uint 0=success, otherwise a failure (see ErrorReporter.sol for details)"
      },
      "_setPendingAdmin(address)": {
        "details": "Admin function to begin change of admin. The newPendingAdmin must call `_acceptAdmin` to finalize the transfer.",
        "params": {
          "newPendingAdmin": "New pending admin."
        },
        "return": "uint 0=success, otherwise a failure (see ErrorReporter.sol for details)"
      },
      "_setProtocolSeizeShare(uint256)": {
        "details": "Admin function to set a new protocol seize share",
        "return": "uint 0=success, otherwise revert"
      },
      "_setReserveFactor(uint256)": {
        "details": "Admin function to accrue interest and set a new reserve factor",
        "return": "uint 0=success, otherwise a failure (see ErrorReporter.sol for details)"
      },
      "accrueInterest()": {
        "details": "This calculates interest accrued from the last checkpointed block  up to the current block and writes new checkpoint to storage."
      },
      "allowance(address,address)": {
        "params": {
          "owner": "The address of the account which owns the tokens to be spent",
          "spender": "The address of the account which may transfer tokens"
        },
        "return": "The number of tokens allowed to be spent (-1 means infinite)"
      },
      "approve(address,uint256)": {
        "details": "This will overwrite the approval amount for `spender` and is subject to issues noted [here](https://eips.ethereum.org/EIPS/eip-20#approve)",
        "params": {
          "amount": "The number of tokens that are approved (-1 means infinite)",
          "spender": "The address of the account which may transfer tokens"
        },
        "return": "Whether or not the approval succeeded"
      },
      "balanceOf(address)": {
        "params": {
          "owner": "The address of the account to query"
        },
        "return": "The number of tokens owned by `owner`"
      },
      "balanceOfUnderlying(address)": {
        "author": "Modified from transmissions11 (https://github.com/transmissions11/libcompound/blob/main/src/LibCompound.sol)",
        "params": {
          "owner": "The address of the account to query"
        },
        "return": "The amount of underlying owned by `owner`"
      },
      "borrow(uint256)": {
        "params": {
          "borrowAmount": "The amount of the underlying asset to borrow"
        },
        "return": "uint 0=success, otherwise a failure (see ErrorReporter.sol for details)"
      },
      "borrowBalanceCurrent(address)": {
        "params": {
          "account": "The address whose balance should be calculated after updating borrowIndex"
        },
        "return": "The calculated balance"
      },
      "borrowBalanceStored(address)": {
        "params": {
          "account": "The address whose balance should be calculated"
        },
        "return": "The calculated balance"
      },
      "borrowRatePerBlock()": {
        "return": "The borrow interest rate per block, scaled by 1e18"
      },
      "constructor": {
        "params": {
          "comptroller_": "The address of the Comptroller",
          "decimals_": "ERC-20 decimal precision of this token",
          "initialExchangeRateMantissa_": "The initial exchange rate, scaled by 1e18",
          "interestRateModel_": "The address of the interest rate model",
          "name_": "ERC-20 name of this token",
          "symbol_": "ERC-20 symbol of this token"
        }
      },
      "exchangeRateCurrent()": {
        "author": "Modified from transmissions11 (https://github.com/transmissions11/libcompound/blob/main/src/LibCompound.sol)",
        "return": "Calculated exchange rate scaled by 1e18"
      },
      "exchangeRateStored()": {
        "details": "This function does not accrue interest before calculating the exchange rate",
        "return": "Calculated exchange rate scaled by 1e18"
      },
      "getAccountSnapshot(address)": {
        "details": "This is used by comptroller to more efficiently perform liquidity checks.",
        "params": {
          "account": "Address of the account to snapshot"
        },
        "return": "(possible error, token balance, borrow balance, exchange rate mantissa)"
      },
      "getCash()": {
        "return": "The quantity of underlying asset owned by this contract"
      },
      "initialize(address,address,uint256,string,string,uint8)": {
        "params": {
          "comptroller_": "The address of the Comptroller",
          "decimals_": "EIP-20 decimal precision of this token",
          "initialExchangeRateMantissa_": "The initial exchange rate, scaled by 1e18",
          "interestRateModel_": "The address of the interest rate model",
          "name_": "EIP-20 name of this token",
          "symbol_": "EIP-20 symbol of this token"
        }
      },
      "liquidateBorrow(address,address)": {
        "details": "Reverts upon any failure",
        "params": {
          "borrower": "The borrower of this cToken to be liquidated",
          "cTokenCollateral": "The market in which to seize collateral from the borrower"
        }
      },
      "mint(bool)": {
        "details": "Reverts upon any failure"
      },
      "redeem(uint256)": {
        "details": "Accrues interest whether or not the operation succeeds, unless reverted",
        "params": {
          "redeemTokens": "The number of cTokens to redeem into underlying"
        },
        "return": "uint 0=success, otherwise a failure (see ErrorReporter.sol for details)"
      },
      "redeemUnderlying(uint256)": {
        "details": "Accrues interest whether or not the operation succeeds, unless reverted",
        "params": {
          "redeemAmount": "The amount of underlying to redeem"
        },
        "return": "uint 0=success, otherwise a failure (see ErrorReporter.sol for details)"
      },
      "repayBorrow()": {
        "details": "Reverts upon any failure"
      },
      "repayBorrowBehalf(address)": {
        "details": "Reverts upon any failure",
        "params": {
          "borrower": "the account with the debt being payed off"
        }
      },
      "seize(address,address,uint256)": {
        "details": "Will fail unless called by another cToken during the process of liquidation. Its absolutely critical to use msg.sender as the borrowed cToken and not a parameter.",
        "params": {
          "borrower": "The account having collateral seized",
          "liquidator": "The account receiving seized collateral",
          "seizeTokens": "The number of cTokens to seize"
        },
        "return": "uint 0=success, otherwise a failure (see ErrorReporter.sol for details)"
      },
      "supplyRatePerBlock()": {
        "return": "The supply interest rate per block, scaled by 1e18"
      },
      "totalBorrowsCurrent()": {
        "return": "The total borrows with interest"
      },
      "transfer(address,uint256)": {
        "params": {
          "amount": "The number of tokens to transfer",
          "dst": "The address of the destination account"
        },
        "return": "Whether or not the transfer succeeded"
      },
      "transferFrom(address,address,uint256)": {
        "params": {
          "amount": "The number of tokens to transfer",
          "dst": "The address of the destination account",
          "src": "The address of the source account"
        },
        "return": "Whether or not the transfer succeeded"
      }
    },
    "title": "Compound's CEther Contract"
  },
  "userdoc": {
    "methods": {
      "_acceptAdmin()": {
        "notice": "Accepts transfer of admin rights. msg.sender must be pendingAdmin"
      },
      "_reduceReserves(uint256)": {
        "notice": "Accrues interest and reduces reserves by transferring to admin"
      },
      "_setComptroller(address)": {
        "notice": "Sets a new comptroller for the market"
      },
      "_setInterestRateModel(address)": {
        "notice": "accrues interest and updates the interest rate model using _setInterestRateModelFresh"
      },
      "_setPendingAdmin(address)": {
        "notice": "Begins transfer of admin rights. The newPendingAdmin must call `_acceptAdmin` to finalize the transfer."
      },
      "_setProtocolSeizeShare(uint256)": {
        "notice": "Sets a new protocol seize share (when liquidating) for the protocol"
      },
      "_setReserveFactor(uint256)": {
        "notice": "accrues interest and sets a new reserve factor for the protocol using _setReserveFactorFresh"
      },
      "accrueInterest()": {
        "notice": "Applies accrued interest to total borrows and reserves"
      },
      "allowance(address,address)": {
        "notice": "Get the current allowance from `owner` for `spender`"
      },
      "approve(address,uint256)": {
        "notice": "Approve `spender` to transfer up to `amount` from `src`"
      },
      "balanceOf(address)": {
        "notice": "Get the token balance of the `owner`"
      },
      "balanceOfUnderlying(address)": {
        "notice": "Get the underlying balance of the `owner`"
      },
      "borrow(uint256)": {
        "notice": "Sender borrows assets from the protocol to their own address"
      },
      "borrowBalanceCurrent(address)": {
        "notice": "Accrue interest to updated borrowIndex and then calculate account's borrow balance using the updated borrowIndex"
      },
      "borrowBalanceStored(address)": {
        "notice": "Return the borrow balance of account based on stored data"
      },
      "borrowRatePerBlock()": {
        "notice": "Returns the current per-block borrow interest rate for this cToken"
      },
      "constructor": "Construct a new CEther money market",
      "exchangeRateStored()": {
        "notice": "Calculates the exchange rate from the underlying to the CToken"
      },
      "getAccountSnapshot(address)": {
        "notice": "Get a snapshot of the account's balances, and the cached exchange rate"
      },
      "getCash()": {
        "notice": "Get cash balance of this cToken in the underlying asset"
      },
      "initialize(address,address,uint256,string,string,uint8)": {
        "notice": "Initialize the money market"
      },
      "liquidateBorrow(address,address)": {
        "notice": "The sender liquidates the borrowers collateral. The collateral seized is transferred to the liquidator."
      },
      "mint(bool)": {
        "notice": "Sender supplies assets into the market and receives cTokens in exchange"
      },
      "redeem(uint256)": {
        "notice": "Sender redeems cTokens in exchange for the underlying asset"
      },
      "redeemUnderlying(uint256)": {
        "notice": "Sender redeems cTokens in exchange for a specified amount of underlying asset"
      },
      "repayBorrow()": {
        "notice": "Sender repays their own borrow"
      },
      "repayBorrowBehalf(address)": {
        "notice": "Sender repays a borrow belonging to borrower"
      },
      "seize(address,address,uint256)": {
        "notice": "Transfers collateral tokens (this market) to the liquidator."
      },
      "supplyRatePerBlock()": {
        "notice": "Returns the current per-block supply interest rate for this cToken"
      },
      "totalBorrowsCurrent()": {
        "notice": "Returns the current total borrows plus accrued interest"
      },
      "transfer(address,uint256)": {
        "notice": "Transfer `amount` tokens from `msg.sender` to `dst`"
      },
      "transferFrom(address,address,uint256)": {
        "notice": "Transfer `amount` tokens from `src` to `dst`"
      }
    },
    "notice": "CToken which wraps Ether"
  },
  "storageLayout": {
    "storage": [
      {
        "astId": 5807,
        "contract": "contracts/markets/CEther.sol:CEther",
        "label": "_notEntered",
        "offset": 0,
        "slot": "0",
        "type": "t_bool"
      },
      {
        "astId": 5809,
        "contract": "contracts/markets/CEther.sol:CEther",
        "label": "name",
        "offset": 0,
        "slot": "1",
        "type": "t_string_storage"
      },
      {
        "astId": 5811,
        "contract": "contracts/markets/CEther.sol:CEther",
        "label": "symbol",
        "offset": 0,
        "slot": "2",
        "type": "t_string_storage"
      },
      {
        "astId": 5813,
        "contract": "contracts/markets/CEther.sol:CEther",
        "label": "decimals",
        "offset": 0,
        "slot": "3",
        "type": "t_uint8"
      },
      {
        "astId": 5821,
        "contract": "contracts/markets/CEther.sol:CEther",
        "label": "admin",
        "offset": 1,
        "slot": "3",
        "type": "t_address_payable"
      },
      {
        "astId": 5823,
        "contract": "contracts/markets/CEther.sol:CEther",
        "label": "pendingAdmin",
        "offset": 0,
        "slot": "4",
        "type": "t_address_payable"
      },
      {
        "astId": 5825,
        "contract": "contracts/markets/CEther.sol:CEther",
        "label": "comptroller",
        "offset": 0,
        "slot": "5",
        "type": "t_contract(ComptrollerInterface)6475"
      },
      {
        "astId": 5827,
        "contract": "contracts/markets/CEther.sol:CEther",
        "label": "interestRateModel",
        "offset": 0,
        "slot": "6",
        "type": "t_contract(InterestRateModel)5805"
      },
      {
        "astId": 5829,
        "contract": "contracts/markets/CEther.sol:CEther",
        "label": "initialExchangeRateMantissa",
        "offset": 0,
        "slot": "7",
        "type": "t_uint256"
      },
      {
        "astId": 5831,
        "contract": "contracts/markets/CEther.sol:CEther",
        "label": "reserveFactorMantissa",
        "offset": 0,
        "slot": "8",
        "type": "t_uint256"
      },
      {
        "astId": 5833,
        "contract": "contracts/markets/CEther.sol:CEther",
        "label": "accrualBlockNumber",
        "offset": 0,
        "slot": "9",
        "type": "t_uint256"
      },
      {
        "astId": 5835,
        "contract": "contracts/markets/CEther.sol:CEther",
        "label": "borrowIndex",
        "offset": 0,
        "slot": "10",
        "type": "t_uint256"
      },
      {
        "astId": 5837,
        "contract": "contracts/markets/CEther.sol:CEther",
        "label": "totalBorrows",
        "offset": 0,
        "slot": "11",
        "type": "t_uint256"
      },
      {
        "astId": 5839,
        "contract": "contracts/markets/CEther.sol:CEther",
        "label": "totalReserves",
        "offset": 0,
        "slot": "12",
        "type": "t_uint256"
      },
      {
        "astId": 5841,
        "contract": "contracts/markets/CEther.sol:CEther",
        "label": "totalSupply",
        "offset": 0,
        "slot": "13",
        "type": "t_uint256"
      },
      {
        "astId": 5845,
        "contract": "contracts/markets/CEther.sol:CEther",
        "label": "accountTokens",
        "offset": 0,
        "slot": "14",
        "type": "t_mapping(t_address,t_uint256)"
      },
      {
        "astId": 5851,
        "contract": "contracts/markets/CEther.sol:CEther",
        "label": "transferAllowances",
        "offset": 0,
        "slot": "15",
        "type": "t_mapping(t_address,t_mapping(t_address,t_uint256))"
      },
      {
        "astId": 5860,
        "contract": "contracts/markets/CEther.sol:CEther",
        "label": "accountBorrows",
        "offset": 0,
        "slot": "16",
        "type": "t_mapping(t_address,t_struct(BorrowSnapshot)5856_storage)"
      },
      {
        "astId": 5863,
        "contract": "contracts/markets/CEther.sol:CEther",
        "label": "protocolSeizeShareMantissa",
        "offset": 0,
        "slot": "17",
        "type": "t_uint256"
      }
    ],
    "types": {
      "t_address": {
        "encoding": "inplace",
        "label": "address",
        "numberOfBytes": "20"
      },
      "t_address_payable": {
        "encoding": "inplace",
        "label": "address payable",
        "numberOfBytes": "20"
      },
      "t_bool": {
        "encoding": "inplace",
        "label": "bool",
        "numberOfBytes": "1"
      },
      "t_contract(ComptrollerInterface)6475": {
        "encoding": "inplace",
        "label": "contract ComptrollerInterface",
        "numberOfBytes": "20"
      },
      "t_contract(InterestRateModel)5805": {
        "encoding": "inplace",
        "label": "contract InterestRateModel",
        "numberOfBytes": "20"
      },
      "t_mapping(t_address,t_mapping(t_address,t_uint256))": {
        "encoding": "mapping",
        "key": "t_address",
        "label": "mapping(address => mapping(address => uint256))",
        "numberOfBytes": "32",
        "value": "t_mapping(t_address,t_uint256)"
      },
      "t_mapping(t_address,t_struct(BorrowSnapshot)5856_storage)": {
        "encoding": "mapping",
        "key": "t_address",
        "label": "mapping(address => struct CTokenStorage.BorrowSnapshot)",
        "numberOfBytes": "32",
        "value": "t_struct(BorrowSnapshot)5856_storage"
      },
      "t_mapping(t_address,t_uint256)": {
        "encoding": "mapping",
        "key": "t_address",
        "label": "mapping(address => uint256)",
        "numberOfBytes": "32",
        "value": "t_uint256"
      },
      "t_string_storage": {
        "encoding": "bytes",
        "label": "string",
        "numberOfBytes": "32"
      },
      "t_struct(BorrowSnapshot)5856_storage": {
        "encoding": "inplace",
        "label": "struct CTokenStorage.BorrowSnapshot",
        "members": [
          {
            "astId": 5853,
            "contract": "contracts/markets/CEther.sol:CEther",
            "label": "principal",
            "offset": 0,
            "slot": "0",
            "type": "t_uint256"
          },
          {
            "astId": 5855,
            "contract": "contracts/markets/CEther.sol:CEther",
            "label": "interestIndex",
            "offset": 0,
            "slot": "1",
            "type": "t_uint256"
          }
        ],
        "numberOfBytes": "64"
      },
      "t_uint256": {
        "encoding": "inplace",
        "label": "uint256",
        "numberOfBytes": "32"
      },
      "t_uint8": {
        "encoding": "inplace",
        "label": "uint8",
        "numberOfBytes": "1"
      }
    }
  }
}