{
  "address": "0xB814C49eBC3b407a764d8F449565Ce3F03907B91",
  "abi": [
    {
      "inputs": [],
      "payable": false,
      "stateMutability": "nonpayable",
      "type": "constructor"
    },
    {
      "anonymous": false,
      "inputs": [
        {
          "indexed": false,
          "internalType": "string",
          "name": "action",
          "type": "string"
        },
        {
          "indexed": false,
          "internalType": "bool",
          "name": "pauseState",
          "type": "bool"
        }
      ],
      "name": "ActionPaused",
      "type": "event"
    },
    {
      "anonymous": false,
      "inputs": [
        {
          "indexed": false,
          "internalType": "contract CToken",
          "name": "cToken",
          "type": "address"
        },
        {
          "indexed": false,
          "internalType": "string",
          "name": "action",
          "type": "string"
        },
        {
          "indexed": false,
          "internalType": "bool",
          "name": "pauseState",
          "type": "bool"
        }
      ],
      "name": "ActionPaused",
      "type": "event"
    },
    {
      "anonymous": false,
      "inputs": [
        {
          "indexed": false,
          "internalType": "address",
          "name": "recipient",
          "type": "address"
        },
        {
          "indexed": false,
          "internalType": "uint256",
          "name": "amount",
          "type": "uint256"
        }
      ],
      "name": "CompGranted",
      "type": "event"
    },
    {
      "anonymous": false,
      "inputs": [
        {
          "indexed": true,
          "internalType": "contract CToken",
          "name": "cToken",
          "type": "address"
        },
        {
          "indexed": false,
          "internalType": "uint256",
          "name": "newSpeed",
          "type": "uint256"
        }
      ],
      "name": "CompSpeedUpdated",
      "type": "event"
    },
    {
      "anonymous": false,
      "inputs": [
        {
          "indexed": true,
          "internalType": "address",
          "name": "contributor",
          "type": "address"
        },
        {
          "indexed": false,
          "internalType": "uint256",
          "name": "newSpeed",
          "type": "uint256"
        }
      ],
      "name": "ContributorCompSpeedUpdated",
      "type": "event"
    },
    {
      "anonymous": false,
      "inputs": [
        {
          "indexed": true,
          "internalType": "contract CToken",
          "name": "cToken",
          "type": "address"
        },
        {
          "indexed": true,
          "internalType": "address",
          "name": "borrower",
          "type": "address"
        },
        {
          "indexed": false,
          "internalType": "uint256",
          "name": "compDelta",
          "type": "uint256"
        },
        {
          "indexed": false,
          "internalType": "uint256",
          "name": "compBorrowIndex",
          "type": "uint256"
        }
      ],
      "name": "DistributedBorrowerComp",
      "type": "event"
    },
    {
      "anonymous": false,
      "inputs": [
        {
          "indexed": true,
          "internalType": "contract CToken",
          "name": "cToken",
          "type": "address"
        },
        {
          "indexed": true,
          "internalType": "address",
          "name": "supplier",
          "type": "address"
        },
        {
          "indexed": false,
          "internalType": "uint256",
          "name": "compDelta",
          "type": "uint256"
        },
        {
          "indexed": false,
          "internalType": "uint256",
          "name": "compSupplyIndex",
          "type": "uint256"
        }
      ],
      "name": "DistributedSupplierComp",
      "type": "event"
    },
    {
      "anonymous": false,
      "inputs": [
        {
          "indexed": false,
          "internalType": "uint256",
          "name": "error",
          "type": "uint256"
        },
        {
          "indexed": false,
          "internalType": "uint256",
          "name": "info",
          "type": "uint256"
        },
        {
          "indexed": false,
          "internalType": "uint256",
          "name": "detail",
          "type": "uint256"
        }
      ],
      "name": "Failure",
      "type": "event"
    },
    {
      "anonymous": false,
      "inputs": [
        {
          "indexed": false,
          "internalType": "contract CToken",
          "name": "cToken",
          "type": "address"
        },
        {
          "indexed": false,
          "internalType": "address",
          "name": "account",
          "type": "address"
        }
      ],
      "name": "MarketEntered",
      "type": "event"
    },
    {
      "anonymous": false,
      "inputs": [
        {
          "indexed": false,
          "internalType": "contract CToken",
          "name": "cToken",
          "type": "address"
        },
        {
          "indexed": false,
          "internalType": "address",
          "name": "account",
          "type": "address"
        }
      ],
      "name": "MarketExited",
      "type": "event"
    },
    {
      "anonymous": false,
      "inputs": [
        {
          "indexed": false,
          "internalType": "contract CToken",
          "name": "cToken",
          "type": "address"
        }
      ],
      "name": "MarketListed",
      "type": "event"
    },
    {
      "anonymous": false,
      "inputs": [
        {
          "indexed": true,
          "internalType": "contract CToken",
          "name": "cToken",
          "type": "address"
        },
        {
          "indexed": false,
          "internalType": "uint256",
          "name": "newBorrowCap",
          "type": "uint256"
        }
      ],
      "name": "NewBorrowCap",
      "type": "event"
    },
    {
      "anonymous": false,
      "inputs": [
        {
          "indexed": false,
          "internalType": "address",
          "name": "oldBorrowCapGuardian",
          "type": "address"
        },
        {
          "indexed": false,
          "internalType": "address",
          "name": "newBorrowCapGuardian",
          "type": "address"
        }
      ],
      "name": "NewBorrowCapGuardian",
      "type": "event"
    },
    {
      "anonymous": false,
      "inputs": [
        {
          "indexed": false,
          "internalType": "uint256",
          "name": "oldCloseFactorMantissa",
          "type": "uint256"
        },
        {
          "indexed": false,
          "internalType": "uint256",
          "name": "newCloseFactorMantissa",
          "type": "uint256"
        }
      ],
      "name": "NewCloseFactor",
      "type": "event"
    },
    {
      "anonymous": false,
      "inputs": [
        {
          "indexed": false,
          "internalType": "contract CToken",
          "name": "cToken",
          "type": "address"
        },
        {
          "indexed": false,
          "internalType": "uint256",
          "name": "oldCollateralFactorMantissa",
          "type": "uint256"
        },
        {
          "indexed": false,
          "internalType": "uint256",
          "name": "newCollateralFactorMantissa",
          "type": "uint256"
        }
      ],
      "name": "NewCollateralFactor",
      "type": "event"
    },
    {
      "anonymous": false,
      "inputs": [
        {
          "indexed": false,
          "internalType": "contract CToken",
          "name": "cToken",
          "type": "address"
        },
        {
          "indexed": false,
          "internalType": "uint256",
          "name": "oldimfFactorMantissa",
          "type": "uint256"
        },
        {
          "indexed": false,
          "internalType": "uint256",
          "name": "newimfFactorMantissa",
          "type": "uint256"
        }
      ],
      "name": "NewImfFactor",
      "type": "event"
    },
    {
      "anonymous": false,
      "inputs": [
        {
          "indexed": false,
          "internalType": "uint256",
          "name": "oldLiquidationIncentiveMantissa",
          "type": "uint256"
        },
        {
          "indexed": false,
          "internalType": "uint256",
          "name": "newLiquidationIncentiveMantissa",
          "type": "uint256"
        }
      ],
      "name": "NewLiquidationIncentive",
      "type": "event"
    },
    {
      "anonymous": false,
      "inputs": [
        {
          "indexed": true,
          "internalType": "contract CToken",
          "name": "cToken",
          "type": "address"
        },
        {
          "indexed": false,
          "internalType": "bool",
          "name": "newRestriction",
          "type": "bool"
        }
      ],
      "name": "NewMarketRestriction",
      "type": "event"
    },
    {
      "anonymous": false,
      "inputs": [
        {
          "indexed": false,
          "internalType": "address",
          "name": "oldPauseGuardian",
          "type": "address"
        },
        {
          "indexed": false,
          "internalType": "address",
          "name": "newPauseGuardian",
          "type": "address"
        }
      ],
      "name": "NewPauseGuardian",
      "type": "event"
    },
    {
      "anonymous": false,
      "inputs": [
        {
          "indexed": false,
          "internalType": "contract PriceOracle",
          "name": "oldPriceOracle",
          "type": "address"
        },
        {
          "indexed": false,
          "internalType": "contract PriceOracle",
          "name": "newPriceOracle",
          "type": "address"
        }
      ],
      "name": "NewPriceOracle",
      "type": "event"
    },
    {
      "anonymous": false,
      "inputs": [
        {
          "indexed": true,
          "internalType": "address",
          "name": "account",
          "type": "address"
        },
        {
          "indexed": false,
          "internalType": "bool",
          "name": "whitelisted",
          "type": "bool"
        }
      ],
      "name": "NewWhitelistStatus",
      "type": "event"
    },
    {
      "constant": false,
      "inputs": [
        {
          "internalType": "address[]",
          "name": "account",
          "type": "address[]"
        },
        {
          "internalType": "bool[]",
          "name": "whitelisted",
          "type": "bool[]"
        }
      ],
      "name": "_addToWhitelist",
      "outputs": [],
      "payable": false,
      "stateMutability": "nonpayable",
      "type": "function"
    },
    {
      "constant": false,
      "inputs": [
        {
          "internalType": "contract Unitroller",
          "name": "unitroller",
          "type": "address"
        }
      ],
      "name": "_become",
      "outputs": [],
      "payable": false,
      "stateMutability": "nonpayable",
      "type": "function"
    },
    {
      "constant": true,
      "inputs": [],
      "name": "_borrowGuardianPaused",
      "outputs": [
        {
          "internalType": "bool",
          "name": "",
          "type": "bool"
        }
      ],
      "payable": false,
      "stateMutability": "view",
      "type": "function"
    },
    {
      "constant": false,
      "inputs": [
        {
          "internalType": "address",
          "name": "recipient",
          "type": "address"
        },
        {
          "internalType": "uint256",
          "name": "amount",
          "type": "uint256"
        }
      ],
      "name": "_grantComp",
      "outputs": [],
      "payable": false,
      "stateMutability": "nonpayable",
      "type": "function"
    },
    {
      "constant": true,
      "inputs": [],
      "name": "_mintGuardianPaused",
      "outputs": [
        {
          "internalType": "bool",
          "name": "",
          "type": "bool"
        }
      ],
      "payable": false,
      "stateMutability": "view",
      "type": "function"
    },
    {
      "constant": false,
      "inputs": [
        {
          "internalType": "address",
          "name": "newBorrowCapGuardian",
          "type": "address"
        }
      ],
      "name": "_setBorrowCapGuardian",
      "outputs": [],
      "payable": false,
      "stateMutability": "nonpayable",
      "type": "function"
    },
    {
      "constant": false,
      "inputs": [
        {
          "internalType": "contract CToken",
          "name": "cToken",
          "type": "address"
        },
        {
          "internalType": "bool",
          "name": "state",
          "type": "bool"
        }
      ],
      "name": "_setBorrowPaused",
      "outputs": [
        {
          "internalType": "bool",
          "name": "",
          "type": "bool"
        }
      ],
      "payable": false,
      "stateMutability": "nonpayable",
      "type": "function"
    },
    {
      "constant": false,
      "inputs": [
        {
          "internalType": "contract CToken[]",
          "name": "cTokens",
          "type": "address[]"
        },
        {
          "internalType": "bool[]",
          "name": "borrowRestrictions",
          "type": "bool[]"
        }
      ],
      "name": "_setBorrowRestriction",
      "outputs": [],
      "payable": false,
      "stateMutability": "nonpayable",
      "type": "function"
    },
    {
      "constant": false,
      "inputs": [
        {
          "internalType": "uint256",
          "name": "newCloseFactorMantissa",
          "type": "uint256"
        }
      ],
      "name": "_setCloseFactor",
      "outputs": [
        {
          "internalType": "uint256",
          "name": "",
          "type": "uint256"
        }
      ],
      "payable": false,
      "stateMutability": "nonpayable",
      "type": "function"
    },
    {
      "constant": false,
      "inputs": [
        {
          "internalType": "contract CToken",
          "name": "cToken",
          "type": "address"
        },
        {
          "internalType": "uint256",
          "name": "newCollateralFactorMantissa",
          "type": "uint256"
        }
      ],
      "name": "_setCollateralFactor",
      "outputs": [
        {
          "internalType": "uint256",
          "name": "",
          "type": "uint256"
        }
      ],
      "payable": false,
      "stateMutability": "nonpayable",
      "type": "function"
    },
    {
      "constant": false,
      "inputs": [
        {
          "internalType": "contract CToken",
          "name": "cToken",
          "type": "address"
        },
        {
          "internalType": "uint256",
          "name": "compSpeed",
          "type": "uint256"
        }
      ],
      "name": "_setCompSpeed",
      "outputs": [],
      "payable": false,
      "stateMutability": "nonpayable",
      "type": "function"
    },
    {
      "constant": false,
      "inputs": [
        {
          "internalType": "address",
          "name": "contributor",
          "type": "address"
        },
        {
          "internalType": "uint256",
          "name": "compSpeed",
          "type": "uint256"
        }
      ],
      "name": "_setContributorCompSpeed",
      "outputs": [],
      "payable": false,
      "stateMutability": "nonpayable",
      "type": "function"
    },
    {
      "constant": false,
      "inputs": [
        {
          "internalType": "contract CToken",
          "name": "cToken",
          "type": "address"
        },
        {
          "internalType": "uint256",
          "name": "newimfFactorMantissa",
          "type": "uint256"
        }
      ],
      "name": "_setIMFFactor",
      "outputs": [
        {
          "internalType": "uint256",
          "name": "",
          "type": "uint256"
        }
      ],
      "payable": false,
      "stateMutability": "nonpayable",
      "type": "function"
    },
    {
      "constant": false,
      "inputs": [
        {
          "internalType": "uint256",
          "name": "newLiquidationIncentiveMantissa",
          "type": "uint256"
        }
      ],
      "name": "_setLiquidationIncentive",
      "outputs": [
        {
          "internalType": "uint256",
          "name": "",
          "type": "uint256"
        }
      ],
      "payable": false,
      "stateMutability": "nonpayable",
      "type": "function"
    },
    {
      "constant": false,
      "inputs": [
        {
          "internalType": "contract CToken[]",
          "name": "cTokens",
          "type": "address[]"
        },
        {
          "internalType": "uint256[]",
          "name": "newBorrowCaps",
          "type": "uint256[]"
        }
      ],
      "name": "_setMarketBorrowCaps",
      "outputs": [],
      "payable": false,
      "stateMutability": "nonpayable",
      "type": "function"
    },
    {
      "constant": false,
      "inputs": [
        {
          "internalType": "contract CToken",
          "name": "cToken",
          "type": "address"
        },
        {
          "internalType": "bool",
          "name": "state",
          "type": "bool"
        }
      ],
      "name": "_setMintPaused",
      "outputs": [
        {
          "internalType": "bool",
          "name": "",
          "type": "bool"
        }
      ],
      "payable": false,
      "stateMutability": "nonpayable",
      "type": "function"
    },
    {
      "constant": false,
      "inputs": [
        {
          "internalType": "address",
          "name": "newPauseGuardian",
          "type": "address"
        }
      ],
      "name": "_setPauseGuardian",
      "outputs": [
        {
          "internalType": "uint256",
          "name": "",
          "type": "uint256"
        }
      ],
      "payable": false,
      "stateMutability": "nonpayable",
      "type": "function"
    },
    {
      "constant": false,
      "inputs": [
        {
          "internalType": "contract PriceOracle",
          "name": "newOracle",
          "type": "address"
        }
      ],
      "name": "_setPriceOracle",
      "outputs": [
        {
          "internalType": "uint256",
          "name": "",
          "type": "uint256"
        }
      ],
      "payable": false,
      "stateMutability": "nonpayable",
      "type": "function"
    },
    {
      "constant": false,
      "inputs": [
        {
          "internalType": "bool",
          "name": "state",
          "type": "bool"
        }
      ],
      "name": "_setSeizePaused",
      "outputs": [
        {
          "internalType": "bool",
          "name": "",
          "type": "bool"
        }
      ],
      "payable": false,
      "stateMutability": "nonpayable",
      "type": "function"
    },
    {
      "constant": false,
      "inputs": [
        {
          "internalType": "bool",
          "name": "state",
          "type": "bool"
        }
      ],
      "name": "_setTransferPaused",
      "outputs": [
        {
          "internalType": "bool",
          "name": "",
          "type": "bool"
        }
      ],
      "payable": false,
      "stateMutability": "nonpayable",
      "type": "function"
    },
    {
      "constant": false,
      "inputs": [
        {
          "internalType": "contract CToken",
          "name": "cToken",
          "type": "address"
        }
      ],
      "name": "_supportMarket",
      "outputs": [
        {
          "internalType": "uint256",
          "name": "",
          "type": "uint256"
        }
      ],
      "payable": false,
      "stateMutability": "nonpayable",
      "type": "function"
    },
    {
      "constant": true,
      "inputs": [
        {
          "internalType": "address",
          "name": "",
          "type": "address"
        },
        {
          "internalType": "uint256",
          "name": "",
          "type": "uint256"
        }
      ],
      "name": "accountAssets",
      "outputs": [
        {
          "internalType": "contract CToken",
          "name": "",
          "type": "address"
        }
      ],
      "payable": false,
      "stateMutability": "view",
      "type": "function"
    },
    {
      "constant": true,
      "inputs": [],
      "name": "admin",
      "outputs": [
        {
          "internalType": "address",
          "name": "",
          "type": "address"
        }
      ],
      "payable": false,
      "stateMutability": "view",
      "type": "function"
    },
    {
      "constant": true,
      "inputs": [
        {
          "internalType": "uint256",
          "name": "",
          "type": "uint256"
        }
      ],
      "name": "allMarkets",
      "outputs": [
        {
          "internalType": "contract CToken",
          "name": "",
          "type": "address"
        }
      ],
      "payable": false,
      "stateMutability": "view",
      "type": "function"
    },
    {
      "constant": false,
      "inputs": [
        {
          "internalType": "address",
          "name": "cToken",
          "type": "address"
        },
        {
          "internalType": "address",
          "name": "borrower",
          "type": "address"
        },
        {
          "internalType": "uint256",
          "name": "borrowAmount",
          "type": "uint256"
        }
      ],
      "name": "borrowAllowed",
      "outputs": [
        {
          "internalType": "uint256",
          "name": "",
          "type": "uint256"
        }
      ],
      "payable": false,
      "stateMutability": "nonpayable",
      "type": "function"
    },
    {
      "constant": true,
      "inputs": [],
      "name": "borrowCapGuardian",
      "outputs": [
        {
          "internalType": "address",
          "name": "",
          "type": "address"
        }
      ],
      "payable": false,
      "stateMutability": "view",
      "type": "function"
    },
    {
      "constant": true,
      "inputs": [
        {
          "internalType": "address",
          "name": "",
          "type": "address"
        }
      ],
      "name": "borrowCaps",
      "outputs": [
        {
          "internalType": "uint256",
          "name": "",
          "type": "uint256"
        }
      ],
      "payable": false,
      "stateMutability": "view",
      "type": "function"
    },
    {
      "constant": true,
      "inputs": [
        {
          "internalType": "address",
          "name": "",
          "type": "address"
        }
      ],
      "name": "borrowGuardianPaused",
      "outputs": [
        {
          "internalType": "bool",
          "name": "",
          "type": "bool"
        }
      ],
      "payable": false,
      "stateMutability": "view",
      "type": "function"
    },
    {
      "constant": true,
      "inputs": [
        {
          "internalType": "address",
          "name": "",
          "type": "address"
        }
      ],
      "name": "borrowRestricted",
      "outputs": [
        {
          "internalType": "bool",
          "name": "",
          "type": "bool"
        }
      ],
      "payable": false,
      "stateMutability": "view",
      "type": "function"
    },
    {
      "constant": false,
      "inputs": [
        {
          "internalType": "address",
          "name": "cToken",
          "type": "address"
        },
        {
          "internalType": "address",
          "name": "borrower",
          "type": "address"
        },
        {
          "internalType": "uint256",
          "name": "borrowAmount",
          "type": "uint256"
        }
      ],
      "name": "borrowVerify",
      "outputs": [],
      "payable": false,
      "stateMutability": "nonpayable",
      "type": "function"
    },
    {
      "constant": true,
      "inputs": [
        {
          "internalType": "address",
          "name": "",
          "type": "address"
        }
      ],
      "name": "borrowWhitelist",
      "outputs": [
        {
          "internalType": "bool",
          "name": "",
          "type": "bool"
        }
      ],
      "payable": false,
      "stateMutability": "view",
      "type": "function"
    },
    {
      "constant": true,
      "inputs": [
        {
          "internalType": "address",
          "name": "account",
          "type": "address"
        },
        {
          "internalType": "contract CToken",
          "name": "cToken",
          "type": "address"
        }
      ],
      "name": "checkMembership",
      "outputs": [
        {
          "internalType": "bool",
          "name": "",
          "type": "bool"
        }
      ],
      "payable": false,
      "stateMutability": "view",
      "type": "function"
    },
    {
      "constant": false,
      "inputs": [
        {
          "internalType": "address",
          "name": "holder",
          "type": "address"
        },
        {
          "internalType": "contract CToken[]",
          "name": "cTokens",
          "type": "address[]"
        }
      ],
      "name": "claimComp",
      "outputs": [],
      "payable": false,
      "stateMutability": "nonpayable",
      "type": "function"
    },
    {
      "constant": false,
      "inputs": [
        {
          "internalType": "address[]",
          "name": "holders",
          "type": "address[]"
        },
        {
          "internalType": "contract CToken[]",
          "name": "cTokens",
          "type": "address[]"
        },
        {
          "internalType": "bool",
          "name": "borrowers",
          "type": "bool"
        },
        {
          "internalType": "bool",
          "name": "suppliers",
          "type": "bool"
        }
      ],
      "name": "claimComp",
      "outputs": [],
      "payable": false,
      "stateMutability": "nonpayable",
      "type": "function"
    },
    {
      "constant": false,
      "inputs": [
        {
          "internalType": "address",
          "name": "holder",
          "type": "address"
        }
      ],
      "name": "claimComp",
      "outputs": [],
      "payable": false,
      "stateMutability": "nonpayable",
      "type": "function"
    },
    {
      "constant": true,
      "inputs": [],
      "name": "closeFactorMantissa",
      "outputs": [
        {
          "internalType": "uint256",
          "name": "",
          "type": "uint256"
        }
      ],
      "payable": false,
      "stateMutability": "view",
      "type": "function"
    },
    {
      "constant": true,
      "inputs": [
        {
          "internalType": "address",
          "name": "",
          "type": "address"
        }
      ],
      "name": "compAccrued",
      "outputs": [
        {
          "internalType": "uint256",
          "name": "",
          "type": "uint256"
        }
      ],
      "payable": false,
      "stateMutability": "view",
      "type": "function"
    },
    {
      "constant": true,
      "inputs": [
        {
          "internalType": "address",
          "name": "",
          "type": "address"
        }
      ],
      "name": "compBorrowState",
      "outputs": [
        {
          "internalType": "uint224",
          "name": "index",
          "type": "uint224"
        },
        {
          "internalType": "uint32",
          "name": "block",
          "type": "uint32"
        }
      ],
      "payable": false,
      "stateMutability": "view",
      "type": "function"
    },
    {
      "constant": true,
      "inputs": [
        {
          "internalType": "address",
          "name": "",
          "type": "address"
        },
        {
          "internalType": "address",
          "name": "",
          "type": "address"
        }
      ],
      "name": "compBorrowerIndex",
      "outputs": [
        {
          "internalType": "uint256",
          "name": "",
          "type": "uint256"
        }
      ],
      "payable": false,
      "stateMutability": "view",
      "type": "function"
    },
    {
      "constant": true,
      "inputs": [
        {
          "internalType": "address",
          "name": "",
          "type": "address"
        }
      ],
      "name": "compContributorSpeeds",
      "outputs": [
        {
          "internalType": "uint256",
          "name": "",
          "type": "uint256"
        }
      ],
      "payable": false,
      "stateMutability": "view",
      "type": "function"
    },
    {
      "constant": true,
      "inputs": [],
      "name": "compInitialIndex",
      "outputs": [
        {
          "internalType": "uint224",
          "name": "",
          "type": "uint224"
        }
      ],
      "payable": false,
      "stateMutability": "view",
      "type": "function"
    },
    {
      "constant": true,
      "inputs": [],
      "name": "compRate",
      "outputs": [
        {
          "internalType": "uint256",
          "name": "",
          "type": "uint256"
        }
      ],
      "payable": false,
      "stateMutability": "view",
      "type": "function"
    },
    {
      "constant": true,
      "inputs": [
        {
          "internalType": "address",
          "name": "",
          "type": "address"
        }
      ],
      "name": "compSpeeds",
      "outputs": [
        {
          "internalType": "uint256",
          "name": "",
          "type": "uint256"
        }
      ],
      "payable": false,
      "stateMutability": "view",
      "type": "function"
    },
    {
      "constant": true,
      "inputs": [
        {
          "internalType": "address",
          "name": "",
          "type": "address"
        },
        {
          "internalType": "address",
          "name": "",
          "type": "address"
        }
      ],
      "name": "compSupplierIndex",
      "outputs": [
        {
          "internalType": "uint256",
          "name": "",
          "type": "uint256"
        }
      ],
      "payable": false,
      "stateMutability": "view",
      "type": "function"
    },
    {
      "constant": true,
      "inputs": [
        {
          "internalType": "address",
          "name": "",
          "type": "address"
        }
      ],
      "name": "compSupplyState",
      "outputs": [
        {
          "internalType": "uint224",
          "name": "index",
          "type": "uint224"
        },
        {
          "internalType": "uint32",
          "name": "block",
          "type": "uint32"
        }
      ],
      "payable": false,
      "stateMutability": "view",
      "type": "function"
    },
    {
      "constant": true,
      "inputs": [],
      "name": "comptrollerImplementation",
      "outputs": [
        {
          "internalType": "address",
          "name": "",
          "type": "address"
        }
      ],
      "payable": false,
      "stateMutability": "view",
      "type": "function"
    },
    {
      "constant": false,
      "inputs": [
        {
          "internalType": "address[]",
          "name": "cTokens",
          "type": "address[]"
        },
        {
          "internalType": "address",
          "name": "borrower",
          "type": "address"
        }
      ],
      "name": "enterMarkets",
      "outputs": [
        {
          "internalType": "uint256[]",
          "name": "",
          "type": "uint256[]"
        }
      ],
      "payable": false,
      "stateMutability": "nonpayable",
      "type": "function"
    },
    {
      "constant": false,
      "inputs": [
        {
          "internalType": "address",
          "name": "cTokenAddress",
          "type": "address"
        }
      ],
      "name": "exitMarket",
      "outputs": [
        {
          "internalType": "uint256",
          "name": "",
          "type": "uint256"
        }
      ],
      "payable": false,
      "stateMutability": "nonpayable",
      "type": "function"
    },
    {
      "constant": true,
      "inputs": [
        {
          "internalType": "address",
          "name": "account",
          "type": "address"
        }
      ],
      "name": "getAccountLiquidity",
      "outputs": [
        {
          "internalType": "uint256",
          "name": "",
          "type": "uint256"
        },
        {
          "internalType": "uint256",
          "name": "",
          "type": "uint256"
        },
        {
          "internalType": "uint256",
          "name": "",
          "type": "uint256"
        }
      ],
      "payable": false,
      "stateMutability": "view",
      "type": "function"
    },
    {
      "constant": true,
      "inputs": [],
      "name": "getAllMarkets",
      "outputs": [
        {
          "internalType": "contract CToken[]",
          "name": "",
          "type": "address[]"
        }
      ],
      "payable": false,
      "stateMutability": "view",
      "type": "function"
    },
    {
      "constant": true,
      "inputs": [
        {
          "internalType": "address",
          "name": "account",
          "type": "address"
        }
      ],
      "name": "getAssetsIn",
      "outputs": [
        {
          "internalType": "contract CToken[]",
          "name": "",
          "type": "address[]"
        }
      ],
      "payable": false,
      "stateMutability": "view",
      "type": "function"
    },
    {
      "constant": true,
      "inputs": [],
      "name": "getBlockNumber",
      "outputs": [
        {
          "internalType": "uint256",
          "name": "",
          "type": "uint256"
        }
      ],
      "payable": false,
      "stateMutability": "view",
      "type": "function"
    },
    {
      "constant": true,
      "inputs": [],
      "name": "getCompAddress",
      "outputs": [
        {
          "internalType": "address",
          "name": "",
          "type": "address"
        }
      ],
      "payable": false,
      "stateMutability": "view",
      "type": "function"
    },
    {
      "constant": true,
      "inputs": [
        {
          "internalType": "address",
          "name": "account",
          "type": "address"
        },
        {
          "internalType": "address",
          "name": "cTokenModify",
          "type": "address"
        },
        {
          "internalType": "uint256",
          "name": "redeemTokens",
          "type": "uint256"
        },
        {
          "internalType": "uint256",
          "name": "borrowAmount",
          "type": "uint256"
        }
      ],
      "name": "getHypotheticalAccountLiquidity",
      "outputs": [
        {
          "internalType": "uint256",
          "name": "",
          "type": "uint256"
        },
        {
          "internalType": "uint256",
          "name": "",
          "type": "uint256"
        },
        {
          "internalType": "uint256",
          "name": "",
          "type": "uint256"
        }
      ],
      "payable": false,
      "stateMutability": "view",
      "type": "function"
    },
    {
      "constant": true,
      "inputs": [],
      "name": "getTreasuryAddress",
      "outputs": [
        {
          "internalType": "address",
          "name": "",
          "type": "address"
        }
      ],
      "payable": false,
      "stateMutability": "view",
      "type": "function"
    },
    {
      "constant": true,
      "inputs": [],
      "name": "getXRockAddress",
      "outputs": [
        {
          "internalType": "address",
          "name": "",
          "type": "address"
        }
      ],
      "payable": false,
      "stateMutability": "view",
      "type": "function"
    },
    {
      "constant": true,
      "inputs": [],
      "name": "isComptroller",
      "outputs": [
        {
          "internalType": "bool",
          "name": "",
          "type": "bool"
        }
      ],
      "payable": false,
      "stateMutability": "view",
      "type": "function"
    },
    {
      "constant": true,
      "inputs": [
        {
          "internalType": "address",
          "name": "",
          "type": "address"
        }
      ],
      "name": "lastContributorBlock",
      "outputs": [
        {
          "internalType": "uint256",
          "name": "",
          "type": "uint256"
        }
      ],
      "payable": false,
      "stateMutability": "view",
      "type": "function"
    },
    {
      "constant": false,
      "inputs": [
        {
          "internalType": "address",
          "name": "cTokenBorrowed",
          "type": "address"
        },
        {
          "internalType": "address",
          "name": "cTokenCollateral",
          "type": "address"
        },
        {
          "internalType": "address",
          "name": "liquidator",
          "type": "address"
        },
        {
          "internalType": "address",
          "name": "borrower",
          "type": "address"
        },
        {
          "internalType": "uint256",
          "name": "repayAmount",
          "type": "uint256"
        }
      ],
      "name": "liquidateBorrowAllowed",
      "outputs": [
        {
          "internalType": "uint256",
          "name": "",
          "type": "uint256"
        }
      ],
      "payable": false,
      "stateMutability": "nonpayable",
      "type": "function"
    },
    {
      "constant": false,
      "inputs": [
        {
          "internalType": "address",
          "name": "cTokenBorrowed",
          "type": "address"
        },
        {
          "internalType": "address",
          "name": "cTokenCollateral",
          "type": "address"
        },
        {
          "internalType": "address",
          "name": "liquidator",
          "type": "address"
        },
        {
          "internalType": "address",
          "name": "borrower",
          "type": "address"
        },
        {
          "internalType": "uint256",
          "name": "actualRepayAmount",
          "type": "uint256"
        },
        {
          "internalType": "uint256",
          "name": "seizeTokens",
          "type": "uint256"
        }
      ],
      "name": "liquidateBorrowVerify",
      "outputs": [],
      "payable": false,
      "stateMutability": "nonpayable",
      "type": "function"
    },
    {
      "constant": true,
      "inputs": [
        {
          "internalType": "address",
          "name": "cTokenBorrowed",
          "type": "address"
        },
        {
          "internalType": "address",
          "name": "cTokenCollateral",
          "type": "address"
        },
        {
          "internalType": "uint256",
          "name": "actualRepayAmount",
          "type": "uint256"
        }
      ],
      "name": "liquidateCalculateSeizeTokens",
      "outputs": [
        {
          "internalType": "uint256",
          "name": "",
          "type": "uint256"
        },
        {
          "internalType": "uint256",
          "name": "",
          "type": "uint256"
        }
      ],
      "payable": false,
      "stateMutability": "view",
      "type": "function"
    },
    {
      "constant": true,
      "inputs": [],
      "name": "liquidationIncentiveMantissa",
      "outputs": [
        {
          "internalType": "uint256",
          "name": "",
          "type": "uint256"
        }
      ],
      "payable": false,
      "stateMutability": "view",
      "type": "function"
    },
    {
      "constant": true,
      "inputs": [
        {
          "internalType": "address",
          "name": "",
          "type": "address"
        }
      ],
      "name": "markets",
      "outputs": [
        {
          "internalType": "bool",
          "name": "isListed",
          "type": "bool"
        },
        {
          "internalType": "uint256",
          "name": "collateralFactorMantissa",
          "type": "uint256"
        },
        {
          "internalType": "uint256",
          "name": "imfFactorMantissa",
          "type": "uint256"
        },
        {
          "internalType": "bool",
          "name": "isComped",
          "type": "bool"
        }
      ],
      "payable": false,
      "stateMutability": "view",
      "type": "function"
    },
    {
      "constant": true,
      "inputs": [],
      "name": "maxAssets",
      "outputs": [
        {
          "internalType": "uint256",
          "name": "",
          "type": "uint256"
        }
      ],
      "payable": false,
      "stateMutability": "view",
      "type": "function"
    },
    {
      "constant": false,
      "inputs": [
        {
          "internalType": "address",
          "name": "cToken",
          "type": "address"
        },
        {
          "internalType": "address",
          "name": "minter",
          "type": "address"
        },
        {
          "internalType": "uint256",
          "name": "mintAmount",
          "type": "uint256"
        }
      ],
      "name": "mintAllowed",
      "outputs": [
        {
          "internalType": "uint256",
          "name": "",
          "type": "uint256"
        }
      ],
      "payable": false,
      "stateMutability": "nonpayable",
      "type": "function"
    },
    {
      "constant": true,
      "inputs": [
        {
          "internalType": "address",
          "name": "",
          "type": "address"
        }
      ],
      "name": "mintGuardianPaused",
      "outputs": [
        {
          "internalType": "bool",
          "name": "",
          "type": "bool"
        }
      ],
      "payable": false,
      "stateMutability": "view",
      "type": "function"
    },
    {
      "constant": false,
      "inputs": [
        {
          "internalType": "address",
          "name": "cToken",
          "type": "address"
        },
        {
          "internalType": "address",
          "name": "minter",
          "type": "address"
        },
        {
          "internalType": "uint256",
          "name": "actualMintAmount",
          "type": "uint256"
        },
        {
          "internalType": "uint256",
          "name": "mintTokens",
          "type": "uint256"
        }
      ],
      "name": "mintVerify",
      "outputs": [],
      "payable": false,
      "stateMutability": "nonpayable",
      "type": "function"
    },
    {
      "constant": true,
      "inputs": [],
      "name": "oracle",
      "outputs": [
        {
          "internalType": "contract PriceOracle",
          "name": "",
          "type": "address"
        }
      ],
      "payable": false,
      "stateMutability": "view",
      "type": "function"
    },
    {
      "constant": true,
      "inputs": [],
      "name": "pauseGuardian",
      "outputs": [
        {
          "internalType": "address",
          "name": "",
          "type": "address"
        }
      ],
      "payable": false,
      "stateMutability": "view",
      "type": "function"
    },
    {
      "constant": true,
      "inputs": [],
      "name": "pendingAdmin",
      "outputs": [
        {
          "internalType": "address",
          "name": "",
          "type": "address"
        }
      ],
      "payable": false,
      "stateMutability": "view",
      "type": "function"
    },
    {
      "constant": true,
      "inputs": [],
      "name": "pendingComptrollerImplementation",
      "outputs": [
        {
          "internalType": "address",
          "name": "",
          "type": "address"
        }
      ],
      "payable": false,
      "stateMutability": "view",
      "type": "function"
    },
    {
      "constant": false,
      "inputs": [
        {
          "internalType": "address",
          "name": "cToken",
          "type": "address"
        },
        {
          "internalType": "address",
          "name": "redeemer",
          "type": "address"
        },
        {
          "internalType": "uint256",
          "name": "redeemTokens",
          "type": "uint256"
        }
      ],
      "name": "redeemAllowed",
      "outputs": [
        {
          "internalType": "uint256",
          "name": "",
          "type": "uint256"
        }
      ],
      "payable": false,
      "stateMutability": "nonpayable",
      "type": "function"
    },
    {
      "constant": false,
      "inputs": [
        {
          "internalType": "address",
          "name": "cToken",
          "type": "address"
        },
        {
          "internalType": "address",
          "name": "redeemer",
          "type": "address"
        },
        {
          "internalType": "uint256",
          "name": "redeemAmount",
          "type": "uint256"
        },
        {
          "internalType": "uint256",
          "name": "redeemTokens",
          "type": "uint256"
        }
      ],
      "name": "redeemVerify",
      "outputs": [],
      "payable": false,
      "stateMutability": "nonpayable",
      "type": "function"
    },
    {
      "constant": false,
      "inputs": [
        {
          "internalType": "address",
          "name": "cToken",
          "type": "address"
        },
        {
          "internalType": "address",
          "name": "payer",
          "type": "address"
        },
        {
          "internalType": "address",
          "name": "borrower",
          "type": "address"
        },
        {
          "internalType": "uint256",
          "name": "repayAmount",
          "type": "uint256"
        }
      ],
      "name": "repayBorrowAllowed",
      "outputs": [
        {
          "internalType": "uint256",
          "name": "",
          "type": "uint256"
        }
      ],
      "payable": false,
      "stateMutability": "nonpayable",
      "type": "function"
    },
    {
      "constant": false,
      "inputs": [
        {
          "internalType": "address",
          "name": "cToken",
          "type": "address"
        },
        {
          "internalType": "address",
          "name": "payer",
          "type": "address"
        },
        {
          "internalType": "address",
          "name": "borrower",
          "type": "address"
        },
        {
          "internalType": "uint256",
          "name": "actualRepayAmount",
          "type": "uint256"
        },
        {
          "internalType": "uint256",
          "name": "borrowerIndex",
          "type": "uint256"
        }
      ],
      "name": "repayBorrowVerify",
      "outputs": [],
      "payable": false,
      "stateMutability": "nonpayable",
      "type": "function"
    },
    {
      "constant": false,
      "inputs": [
        {
          "internalType": "address",
          "name": "cTokenCollateral",
          "type": "address"
        },
        {
          "internalType": "address",
          "name": "cTokenBorrowed",
          "type": "address"
        },
        {
          "internalType": "address",
          "name": "liquidator",
          "type": "address"
        },
        {
          "internalType": "address",
          "name": "borrower",
          "type": "address"
        },
        {
          "internalType": "uint256",
          "name": "seizeTokens",
          "type": "uint256"
        }
      ],
      "name": "seizeAllowed",
      "outputs": [
        {
          "internalType": "uint256",
          "name": "",
          "type": "uint256"
        }
      ],
      "payable": false,
      "stateMutability": "nonpayable",
      "type": "function"
    },
    {
      "constant": true,
      "inputs": [],
      "name": "seizeGuardianPaused",
      "outputs": [
        {
          "internalType": "bool",
          "name": "",
          "type": "bool"
        }
      ],
      "payable": false,
      "stateMutability": "view",
      "type": "function"
    },
    {
      "constant": false,
      "inputs": [
        {
          "internalType": "address",
          "name": "cTokenCollateral",
          "type": "address"
        },
        {
          "internalType": "address",
          "name": "cTokenBorrowed",
          "type": "address"
        },
        {
          "internalType": "address",
          "name": "liquidator",
          "type": "address"
        },
        {
          "internalType": "address",
          "name": "borrower",
          "type": "address"
        },
        {
          "internalType": "uint256",
          "name": "seizeTokens",
          "type": "uint256"
        }
      ],
      "name": "seizeVerify",
      "outputs": [],
      "payable": false,
      "stateMutability": "nonpayable",
      "type": "function"
    },
    {
      "constant": false,
      "inputs": [
        {
          "internalType": "address",
          "name": "cToken",
          "type": "address"
        },
        {
          "internalType": "address",
          "name": "src",
          "type": "address"
        },
        {
          "internalType": "address",
          "name": "dst",
          "type": "address"
        },
        {
          "internalType": "uint256",
          "name": "transferTokens",
          "type": "uint256"
        }
      ],
      "name": "transferAllowed",
      "outputs": [
        {
          "internalType": "uint256",
          "name": "",
          "type": "uint256"
        }
      ],
      "payable": false,
      "stateMutability": "nonpayable",
      "type": "function"
    },
    {
      "constant": true,
      "inputs": [],
      "name": "transferGuardianPaused",
      "outputs": [
        {
          "internalType": "bool",
          "name": "",
          "type": "bool"
        }
      ],
      "payable": false,
      "stateMutability": "view",
      "type": "function"
    },
    {
      "constant": false,
      "inputs": [
        {
          "internalType": "address",
          "name": "cToken",
          "type": "address"
        },
        {
          "internalType": "address",
          "name": "src",
          "type": "address"
        },
        {
          "internalType": "address",
          "name": "dst",
          "type": "address"
        },
        {
          "internalType": "uint256",
          "name": "transferTokens",
          "type": "uint256"
        }
      ],
      "name": "transferVerify",
      "outputs": [],
      "payable": false,
      "stateMutability": "nonpayable",
      "type": "function"
    },
    {
      "constant": false,
      "inputs": [
        {
          "internalType": "address",
          "name": "contributor",
          "type": "address"
        }
      ],
      "name": "updateContributorRewards",
      "outputs": [],
      "payable": false,
      "stateMutability": "nonpayable",
      "type": "function"
    }
  ],
  "transactionHash": "0x19f5ef9897b584aeb9428c052b69eb9a7486f2ff40768a4b62200f5b970fd6cd",
  "args": [],
  "numDeployments": 1,
  "solcInputHash": "bc025e7bce9ee8dee5f68883a99283cb",
  "bytecode": "0x608060405234801561001057600080fd5b50600080546001600160a01b03191632179055615d8580620000336000396000f3fe608060405234801561001057600080fd5b50600436106104955760003560e01c8063731f0c2b11610262578063bb82aa5e11610151578063dcfbc0c7116100ce578063e9af029211610092578063e9af0292146112ef578063eabe7d9114611315578063ede4edd01461134b578063effd86f514611371578063f7401e951461141d578063f851a440146114db57610495565b8063dcfbc0c7146112a3578063e0024604146112ab578063e4028eee146112b3578063e6653f3d146112df578063e8755446146112e757610495565b8063cc7ebdc411610115578063cc7ebdc4146111af578063d02f7351146111d5578063d6654a7d1461121b578063da3d454c14611241578063dce154491461127757610495565b8063bb82aa5e146110c8578063bdcdc258146110d0578063bea6b8b81461110c578063c488847b14611132578063ca0af0431461118157610495565b8063986ab838116101df578063abfceffc116101a3578063abfceffc14610fee578063ac0b0bb714611064578063affb5b891461106c578063b0772d0b14611092578063b21be7fd1461109a57610495565b8063986ab83814610f6e5780639d1b5a0a14610f94578063a76b3fda14610f9c578063a7f0e23114610fc2578063aa90075414610fe657610495565b80638c57804e116102265780638c57804e14610ea35780638e8f294b14610ec95780638ebf636414610f19578063929fe9a114610f3857806394b2294b14610f6657610495565b8063731f0c2b14610d89578063741b252514610daf5780637b7acbd314610dd55780637dc0d1d014610e9357806387f7630314610e9b57610495565b806347ef3b3b116103895780635c778605116103065780636810dfa6116102ca5780636810dfa614610b5f5780636a56947e14610c8b5780636b79c38d14610cc75780636d154ea514610d155780636d35bf9114610d3b57806370bea23b14610d8157610495565b80635c778605146109d95780635ec88c7914610a0f5780635f5af1aa14610a355780635fc7e71e14610a5b578063607ef6c114610aa157610495565b80634fd42e171161034d5780634fd42e171461091157806351dff9891461092e57806352d84d1e1461096a57806355ee1fe114610987578063598ee1cb146109ad57610495565b806347ef3b3b146108075780634a584432146108535780634ada90af146108795780634e79238f146108815780634ef4c3e1146108db57610495565b806326782247116104175780633bcf7ec1116103db5780633bcf7ec1146107615780633c94786f1461078f57806341c728b91461079757806342cbb15c146107d3578063434caf25146107db57610495565b806326782247146106cb57806327efe3cb146106d35780632d70db78146106ff578063317b0b771461071e578063391957d71461073b57610495565b80631d7b33d71161045e5780631d7b33d7146105fb5780631ededc911461062157806321af45691461066357806324008a621461068757806324a3d622146106c357610495565b80627e3dd21461049a5780630ec43235146104b657806318c882a5146104f45780631c3db2e0146105225780631d504dc6146105d5575b600080fd5b6104a26114e3565b604080519115158252519081900360200190f35b6104e2600480360360408110156104cc57600080fd5b506001600160a01b0381351690602001356114e8565b60408051918252519081900360200190f35b6104a26004803603604081101561050a57600080fd5b506001600160a01b03813516906020013515156115bb565b6105d36004803603604081101561053857600080fd5b6001600160a01b038235169190810190604081016020820135600160201b81111561056257600080fd5b82018360208201111561057457600080fd5b803590602001918460208302840111600160201b8311171561059557600080fd5b919080806020026020016040519081016040528093929190818152602001838360200280828437600092019190915250929550611758945050505050565b005b6105d3600480360360208110156105eb57600080fd5b50356001600160a01b03166117ba565b6104e26004803603602081101561061157600080fd5b50356001600160a01b0316611919565b6105d3600480360360a081101561063757600080fd5b506001600160a01b0381358116916020810135821691604082013516906060810135906080013561192b565b61066b611932565b604080516001600160a01b039092168252519081900360200190f35b6104e26004803603608081101561069d57600080fd5b506001600160a01b03813581169160208101358216916040820135169060600135611941565b61066b6119fe565b61066b611a0d565b6105d3600480360360408110156106e957600080fd5b506001600160a01b038135169060200135611a1c565b6104a26004803603602081101561071557600080fd5b50351515611b1f565b6104e26004803603602081101561073457600080fd5b5035611c59565b6105d36004803603602081101561075157600080fd5b50356001600160a01b0316611d06565b6104a26004803603604081101561077757600080fd5b506001600160a01b0381351690602001351515611db2565b6104a2611f4d565b6105d3600480360360808110156107ad57600080fd5b506001600160a01b03813581169160208101359091169060408101359060600135611f5d565b6104e2611f63565b6105d3600480360360408110156107f157600080fd5b506001600160a01b038135169060200135611f68565b6105d3600480360360c081101561081d57600080fd5b506001600160a01b0381358116916020810135821691604082013581169160608101359091169060808101359060a00135611fcf565b6104e26004803603602081101561086957600080fd5b50356001600160a01b0316611fd7565b6104e2611fe9565b6108bd6004803603608081101561089757600080fd5b506001600160a01b03813581169160208101359091169060408101359060600135611fef565b60408051938452602084019290925282820152519081900360600190f35b6104e2600480360360608110156108f157600080fd5b506001600160a01b03813581169160208101359091169060400135612029565b6104e26004803603602081101561092757600080fd5b50356120cf565b6105d36004803603608081101561094457600080fd5b506001600160a01b0381358116916020810135909116906040810135906060013561213f565b61066b6004803603602081101561098057600080fd5b5035612193565b6104e26004803603602081101561099d57600080fd5b50356001600160a01b03166121ba565b6105d3600480360360408110156109c357600080fd5b506001600160a01b03813516906020013561223f565b6105d3600480360360608110156109ef57600080fd5b506001600160a01b0381358116916020810135909116906040013561233a565b6108bd60048036036020811015610a2557600080fd5b50356001600160a01b031661233f565b6104e260048036036020811015610a4b57600080fd5b50356001600160a01b0316612374565b6104e2600480360360a0811015610a7157600080fd5b506001600160a01b03813581169160208101358216916040820135811691606081013590911690608001356123f8565b6105d360048036036040811015610ab757600080fd5b810190602081018135600160201b811115610ad157600080fd5b820183602082011115610ae357600080fd5b803590602001918460208302840111600160201b83111715610b0457600080fd5b919390929091602081019035600160201b811115610b2157600080fd5b820183602082011115610b3357600080fd5b803590602001918460208302840111600160201b83111715610b5457600080fd5b50909250905061255d565b6105d360048036036080811015610b7557600080fd5b810190602081018135600160201b811115610b8f57600080fd5b820183602082011115610ba157600080fd5b803590602001918460208302840111600160201b83111715610bc257600080fd5b9190808060200260200160405190810160405280939291908181526020018383602002808284376000920191909152509295949360208101935035915050600160201b811115610c1157600080fd5b820183602082011115610c2357600080fd5b803590602001918460208302840111600160201b83111715610c4457600080fd5b9190808060200260200160405190810160405280939291908181526020018383602002808284376000920191909152509295505050508035151591506020013515156126ed565b6105d360048036036080811015610ca157600080fd5b506001600160a01b03813581169160208101358216916040820135169060600135611f5d565b610ced60048036036020811015610cdd57600080fd5b50356001600160a01b0316612991565b604080516001600160e01b03909316835263ffffffff90911660208301528051918290030190f35b6104a260048036036020811015610d2b57600080fd5b50356001600160a01b03166129bb565b6105d3600480360360a0811015610d5157600080fd5b506001600160a01b038135811691602081013582169160408201358116916060810135909116906080013561192b565b61066b6129d0565b6104a260048036036020811015610d9f57600080fd5b50356001600160a01b03166129e8565b6105d360048036036020811015610dc557600080fd5b50356001600160a01b03166129fd565b6105d360048036036040811015610deb57600080fd5b810190602081018135600160201b811115610e0557600080fd5b820183602082011115610e1757600080fd5b803590602001918460208302840111600160201b83111715610e3857600080fd5b919390929091602081019035600160201b811115610e5557600080fd5b820183602082011115610e6757600080fd5b803590602001918460208302840111600160201b83111715610e8857600080fd5b509092509050612ac0565b61066b612c47565b6104a2612c56565b610ced60048036036020811015610eb957600080fd5b50356001600160a01b0316612c66565b610eef60048036036020811015610edf57600080fd5b50356001600160a01b0316612c90565b60408051941515855260208501939093528383019190915215156060830152519081900360800190f35b6104a260048036036020811015610f2f57600080fd5b50351515612cbc565b6104a260048036036040811015610f4e57600080fd5b506001600160a01b0381358116916020013516612df5565b6104e2612e28565b6104e260048036036020811015610f8457600080fd5b50356001600160a01b0316612e2e565b61066b612e40565b6104e260048036036020811015610fb257600080fd5b50356001600160a01b0316612e58565b610fca612fd3565b604080516001600160e01b039092168252519081900360200190f35b6104e2612fe6565b6110146004803603602081101561100457600080fd5b50356001600160a01b0316612fec565b60408051602080825283518183015283519192839290830191858101910280838360005b83811015611050578181015183820152602001611038565b505050509050019250505060405180910390f35b6104a2613075565b6104a26004803603602081101561108257600080fd5b50356001600160a01b0316613085565b61101461309a565b6104e2600480360360408110156110b057600080fd5b506001600160a01b03813581169160200135166130fc565b61066b613119565b6104e2600480360360808110156110e657600080fd5b506001600160a01b03813581169160208101358216916040820135169060600135613128565b6104e26004803603602081101561112257600080fd5b50356001600160a01b03166131b8565b6111686004803603606081101561114857600080fd5b506001600160a01b038135811691602081013590911690604001356131ca565b6040805192835260208301919091528051918290030190f35b6104e26004803603604081101561119757600080fd5b506001600160a01b03813581169160200135166133f2565b6104e2600480360360208110156111c557600080fd5b50356001600160a01b031661340f565b6104e2600480360360a08110156111eb57600080fd5b506001600160a01b0381358116916020810135821691604082013581169160608101359091169060800135613421565b6104a26004803603602081101561123157600080fd5b50356001600160a01b03166135d5565b6104e26004803603606081101561125757600080fd5b506001600160a01b038135811691602081013590911690604001356135ea565b61066b6004803603604081101561128d57600080fd5b506001600160a01b038135169060200135613a48565b61066b613a7d565b61066b613a8c565b6104e2600480360360408110156112c957600080fd5b506001600160a01b038135169060200135613aa4565b6104a2613c45565b6104e2613c55565b6105d36004803603602081101561130557600080fd5b50356001600160a01b0316613c5b565b6104e26004803603606081101561132b57600080fd5b506001600160a01b03813581169160208101359091169060400135613cbf565b6104e26004803603602081101561136157600080fd5b50356001600160a01b0316613cfa565b6110146004803603604081101561138757600080fd5b810190602081018135600160201b8111156113a157600080fd5b8201836020820111156113b357600080fd5b803590602001918460208302840111600160201b831117156113d457600080fd5b919080806020026020016040519081016040528093929190818152602001838360200280828437600092019190915250929550505090356001600160a01b0316915061400d9050565b6105d36004803603604081101561143357600080fd5b810190602081018135600160201b81111561144d57600080fd5b82018360208201111561145f57600080fd5b803590602001918460208302840111600160201b8311171561148057600080fd5b919390929091602081019035600160201b81111561149d57600080fd5b8201836020820111156114af57600080fd5b803590602001918460208302840111600160201b831117156114d057600080fd5b5090925090506141a0565b61066b614327565b600181565b600080546001600160a01b0316331461150e5761150760016006614336565b90506115b5565b6001600160a01b0383166000908152600960205260409020805460ff166115435761153b60096007614336565b9150506115b5565b61154b615b01565b5060408051602080820183528582526002840180549087905583516001600160a01b038916815291820181905281840187905292519192917f6b85bbecb2aeb5255def0f2c7164ae00aba9fe1ec05bbd44d09c5c6fd4b2d6da9181900360600190a1600093505050505b92915050565b6001600160a01b03821660009081526009602052604081205460ff166116125760405162461bcd60e51b8152600401808060200182810382526028815260200180615c0c6028913960400191505060405180910390fd5b600a546001600160a01b031633148061163557506000546001600160a01b031633145b6116705760405162461bcd60e51b8152600401808060200182810382526027815260200180615c346027913960400191505060405180910390fd5b6000546001600160a01b031633148061168b57506001821515145b6116d5576040805162461bcd60e51b81526020600482015260166024820152756f6e6c792061646d696e2063616e20756e706175736560501b604482015290519081900360640190fd5b6001600160a01b0383166000818152600c6020908152604091829020805486151560ff199091168117909155825193845283830152606090830181905260069083015265426f72726f7760d01b6080830152517f71aec636243f9709bb0007ae15e9afb8150ab01716d75fd7573be5cc096e03b09181900360a00190a150919050565b60408051600180825281830190925260609160208083019080388339019050509050828160008151811061178857fe5b60200260200101906001600160a01b031690816001600160a01b0316815250506117b581836001806126ed565b505050565b806001600160a01b031663f851a4406040518163ffffffff1660e01b815260040160206040518083038186803b1580156117f357600080fd5b505afa158015611807573d6000803e3d6000fd5b505050506040513d602081101561181d57600080fd5b50516001600160a01b031633146118655760405162461bcd60e51b8152600401808060200182810382526027815260200180615d2a6027913960400191505060405180910390fd5b806001600160a01b031663c1e803346040518163ffffffff1660e01b8152600401602060405180830381600087803b1580156118a057600080fd5b505af11580156118b4573d6000803e3d6000fd5b505050506040513d60208110156118ca57600080fd5b505115611916576040805162461bcd60e51b815260206004820152601560248201527418da185b99d9481b9bdd08185d5d1a1bdc9a5e9959605a1b604482015290519081900360640190fd5b50565b600f6020526000908152604090205481565b5050505050565b6015546001600160a01b031681565b6001600160a01b03841660009081526009602052604081205460ff16611969575060096119f6565b611971615b01565b6040518060200160405280876001600160a01b031663aa5af0fd6040518163ffffffff1660e01b815260040160206040518083038186803b1580156119b557600080fd5b505afa1580156119c9573d6000803e3d6000fd5b505050506040513d60208110156119df57600080fd5b5051905290506119f086858361439c565b60009150505b949350505050565b600a546001600160a01b031681565b6001546001600160a01b031681565b611a24614565565b611a75576040805162461bcd60e51b815260206004820152601960248201527f6f6e6c792061646d696e2063616e206772616e7420636f6d7000000000000000604482015290519081900360640190fd5b6000611a81838361458e565b90508015611ad6576040805162461bcd60e51b815260206004820152601b60248201527f696e73756666696369656e7420636f6d7020666f72206772616e740000000000604482015290519081900360640190fd5b604080516001600160a01b03851681526020810184905281517f98b2f82a3a07f223a0be64b3d0f47711c64dccd1feafb94aa28156b38cd9695c929181900390910190a1505050565b600a546000906001600160a01b0316331480611b4557506000546001600160a01b031633145b611b805760405162461bcd60e51b8152600401808060200182810382526027815260200180615c346027913960400191505060405180910390fd5b6000546001600160a01b0316331480611b9b57506001821515145b611be5576040805162461bcd60e51b81526020600482015260166024820152756f6e6c792061646d696e2063616e20756e706175736560501b604482015290519081900360640190fd5b600a8054831515600160b81b810260ff60b81b1990921691909117909155604080516020810192909252808252600582820152645365697a6560d81b6060830152517fef159d9a32b2472e32b098f954f3ce62d232939f1c207070b584df1814de2de09181900360800190a150805b919050565b600080546001600160a01b03163314611cb9576040805162461bcd60e51b815260206004820152601f60248201527f6f6e6c792061646d696e2063616e2073657420636c6f736520666163746f7200604482015290519081900360640190fd5b6005805490839055604080518281526020810185905281517f3b9670cf975d26958e754b57098eaa2ac914d8d2a31b83257997b9f346110fd9929181900390910190a160005b9392505050565b6000546001600160a01b03163314611d4f5760405162461bcd60e51b8152600401808060200182810382526026815260200180615c5b6026913960400191505060405180910390fd5b601580546001600160a01b038381166001600160a01b0319831681179093556040805191909216808252602082019390935281517feda98690e518e9a05f8ec6837663e188211b2da8f4906648b323f2c1d4434e29929181900390910190a15050565b6001600160a01b03821660009081526009602052604081205460ff16611e095760405162461bcd60e51b8152600401808060200182810382526028815260200180615c0c6028913960400191505060405180910390fd5b600a546001600160a01b0316331480611e2c57506000546001600160a01b031633145b611e675760405162461bcd60e51b8152600401808060200182810382526027815260200180615c346027913960400191505060405180910390fd5b6000546001600160a01b0316331480611e8257506001821515145b611ecc576040805162461bcd60e51b81526020600482015260166024820152756f6e6c792061646d696e2063616e20756e706175736560501b604482015290519081900360640190fd5b6001600160a01b0383166000818152600b6020908152604091829020805486151560ff199091168117909155825193845283830152606090830181905260049083015263135a5b9d60e21b6080830152517f71aec636243f9709bb0007ae15e9afb8150ab01716d75fd7573be5cc096e03b09181900360a00190a150919050565b600a54600160a01b900460ff1681565b50505050565b435b90565b611f70614565565b611fc1576040805162461bcd60e51b815260206004820152601d60248201527f6f6e6c792061646d696e2063616e2073657420636f6d70207370656564000000604482015290519081900360640190fd5b611fcb8282614794565b5050565b505050505050565b60166020526000908152604090205481565b60065481565b6000806000806000806120048a8a8a8a6149b9565b92509250925082601181111561201657fe5b95509093509150505b9450945094915050565b6001600160a01b0383166000908152600b602052604081205460ff1615612088576040805162461bcd60e51b815260206004820152600e60248201526d1b5a5b9d081a5cc81c185d5cd95960921b604482015290519081900360640190fd5b6001600160a01b03841660009081526009602052604090205460ff166120b25760095b9050611cff565b6120bb84614dea565b6120c5848461508c565b6000949350505050565b600080546001600160a01b031633146120f5576120ee6001600b614336565b9050611c54565b6006805490839055604080518281526020810185905281517faeba5a6c40a8ac138134bff1aaa65debf25971188a58804bad717f82f0ec1316929181900390910190a16000611cff565b8015801561214d5750600082115b15611f5d576040805162461bcd60e51b815260206004820152601160248201527072656465656d546f6b656e73207a65726f60781b604482015290519081900360640190fd5b600d81815481106121a057fe5b6000918252602090912001546001600160a01b0316905081565b600080546001600160a01b031633146121d9576120ee60016010614336565b600480546001600160a01b038481166001600160a01b0319831681179093556040805191909216808252602082019390935281517fd52b2b9b7e9ee655fcb95d2e5b9e0c9f69e7ef2b8e9d2d0ea78402d576d22e22929181900390910190a16000611cff565b612247614565565b612298576040805162461bcd60e51b815260206004820152601d60248201527f6f6e6c792061646d696e2063616e2073657420636f6d70207370656564000000604482015290519081900360640190fd5b6122a1826129fd565b806122c4576001600160a01b0382166000908152601860205260408120556122e6565b6122cc611f63565b6001600160a01b0383166000908152601860205260409020555b6001600160a01b038216600081815260176020908152604091829020849055815184815291517f386537fa92edc3319af95f1f904dcf1900021e4f3f4e08169a577a09076e66b39281900390910190a25050565b6117b5565b6000806000806000806123568760008060006149b9565b92509250925082601181111561236857fe5b97919650945092505050565b600080546001600160a01b03163314612393576120ee60016013614336565b600a80546001600160a01b038481166001600160a01b0319831617928390556040805192821680845293909116602083015280517f0613b6ee6a04f0d09f390e4d9318894b9f6ac7fd83897cd8d18896ba579c401e9281900390910190a16000611cff565b6001600160a01b03851660009081526009602052604081205460ff16158061243957506001600160a01b03851660009081526009602052604090205460ff16155b156124485760095b9050612554565b6000806124548561526b565b9193509091506000905082601181111561246a57fe5b146124845781601181111561247b57fe5b92505050612554565b8061249057600361247b565b6000886001600160a01b03166395dd9193876040518263ffffffff1660e01b815260040180826001600160a01b03166001600160a01b0316815260200191505060206040518083038186803b1580156124e857600080fd5b505afa1580156124fc573d6000803e3d6000fd5b505050506040513d602081101561251257600080fd5b505160408051602081019091526005548152909150600090612534908361528b565b90508086111561254b576011945050505050612554565b60009450505050505b95945050505050565b6000546001600160a01b031633148061258057506015546001600160a01b031633145b6125bb5760405162461bcd60e51b8152600401808060200182810382526035815260200180615cd06035913960400191505060405180910390fd5b828181158015906125cb57508082145b61260c576040805162461bcd60e51b815260206004820152600d60248201526c1a5b9d985b1a59081a5b9c1d5d609a1b604482015290519081900360640190fd5b60005b828110156126e45784848281811061262357fe5b905060200201356016600089898581811061263a57fe5b905060200201356001600160a01b03166001600160a01b03166001600160a01b031681526020019081526020016000208190555086868281811061267a57fe5b905060200201356001600160a01b03166001600160a01b03167f6f1951b2aad10f3fc81b86d91105b413a5b3f847a34bbc5ce1904201b14438f68686848181106126c057fe5b905060200201356040518082815260200191505060405180910390a260010161260f565b50505050505050565b60005b835181101561192b57600084828151811061270757fe5b6020908102919091018101516001600160a01b0381166000908152600990925260409091205490915060ff1661277c576040805162461bcd60e51b81526020600482015260156024820152741b585c9ad95d081b5d5cdd081899481b1a5cdd1959605a1b604482015290519081900360640190fd5b60018415151480156127a757506127916129d0565b6001600160a01b0316816001600160a01b031614155b156128e6576127b4615b01565b6040518060200160405280836001600160a01b031663aa5af0fd6040518163ffffffff1660e01b815260040160206040518083038186803b1580156127f857600080fd5b505afa15801561280c573d6000803e3d6000fd5b505050506040513d602081101561282257600080fd5b50519052905060005b87518110156128e3576128528389838151811061284457fe5b60200260200101518461439c565b6128a788828151811061286157fe5b6020026020010151601460008b858151811061287957fe5b60200260200101516001600160a01b03166001600160a01b031681526020019081526020016000205461458e565b601460008a84815181106128b757fe5b6020908102919091018101516001600160a01b031682528101919091526040016000205560010161282b565b50505b60018315151415612988576128fa81614dea565b60005b8651811015612986576129238288838151811061291657fe5b602002602001015161508c565b61294a87828151811061293257fe5b6020026020010151601460008a858151811061287957fe5b6014600089848151811061295a57fe5b6020908102919091018101516001600160a01b03168252810191909152604001600020556001016128fd565b505b506001016126f0565b6010602052600090815260409020546001600160e01b03811690600160e01b900463ffffffff1682565b600c6020526000908152604090205460ff1681565b7365b35d6eb7006e0e607bc54eb2dfd459923476fe90565b600b6020526000908152604090205460ff1681565b6001600160a01b03811660009081526017602052604081205490612a1f611f63565b6001600160a01b03841660009081526018602052604081205491925090612a479083906152aa565b9050600081118015612a595750600083115b15611f5d576000612a6a82856152e4565b6001600160a01b03861660009081526014602052604081205491925090612a919083615326565b6001600160a01b0387166000908152601460209081526040808320939093556018905220849055505050505050565b6000546001600160a01b03163314612b095760405162461bcd60e51b8152600401808060200182810382526026815260200180615c816026913960400191505060405180910390fd5b82818115801590612b1957508082145b612b5a576040805162461bcd60e51b815260206004820152600d60248201526c1a5b9d985b1a59081a5b9c1d5d609a1b604482015290519081900360640190fd5b60005b828110156126e457848482818110612b7157fe5b90506020020135151560196000898985818110612b8a57fe5b905060200201356001600160a01b03166001600160a01b03166001600160a01b0316815260200190815260200160002060006101000a81548160ff021916908315150217905550868682818110612bdd57fe5b905060200201356001600160a01b03166001600160a01b03167fa76e28452f12db2ec2a44dfe4344c670ba25da3b86d1ba7d96f818ab0e79d210868684818110612c2357fe5b604080516020928302949094013515158452519283900301919050a2600101612b5d565b6004546001600160a01b031681565b600a54600160b01b900460ff1681565b6011602052600090815260409020546001600160e01b03811690600160e01b900463ffffffff1682565b600960205260009081526040902080546001820154600283015460049093015460ff9283169391921684565b600a546000906001600160a01b0316331480612ce257506000546001600160a01b031633145b612d1d5760405162461bcd60e51b8152600401808060200182810382526027815260200180615c346027913960400191505060405180910390fd5b6000546001600160a01b0316331480612d3857506001821515145b612d82576040805162461bcd60e51b81526020600482015260166024820152756f6e6c792061646d696e2063616e20756e706175736560501b604482015290519081900360640190fd5b600a8054831515600160b01b810260ff60b01b1990921691909117909155604080516020810192909252808252600882820152672a3930b739b332b960c11b6060830152517fef159d9a32b2472e32b098f954f3ce62d232939f1c207070b584df1814de2de09181900360800190a15090565b6001600160a01b038082166000908152600960209081526040808320938616835260039093019052205460ff1692915050565b60075481565b60176020526000908152604090205481565b7341d5d79431a913c4ae7d69a668ecdfe5ff9dfb6890565b600080546001600160a01b03163314612e77576120ee60016012614336565b6001600160a01b03821660009081526009602052604090205460ff1615612ea4576120ee600a6011614336565b816001600160a01b031663fe9c44ae6040518163ffffffff1660e01b815260040160206040518083038186803b158015612edd57600080fd5b505afa158015612ef1573d6000803e3d6000fd5b505050506040513d6020811015612f0757600080fd5b505060408051608081018252600180825260006020838101828152848601838152606086018481526001600160a01b038a168552600984528785209651875490151560ff1991821617885592518787015590516002870155516004909501805495151595821695909517909455601990529290922080549091169091179055612f8f8261535c565b604080516001600160a01b038416815290517fcf583bb0c569eb967f806b11601c4cb93c10310485c67add5f8362c2f212321f9181900360200190a1600092915050565b6ec097ce7bc90715b34b9f100000000081565b600e5481565b60608060086000846001600160a01b03166001600160a01b0316815260200190815260200160002080548060200260200160405190810160405280929190818152602001828054801561306857602002820191906000526020600020905b81546001600160a01b0316815260019091019060200180831161304a575b5093979650505050505050565b600a54600160b81b900460ff1681565b601a6020526000908152604090205460ff1681565b6060600d8054806020026020016040519081016040528092919081815260200182805480156130f257602002820191906000526020600020905b81546001600160a01b031681526001909101906020018083116130d4575b5050505050905090565b601260209081526000928352604080842090915290825290205481565b6002546001600160a01b031681565b600a54600090600160b01b900460ff161561317f576040805162461bcd60e51b81526020600482015260126024820152711d1c985b9cd9995c881a5cc81c185d5cd95960721b604482015290519081900360640190fd5b600061318c86868561543a565b9050801561319b5790506119f6565b6131a486614dea565b6131ae868661508c565b6119f0868561508c565b60186020526000908152604090205481565b600480546040805163fc57d4df60e01b81526001600160a01b038781169482019490945290516000938493849391169163fc57d4df91602480820192602092909190829003018186803b15801561322057600080fd5b505afa158015613234573d6000803e3d6000fd5b505050506040513d602081101561324a57600080fd5b5051600480546040805163fc57d4df60e01b81526001600160a01b038a8116948201949094529051939450600093929091169163fc57d4df91602480820192602092909190829003018186803b1580156132a357600080fd5b505afa1580156132b7573d6000803e3d6000fd5b505050506040513d60208110156132cd57600080fd5b505190508115806132dc575080155b156132f157600d9350600092506133ea915050565b6000866001600160a01b031663182df0f56040518163ffffffff1660e01b815260040160206040518083038186803b15801561332c57600080fd5b505afa158015613340573d6000803e3d6000fd5b505050506040513d602081101561335657600080fd5b505190506000613364615b01565b61336c615b01565b613374615b01565b61339c604051806020016040528060065481525060405180602001604052808a8152506154e6565b92506133c46040518060200160405280888152506040518060200160405280888152506154e6565b91506133d08383615525565b90506133dc818b61528b565b600099509750505050505050505b935093915050565b601360209081526000928352604080842090915290825290205481565b60146020526000908152604090205481565b600a54600090600160b81b900460ff1615613475576040805162461bcd60e51b815260206004820152600f60248201526e1cd95a5e99481a5cc81c185d5cd959608a1b604482015290519081900360640190fd5b6001600160a01b03861660009081526009602052604090205460ff1615806134b657506001600160a01b03851660009081526009602052604090205460ff16155b156134c2576009612441565b846001600160a01b0316635fe3b5676040518163ffffffff1660e01b815260040160206040518083038186803b1580156134fb57600080fd5b505afa15801561350f573d6000803e3d6000fd5b505050506040513d602081101561352557600080fd5b505160408051635fe3b56760e01b815290516001600160a01b0392831692891691635fe3b567916004808301926020929190829003018186803b15801561356b57600080fd5b505afa15801561357f573d6000803e3d6000fd5b505050506040513d602081101561359557600080fd5b50516001600160a01b0316146135ac576002612441565b6135b586614dea565b6135bf868461508c565b6135c9868561508c565b60009695505050505050565b60196020526000908152604090205460ff1681565b6001600160a01b0383166000908152600c602052604081205460ff161561364b576040805162461bcd60e51b815260206004820152601060248201526f189bdc9c9bddc81a5cc81c185d5cd95960821b604482015290519081900360640190fd5b6001600160a01b03841660009081526009602052604090205460ff166136725760096120ab565b6001600160a01b038085166000908152600960209081526040808320938716835260039093019052205460ff1661376257336001600160a01b038516146136f8576040805162461bcd60e51b815260206004820152601560248201527439b2b73232b91036bab9ba1031329031aa37b5b2b760591b604482015290519081900360640190fd5b60006137043385615561565b9050600081601181111561371457fe5b1461372d5780601181111561372557fe5b915050611cff565b6001600160a01b038086166000908152600960209081526040808320938816835260039093019052205460ff1661376057fe5b505b600480546040805163fc57d4df60e01b81526001600160a01b03888116948201949094529051929091169163fc57d4df91602480820192602092909190829003018186803b1580156137b357600080fd5b505afa1580156137c7573d6000803e3d6000fd5b505050506040513d60208110156137dd57600080fd5b50516137ea57600d6120ab565b6001600160a01b03841660009081526019602052604090205460ff1615613878576001600160a01b0383166000908152601a602052604090205460ff16613878576040805162461bcd60e51b815260206004820152601b60248201527f426f72726f776572206973206e6f742077686974656c69737465640000000000604482015290519081900360640190fd5b6001600160a01b0384166000908152601660205260409020548015613965576000856001600160a01b03166347bd37186040518163ffffffff1660e01b815260040160206040518083038186803b1580156138d257600080fd5b505afa1580156138e6573d6000803e3d6000fd5b505050506040513d60208110156138fc57600080fd5b50519050600061390c8286615326565b9050828110613962576040805162461bcd60e51b815260206004820152601960248201527f6d61726b657420626f72726f7720636170207265616368656400000000000000604482015290519081900360640190fd5b50505b60008061397586886000886149b9565b9193509091506000905082601181111561398b57fe5b146139a65781601181111561399c57fe5b9350505050611cff565b80156139b357600461399c565b6139bb615b01565b6040518060200160405280896001600160a01b031663aa5af0fd6040518163ffffffff1660e01b815260040160206040518083038186803b1580156139ff57600080fd5b505afa158015613a13573d6000803e3d6000fd5b505050506040513d6020811015613a2957600080fd5b505190529050613a3a88888361439c565b600098975050505050505050565b60086020528160005260406000208181548110613a6157fe5b6000918252602090912001546001600160a01b03169150829050565b6003546001600160a01b031681565b73926df14a23be491164dcf93f4c468a50ef659d5b90565b600080546001600160a01b03163314613ac35761150760016006614336565b6001600160a01b0383166000908152600960205260409020805460ff16613af05761153b60096007614336565b613af8615b01565b506040805160208101909152838152613b0f615b01565b506040805160208101909152670c7d713b49da00008152613b308183615657565b15613b4b57613b4160066008614336565b93505050506115b5565b8415801590613bd45750600480546040805163fc57d4df60e01b81526001600160a01b038a8116948201949094529051929091169163fc57d4df91602480820192602092909190829003018186803b158015613ba657600080fd5b505afa158015613bba573d6000803e3d6000fd5b505050506040513d6020811015613bd057600080fd5b5051155b15613be557613b41600d6009614336565b60018301805490869055604080516001600160a01b03891681526020810183905280820188905290517f70483e6592cd5182d45ac970e05bc62cdcc90e9d8ef2c2dbe686cf383bcd7fc59181900360600190a16000979650505050505050565b600a54600160a81b900460ff1681565b60055481565b61191681600d805480602002602001604051908101604052809291908181526020018280548015613cb557602002820191906000526020600020905b81546001600160a01b03168152600190910190602001808311613c97575b5050505050611758565b600080613ccd85858561543a565b90508015613cdc579050611cff565b613ce585614dea565b613cef858561508c565b600095945050505050565b6000808290506000806000836001600160a01b031663c37f68e2336040518263ffffffff1660e01b815260040180826001600160a01b03166001600160a01b0316815260200191505060806040518083038186803b158015613d5b57600080fd5b505afa158015613d6f573d6000803e3d6000fd5b505050506040513d6080811015613d8557600080fd5b508051602082015160409092015190945090925090508215613dd85760405162461bcd60e51b8152600401808060200182810382526025815260200180615d056025913960400191505060405180910390fd5b8015613df557613dea600c6002614336565b945050505050611c54565b6000613e0287338561543a565b90508015613e2357613e17600e60038361565e565b95505050505050611c54565b6001600160a01b0385166000908152600960209081526040808320338452600381019092529091205460ff16613e625760009650505050505050611c54565b3360009081526003820160209081526040808320805460ff191690556008825291829020805483518184028101840190945280845260609392830182828015613ed457602002820191906000526020600020905b81546001600160a01b03168152600190910190602001808311613eb6575b5050835193945083925060009150505b82811015613f2957896001600160a01b0316848281518110613f0257fe5b60200260200101516001600160a01b03161415613f2157809150613f29565b600101613ee4565b50818110613f3357fe5b336000908152600860205260409020805481906000198101908110613f5457fe5b9060005260206000200160009054906101000a90046001600160a01b0316818381548110613f7e57fe5b600091825260209091200180546001600160a01b0319166001600160a01b03929092169190911790558054613fb7826000198301615b14565b50604080516001600160a01b038c16815233602082015281517fe699a64c18b07ac5b7301aa273f36a2287239eb9501d81950672794afba29a0d929181900390910190a160009c9b505050505050505050505050565b6060600083519050606081604051908082528060200260200182016040528015614041578160200160208202803883390190505b509050336001600160a01b03168560008151811061405b57fe5b60200260200101516001600160a01b03161480156140ad5750600960008660008151811061408557fe5b6020908102919091018101516001600160a01b031682528101919091526040016000205460ff165b1561410c57816001146140bf57600080fd5b6000856000815181106140ce57fe5b602002602001015190506140e28186615561565b60118111156140ed57fe5b826000815181106140fa57fe5b602002602001018181525050506119f6565b845160408051828152602080840282010190915260609082801561413a578160200160208202803883390190505b50905060005b8281101561419557600088828151811061415657fe5b6020026020010151905061416a8133615561565b601181111561417557fe5b83838151811061418157fe5b602090810291909101015250600101614140565b505050949350505050565b6000546001600160a01b031633146141e95760405162461bcd60e51b8152600401808060200182810382526029815260200180615ca76029913960400191505060405180910390fd5b828181158015906141f957508082145b61423a576040805162461bcd60e51b815260206004820152600d60248201526c1a5b9d985b1a59081a5b9c1d5d609a1b604482015290519081900360640190fd5b60005b828110156126e45784848281811061425157fe5b905060200201351515601a600089898581811061426a57fe5b905060200201356001600160a01b03166001600160a01b03166001600160a01b0316815260200190815260200160002060006101000a81548160ff0219169083151502179055508686828181106142bd57fe5b905060200201356001600160a01b03166001600160a01b03167ff8ccc4383c96e7994507db23f575d09dee79c80d522b953dbb53c3c9a3f970d386868481811061430357fe5b604080516020928302949094013515158452519283900301919050a260010161423d565b6000546001600160a01b031681565b60007f45b96fe442630264581b197e84bbada861235052c5a1aadfff9ea4e40a969aa083601181111561436557fe5b83601381111561437157fe5b604080519283526020830191909152600082820152519081900360600190a1826011811115611cff57fe5b6001600160a01b03831660009081526011602052604090206143bc615b01565b50604080516020810190915281546001600160e01b031681526143dd615b01565b5060408051602080820183526001600160a01b0380891660009081526013835284812091891680825282845294812080548552865195909152915291909155805115611fcf5761442b615b01565b61443583836156c4565b905060006144c4886001600160a01b03166395dd9193896040518263ffffffff1660e01b815260040180826001600160a01b03166001600160a01b0316815260200191505060206040518083038186803b15801561449257600080fd5b505afa1580156144a6573d6000803e3d6000fd5b505050506040513d60208110156144bc57600080fd5b5051876156e9565b905060006144d28284615707565b6001600160a01b038916600090815260146020526040812054919250906144f99083615326565b6001600160a01b03808b166000818152601460209081526040918290208590558a5182518881529182015281519495509193928e16927f1fc3ecc087d8d2d15e23d0032af5a47059c3892d003d8e139fdcb6bb327c99a69281900390910190a350505050505050505050565b600080546001600160a01b031633148061458957506002546001600160a01b031633145b905090565b600080614599612e40565b90506000816001600160a01b031663dd62ed3e6145b4613a8c565b604080516001600160e01b031960e085901b1681526001600160a01b039092166004830152306024830152516044808301926020929190829003018186803b1580156145ff57600080fd5b505afa158015614613573d6000803e3d6000fd5b505050506040513d602081101561462957600080fd5b5051905060006001600160a01b0383166370a08231614646613a8c565b6040518263ffffffff1660e01b815260040180826001600160a01b03166001600160a01b0316815260200191505060206040518083038186803b15801561468c57600080fd5b505afa1580156146a0573d6000803e3d6000fd5b505050506040513d60208110156146b657600080fd5b5051905060008183106146c957816146cb565b825b90506000861180156146dd5750808611155b1561478957836001600160a01b03166323b872dd6146f9613a8c565b604080516001600160e01b031960e085901b1681526001600160a01b039283166004820152918b166024830152604482018a90525160648083019260209291908290030181600087803b15801561474f57600080fd5b505af1158015614763573d6000803e3d6000fd5b505050506040513d602081101561477957600080fd5b50600095506115b5945050505050565b509395945050505050565b6001600160a01b0382166000908152600f602052604090205480156147c1576147bc83614dea565b61495d565b811561495d576001600160a01b0383166000908152600960205260409020805460ff16151560011461483a576040805162461bcd60e51b815260206004820152601960248201527f636f6d70206d61726b6574206973206e6f74206c697374656400000000000000604482015290519081900360640190fd5b6001600160a01b0384166000908152601060205260409020546001600160e01b031615801561488c57506001600160a01b038416600090815260106020526040902054600160e01b900463ffffffff16155b1561495b5760405180604001604052806ec097ce7bc90715b34b9f10000000006001600160e01b031681526020016149006148c5611f63565b6040518060400160405280601c81526020017f626c6f636b206e756d6265722065786365656473203332206269747300000000815250615736565b63ffffffff9081169091526001600160a01b0386166000908152601060209081526040909120835181549490920151909216600160e01b026001600160e01b039182166001600160e01b031990941693909317169190911790555b505b8181146117b5576001600160a01b0383166000818152600f6020908152604091829020859055815185815291517f2ab93f65628379309f36cb125e90d7c902454a545c4f8b8cb0794af75c24b8079281900390910190a2505050565b60008060006149c6615b38565b6001600160a01b03881660009081526008602090815260408083208054825181850281018501909352808352606093830182828015614a2e57602002820191906000526020600020905b81546001600160a01b03168152600190910190602001808311614a10575b50939450600093505050505b8151811015614dab576000828281518110614a5157fe5b60200260200101519050806001600160a01b031663c37f68e28d6040518263ffffffff1660e01b815260040180826001600160a01b03166001600160a01b0316815260200191505060806040518083038186803b158015614ab157600080fd5b505afa158015614ac5573d6000803e3d6000fd5b505050506040513d6080811015614adb57600080fd5b508051602082015160408084015160609485015160808b0152938901939093529187019190915293508315614b205750600f96506000955085945061201f9350505050565b60408051602080820183526001600160a01b0380851660008181526009808552868220600181015487526101a08d01969096528651808601885291839052845260029094015484526101c08a01939093528351808301855260808a015181526101e08a015260048054855163fc57d4df60e01b815291820194909452935192169263fc57d4df9260248083019392829003018186803b158015614bc257600080fd5b505afa158015614bd6573d6000803e3d6000fd5b505050506040513d6020811015614bec57600080fd5b505160a08601819052614c0f5750600d96506000955085945061201f9350505050565b6040805160208101825260a087015181526102008701526101e086015190860151614c3a919061528b565b60c086018190526101c0860151614c5991614c54906157d0565b61528b565b60e08601526101a0850151614c7690670de0b6b3a764000061528b565b61010086015260e0850151614c9090633b9aca00906152e4565b670de0b6b3a7640000908101610140870152670f43fc2c04ee00006101808701819052614ccc91614cc191906152e4565b866101400151615821565b6101608601819052610100860151614ce391615854565b610120860190815260408051602081019091529051815261024086018190526101e0860151614d2091614d15916154e6565b8661020001516154e6565b610220860181905260408601518651614d3a92919061586a565b855261020085015160608601516020870151614d5792919061586a565b60208601526001600160a01b03818116908c161415614da257614d848561022001518b876020015161586a565b60208601819052610200860151614d9c918b9061586a565b60208601525b50600101614a3a565b50602083015183511115614dd1575050602081015190516000945003915082905061201f565b505080516020909101516000945084935003905061201f565b6001600160a01b0381166000908152601060209081526040808320600f9092528220549091614e17611f63565b8354909150600090614e37908390600160e01b900463ffffffff166152aa565b9050600081118015614e495750600083115b15615021576000856001600160a01b03166318160ddd6040518163ffffffff1660e01b815260040160206040518083038186803b158015614e8957600080fd5b505afa158015614e9d573d6000803e3d6000fd5b505050506040513d6020811015614eb357600080fd5b505190506000614ec383866152e4565b9050614ecd615b01565b60008311614eea5760405180602001604052806000815250614ef4565b614ef48284615892565b9050614efe615b01565b604080516020810190915288546001600160e01b03168152614f2090836158c7565b90506040518060400160405280614f7083600001516040518060400160405280601a81526020017f6e657720696e64657820657863656564732032323420626974730000000000008152506158ec565b6001600160e01b03168152602001614fbd886040518060400160405280601c81526020017f626c6f636b206e756d6265722065786365656473203332206269747300000000815250615736565b63ffffffff9081169091526001600160a01b038b166000908152601060209081526040909120835181549490920151909216600160e01b026001600160e01b039182166001600160e01b031990941693909317169190911790555061192b92505050565b801561192b57615066826040518060400160405280601c81526020017f626c6f636b206e756d6265722065786365656473203332206269747300000000815250615736565b845463ffffffff91909116600160e01b026001600160e01b039091161784555050505050565b6001600160a01b03821660009081526010602052604090206150ac615b01565b50604080516020810190915281546001600160e01b031681526150cd615b01565b5060408051602080820183526001600160a01b0380881660009081526012835284812091881680825282845294812080548552865195909152915291909155805115801561511b5750815115155b15615133576ec097ce7bc90715b34b9f100000000081525b61513b615b01565b61514583836156c4565b90506000866001600160a01b03166370a08231876040518263ffffffff1660e01b815260040180826001600160a01b03166001600160a01b0316815260200191505060206040518083038186803b15801561519f57600080fd5b505afa1580156151b3573d6000803e3d6000fd5b505050506040513d60208110156151c957600080fd5b5051905060006151d98284615707565b6001600160a01b038816600090815260146020526040812054919250906152009083615326565b6001600160a01b03808a166000818152601460209081526040918290208590558a5182518881529182015281519495509193928d16927f2caecd17d02f56fa897705dcc740da2d237c373f70686f4e0d9bd3bf0400ea7a9281900390910190a3505050505050505050565b600080600061527e8460008060006149b9565b9250925092509193909250565b6000615295615b01565b61529f8484615941565b90506119f681615962565b6000611cff8383604051806040016040528060158152602001747375627472616374696f6e20756e646572666c6f7760581b815250615971565b6000611cff83836040518060400160405280601781526020017f6d756c7469706c69636174696f6e206f766572666c6f770000000000000000008152506159cb565b6000611cff8383604051806040016040528060118152602001706164646974696f6e206f766572666c6f7760781b815250615a4a565b60005b600d548110156153e757816001600160a01b0316600d828154811061538057fe5b6000918252602090912001546001600160a01b031614156153df576040805162461bcd60e51b81526020600482015260146024820152731b585c9ad95d08185b1c9958591e48185919195960621b604482015290519081900360640190fd5b60010161535f565b50600d80546001810182556000919091527fd7b6990105719101dabeb77144f2a3385c8033acd3af97e9423a695e81ad1eb50180546001600160a01b0319166001600160a01b0392909216919091179055565b6001600160a01b03831660009081526009602052604081205460ff166154615760096120ab565b6001600160a01b038085166000908152600960209081526040808320938716835260039093019052205460ff166154995760006120ab565b6000806154a985878660006149b9565b919350909150600090508260118111156154bf57fe5b146154d9578160118111156154d057fe5b92505050611cff565b80156135c95760046154d0565b6154ee615b01565b6040518060200160405280670de0b6b3a7640000615514866000015186600001516152e4565b8161551b57fe5b0490529392505050565b61552d615b01565b60405180602001604052806155586155518660000151670de0b6b3a76400006152e4565b8551615821565b90529392505050565b6001600160a01b0382166000908152600960205260408120805460ff1661558c5760099150506115b5565b6001600160a01b038316600090815260038201602052604090205460ff161515600114156155be5760009150506115b5565b6001600160a01b0380841660008181526003840160209081526040808320805460ff19166001908117909155600883528184208054918201815584529282902090920180549489166001600160a01b031990951685179055815193845283019190915280517f3ab23ab0d51cccc0c3085aec51f99228625aa1a922b3a8ca89a26b0f2027a1a59281900390910190a15060009392505050565b5190511090565b60007f45b96fe442630264581b197e84bbada861235052c5a1aadfff9ea4e40a969aa084601181111561568d57fe5b84601381111561569957fe5b604080519283526020830191909152818101859052519081900360600190a18360118111156119f657fe5b6156cc615b01565b6040518060200160405280615558856000015185600001516152aa565b6000611cff61570084670de0b6b3a76400006152e4565b8351615821565b60006ec097ce7bc90715b34b9f10000000006157278484600001516152e4565b8161572e57fe5b049392505050565b600081600160201b84106157c85760405162461bcd60e51b81526004018080602001828103825283818151815260200191508051906020019080838360005b8381101561578d578181015183820152602001615775565b50505050905090810190601f1680156157ba5780820380516001836020036101000a031916815260200191505b509250505060405180910390fd5b509192915050565b60006003821115615813575080600160028204015b8181101561580d578091506002818285816157fc57fe5b04018161580557fe5b0490506157e5565b50611c54565b8115611c5457506001919050565b6000611cff83836040518060400160405280600e81526020016d646976696465206279207a65726f60901b815250615a9f565b60008183106158635781611cff565b5090919050565b6000615874615b01565b61587e8585615941565b905061255461588c82615962565b84615326565b61589a615b01565b60405180602001604052806155586158c1866ec097ce7bc90715b34b9f10000000006152e4565b85615821565b6158cf615b01565b604051806020016040528061555885600001518560000151615326565b600081600160e01b84106157c85760405162461bcd60e51b815260206004820181815283516024840152835190928392604490910191908501908083836000831561578d578181015183820152602001615775565b615949615b01565b60405180602001604052806155588560000151856152e4565b51670de0b6b3a7640000900490565b600081848411156159c35760405162461bcd60e51b815260206004820181815283516024840152835190928392604490910191908501908083836000831561578d578181015183820152602001615775565b505050900390565b60008315806159d8575082155b156159e557506000611cff565b838302838582816159f257fe5b04148390615a415760405162461bcd60e51b815260206004820181815283516024840152835190928392604490910191908501908083836000831561578d578181015183820152602001615775565b50949350505050565b60008383018285821015615a415760405162461bcd60e51b815260206004820181815283516024840152835190928392604490910191908501908083836000831561578d578181015183820152602001615775565b60008183615aee5760405162461bcd60e51b815260206004820181815283516024840152835190928392604490910191908501908083836000831561578d578181015183820152602001615775565b50828481615af857fe5b04949350505050565b6040518060200160405280600081525090565b8154818355818111156117b5576000838152602090206117b5918101908301615bed565b60405180610260016040528060008152602001600081526020016000815260200160008152602001600081526020016000815260200160008152602001600081526020016000815260200160008152602001600081526020016000815260200160008152602001615ba7615b01565b8152602001615bb4615b01565b8152602001615bc1615b01565b8152602001615bce615b01565b8152602001615bdb615b01565b8152602001615be8615b01565b905290565b611f6591905b80821115615c075760008155600101615bf3565b509056fe63616e6e6f742070617573652061206d61726b65742074686174206973206e6f74206c69737465646f6e6c7920706175736520677561726469616e20616e642061646d696e2063616e2070617573656f6e6c792061646d696e2063616e2073657420626f72726f772063617020677561726469616e6f6e6c792061646d696e2063616e2073657420626f72726f77207265737472696374696f6e736f6e6c792061646d696e2063616e2061646420757365727320746f207468652077686974656c6973746f6e6c792061646d696e206f7220626f72726f772063617020677561726469616e2063616e2073657420626f72726f772063617073657869744d61726b65743a206765744163636f756e74536e617073686f74206661696c65646f6e6c7920756e6974726f6c6c65722061646d696e2063616e206368616e676520627261696e73a265627a7a723158209003ed695be4e950aa4996f967dea69cfaa594b576f55e4868390cdf361e5c1764736f6c63430005100032",
  "devdoc": {
    "author": "Compound",
    "methods": {
      "_addToWhitelist(address[],bool[])": {
        "details": "Admin function to add users to the whitelist. A whitelisted value of \"true\" means that a user is whitelisted and can borrow restricted assets.",
        "params": {
          "account": "The addresses users that are added to the whitelist.",
          "whitelisted": "If true, then the user is added to the whitelist. If false, the user is removed."
        }
      },
      "_grantComp(address,uint256)": {
        "details": "Note: If there is not enough COMP, we do not perform the transfer all.",
        "params": {
          "amount": "The amount of COMP to (possibly) transfer",
          "recipient": "The address of the recipient to transfer COMP to"
        }
      },
      "_setBorrowCapGuardian(address)": {
        "params": {
          "newBorrowCapGuardian": "The address of the new Borrow Cap Guardian"
        }
      },
      "_setBorrowRestriction(address[],bool[])": {
        "details": "Admin function to set the borrowing restriction. A borrow restriction of \"true\" means that a user needs to be whitelisted in order to borrow the underlying asset.",
        "params": {
          "borrowRestrictions": "If true, then the cToken market can only be borrowed by whitelisted accounts",
          "cTokens": "The addresses of the markets (tokens) to change the restriction for"
        }
      },
      "_setCloseFactor(uint256)": {
        "details": "Admin function to set closeFactor",
        "params": {
          "newCloseFactorMantissa": "New close factor, scaled by 1e18"
        },
        "return": "uint 0=success, otherwise a failure"
      },
      "_setCollateralFactor(address,uint256)": {
        "details": "Admin function to set per-market collateralFactor",
        "params": {
          "cToken": "The market to set the factor on",
          "newCollateralFactorMantissa": "The new collateral factor, scaled by 1e18"
        },
        "return": "uint 0=success, otherwise a failure. (See ErrorReporter for details)"
      },
      "_setCompSpeed(address,uint256)": {
        "params": {
          "cToken": "The market whose COMP speed to update",
          "compSpeed": "New COMP speed for market"
        }
      },
      "_setContributorCompSpeed(address,uint256)": {
        "params": {
          "compSpeed": "New COMP speed for contributor",
          "contributor": "The contributor whose COMP speed to update"
        }
      },
      "_setIMFFactor(address,uint256)": {
        "details": "Admin function to set per-market collateralFactor",
        "params": {
          "cToken": "The market to set the factor on",
          "newimfFactorMantissa": "The new collateral factor, scaled by 1e18"
        },
        "return": "uint 0=success, otherwise a failure. (See ErrorReporter for details)"
      },
      "_setLiquidationIncentive(uint256)": {
        "details": "Admin function to set liquidationIncentive",
        "params": {
          "newLiquidationIncentiveMantissa": "New liquidationIncentive scaled by 1e18"
        },
        "return": "uint 0=success, otherwise a failure. (See ErrorReporter for details)"
      },
      "_setMarketBorrowCaps(address[],uint256[])": {
        "details": "Admin or borrowCapGuardian function to set the borrow caps. A borrow cap of 0 corresponds to unlimited borrowing.",
        "params": {
          "cTokens": "The addresses of the markets (tokens) to change the borrow caps for.",
          "newBorrowCaps": "The new borrow cap values in underlying to be set. A value of 0 corresponds to unlimited borrowing."
        }
      },
      "_setPauseGuardian(address)": {
        "params": {
          "newPauseGuardian": "The address of the new Pause Guardian"
        },
        "return": "uint 0=success, otherwise a failure. (See enum Error for details)"
      },
      "_setPriceOracle(address)": {
        "details": "Admin function to set a new price oracle",
        "return": "uint 0=success, otherwise a failure (see ErrorReporter.sol for details)"
      },
      "_supportMarket(address)": {
        "details": "Admin function to set isListed and add support for the market",
        "params": {
          "cToken": "The address of the market (token) to list"
        },
        "return": "uint 0=success, otherwise a failure. (See enum Error for details)"
      },
      "borrowAllowed(address,address,uint256)": {
        "params": {
          "borrowAmount": "The amount of underlying the account would borrow",
          "borrower": "The account which would borrow the asset",
          "cToken": "The market to verify the borrow against"
        },
        "return": "0 if the borrow is allowed, otherwise a semi-opaque error code (See ErrorReporter.sol)"
      },
      "borrowVerify(address,address,uint256)": {
        "params": {
          "borrowAmount": "The amount of the underlying asset requested to borrow",
          "borrower": "The address borrowing the underlying",
          "cToken": "Asset whose underlying is being borrowed"
        }
      },
      "checkMembership(address,address)": {
        "params": {
          "account": "The address of the account to check",
          "cToken": "The cToken to check"
        },
        "return": "True if the account is in the asset, otherwise false."
      },
      "claimComp(address)": {
        "params": {
          "holder": "The address to claim COMP for"
        }
      },
      "claimComp(address,address[])": {
        "params": {
          "cTokens": "The list of markets to claim COMP in",
          "holder": "The address to claim COMP for"
        }
      },
      "claimComp(address[],address[],bool,bool)": {
        "params": {
          "borrowers": "Whether or not to claim COMP earned by borrowing",
          "cTokens": "The list of markets to claim COMP in",
          "holders": "The addresses to claim COMP for",
          "suppliers": "Whether or not to claim COMP earned by supplying"
        }
      },
      "enterMarkets(address[],address)": {
        "params": {
          "borrower": "Optional parameter that is only used when a cToken calls this function",
          "cTokens": "The list of addresses of the cToken markets to be enabled"
        },
        "return": "Success indicator for whether each corresponding market was entered"
      },
      "exitMarket(address)": {
        "details": "Sender must not have an outstanding borrow balance in the asset, or be providing necessary collateral for an outstanding borrow.",
        "params": {
          "cTokenAddress": "The address of the asset to be removed"
        },
        "return": "Whether or not the account successfully exited the market"
      },
      "getAccountLiquidity(address)": {
        "return": "(possible error code (semi-opaque), account liquidity in excess of collateral requirements,         account shortfall below collateral requirements)"
      },
      "getAllMarkets()": {
        "details": "The automatic getter may be used to access an individual market.",
        "return": "The list of market addresses"
      },
      "getAssetsIn(address)": {
        "params": {
          "account": "The address of the account to pull assets for"
        },
        "return": "A dynamic list with the assets the account has entered"
      },
      "getCompAddress()": {
        "return": "The address of Rock"
      },
      "getHypotheticalAccountLiquidity(address,address,uint256,uint256)": {
        "params": {
          "account": "The account to determine liquidity for",
          "borrowAmount": "The amount of underlying to hypothetically borrow",
          "cTokenModify": "The market to hypothetically redeem/borrow in",
          "redeemTokens": "The number of tokens to hypothetically redeem"
        },
        "return": "(possible error code (semi-opaque), hypothetical account liquidity in excess of collateral requirements,         hypothetical account shortfall below collateral requirements)"
      },
      "getTreasuryAddress()": {
        "return": "The address of treasury"
      },
      "getXRockAddress()": {
        "return": "The address of xRock"
      },
      "liquidateBorrowAllowed(address,address,address,address,uint256)": {
        "params": {
          "borrower": "The address of the borrower",
          "cTokenBorrowed": "Asset which was borrowed by the borrower",
          "cTokenCollateral": "Asset which was used as collateral and will be seized",
          "liquidator": "The address repaying the borrow and seizing the collateral",
          "repayAmount": "The amount of underlying being repaid"
        }
      },
      "liquidateBorrowVerify(address,address,address,address,uint256,uint256)": {
        "params": {
          "actualRepayAmount": "The amount of underlying being repaid",
          "borrower": "The address of the borrower",
          "cTokenBorrowed": "Asset which was borrowed by the borrower",
          "cTokenCollateral": "Asset which was used as collateral and will be seized",
          "liquidator": "The address repaying the borrow and seizing the collateral"
        }
      },
      "liquidateCalculateSeizeTokens(address,address,uint256)": {
        "details": "Used in liquidation (called in cToken.liquidateBorrowFresh)",
        "params": {
          "actualRepayAmount": "The amount of cTokenBorrowed underlying to convert into cTokenCollateral tokens",
          "cTokenBorrowed": "The address of the borrowed cToken",
          "cTokenCollateral": "The address of the collateral cToken"
        },
        "return": "(errorCode, number of cTokenCollateral tokens to be seized in a liquidation)"
      },
      "mintAllowed(address,address,uint256)": {
        "params": {
          "cToken": "The market to verify the mint against",
          "mintAmount": "The amount of underlying being supplied to the market in exchange for tokens",
          "minter": "The account which would get the minted tokens"
        },
        "return": "0 if the mint is allowed, otherwise a semi-opaque error code (See ErrorReporter.sol)"
      },
      "mintVerify(address,address,uint256,uint256)": {
        "params": {
          "actualMintAmount": "The amount of the underlying asset being minted",
          "cToken": "Asset being minted",
          "mintTokens": "The number of tokens being minted",
          "minter": "The address minting the tokens"
        }
      },
      "redeemAllowed(address,address,uint256)": {
        "params": {
          "cToken": "The market to verify the redeem against",
          "redeemTokens": "The number of cTokens to exchange for the underlying asset in the market",
          "redeemer": "The account which would redeem the tokens"
        },
        "return": "0 if the redeem is allowed, otherwise a semi-opaque error code (See ErrorReporter.sol)"
      },
      "redeemVerify(address,address,uint256,uint256)": {
        "params": {
          "cToken": "Asset being redeemed",
          "redeemAmount": "The amount of the underlying asset being redeemed",
          "redeemTokens": "The number of tokens being redeemed",
          "redeemer": "The address redeeming the tokens"
        }
      },
      "repayBorrowAllowed(address,address,address,uint256)": {
        "params": {
          "borrower": "The account which would borrowed the asset",
          "cToken": "The market to verify the repay against",
          "payer": "The account which would repay the asset",
          "repayAmount": "The amount of the underlying asset the account would repay"
        },
        "return": "0 if the repay is allowed, otherwise a semi-opaque error code (See ErrorReporter.sol)"
      },
      "repayBorrowVerify(address,address,address,uint256,uint256)": {
        "params": {
          "actualRepayAmount": "The amount of underlying being repaid",
          "borrower": "The address of the borrower",
          "cToken": "Asset being repaid",
          "payer": "The address repaying the borrow"
        }
      },
      "seizeAllowed(address,address,address,address,uint256)": {
        "params": {
          "borrower": "The address of the borrower",
          "cTokenBorrowed": "Asset which was borrowed by the borrower",
          "cTokenCollateral": "Asset which was used as collateral and will be seized",
          "liquidator": "The address repaying the borrow and seizing the collateral",
          "seizeTokens": "The number of collateral tokens to seize"
        }
      },
      "seizeVerify(address,address,address,address,uint256)": {
        "params": {
          "borrower": "The address of the borrower",
          "cTokenBorrowed": "Asset which was borrowed by the borrower",
          "cTokenCollateral": "Asset which was used as collateral and will be seized",
          "liquidator": "The address repaying the borrow and seizing the collateral",
          "seizeTokens": "The number of collateral tokens to seize"
        }
      },
      "transferAllowed(address,address,address,uint256)": {
        "params": {
          "cToken": "The market to verify the transfer against",
          "dst": "The account which receives the tokens",
          "src": "The account which sources the tokens",
          "transferTokens": "The number of cTokens to transfer"
        },
        "return": "0 if the transfer is allowed, otherwise a semi-opaque error code (See ErrorReporter.sol)"
      },
      "transferVerify(address,address,address,uint256)": {
        "params": {
          "cToken": "Asset being transferred",
          "dst": "The account which receives the tokens",
          "src": "The account which sources the tokens",
          "transferTokens": "The number of cTokens to transfer"
        }
      },
      "updateContributorRewards(address)": {
        "params": {
          "contributor": "The address to calculate contributor rewards for"
        }
      }
    },
    "title": "Compound's Comptroller Contract"
  },
  "userdoc": {
    "methods": {
      "_addToWhitelist(address[],bool[])": {
        "notice": "Add users to the whitelist, which allows for the borrowing of restricted assets."
      },
      "_grantComp(address,uint256)": {
        "notice": "Transfer COMP to the recipient"
      },
      "_setBorrowCapGuardian(address)": {
        "notice": "Admin function to change the Borrow Cap Guardian"
      },
      "_setBorrowRestriction(address[],bool[])": {
        "notice": "Set the given borrow restriction for the given cToken markets."
      },
      "_setCloseFactor(uint256)": {
        "notice": "Sets the closeFactor used when liquidating borrows"
      },
      "_setCollateralFactor(address,uint256)": {
        "notice": "Sets the collateralFactor for a market"
      },
      "_setCompSpeed(address,uint256)": {
        "notice": "Set COMP speed for a single market"
      },
      "_setContributorCompSpeed(address,uint256)": {
        "notice": "Set COMP speed for a single contributor"
      },
      "_setIMFFactor(address,uint256)": {
        "notice": "Sets the collateralFactor for a market"
      },
      "_setLiquidationIncentive(uint256)": {
        "notice": "Sets liquidationIncentive"
      },
      "_setMarketBorrowCaps(address[],uint256[])": {
        "notice": "Set the given borrow caps for the given cToken markets. Borrowing that brings total borrows to or above borrow cap will revert."
      },
      "_setPauseGuardian(address)": {
        "notice": "Admin function to change the Pause Guardian"
      },
      "_setPriceOracle(address)": {
        "notice": "Sets a new price oracle for the comptroller"
      },
      "_supportMarket(address)": {
        "notice": "Add the market to the markets mapping and set it as listed"
      },
      "borrowAllowed(address,address,uint256)": {
        "notice": "Checks if the account should be allowed to borrow the underlying asset of the given market"
      },
      "borrowVerify(address,address,uint256)": {
        "notice": "Validates borrow and reverts on rejection. May emit logs."
      },
      "checkMembership(address,address)": {
        "notice": "Returns whether the given account is entered in the given asset"
      },
      "claimComp(address)": {
        "notice": "Claim all the comp accrued by holder in all markets"
      },
      "claimComp(address,address[])": {
        "notice": "Claim all the comp accrued by holder in the specified markets"
      },
      "claimComp(address[],address[],bool,bool)": {
        "notice": "Claim all comp accrued by the holders"
      },
      "enterMarkets(address[],address)": {
        "notice": "Add assets to be included in account liquidity calculation"
      },
      "exitMarket(address)": {
        "notice": "Removes asset from sender's account liquidity calculation"
      },
      "getAccountLiquidity(address)": {
        "notice": "Determine the current account liquidity wrt collateral requirements"
      },
      "getAllMarkets()": {
        "notice": "Return all of the markets"
      },
      "getAssetsIn(address)": {
        "notice": "Returns the assets an account has entered"
      },
      "getCompAddress()": {
        "notice": "Return the address of the Rock token"
      },
      "getHypotheticalAccountLiquidity(address,address,uint256,uint256)": {
        "notice": "Determine what the account liquidity would be if the given amounts were redeemed/borrowed"
      },
      "getTreasuryAddress()": {
        "notice": "Return the address of the Rock treasury"
      },
      "getXRockAddress()": {
        "notice": "Return the address of the xRock market"
      },
      "liquidateBorrowAllowed(address,address,address,address,uint256)": {
        "notice": "Checks if the liquidation should be allowed to occur"
      },
      "liquidateBorrowVerify(address,address,address,address,uint256,uint256)": {
        "notice": "Validates liquidateBorrow and reverts on rejection. May emit logs."
      },
      "liquidateCalculateSeizeTokens(address,address,uint256)": {
        "notice": "Calculate number of tokens of collateral asset to seize given an underlying amount"
      },
      "mintAllowed(address,address,uint256)": {
        "notice": "Checks if the account should be allowed to mint tokens in the given market"
      },
      "mintVerify(address,address,uint256,uint256)": {
        "notice": "Validates mint and reverts on rejection. May emit logs."
      },
      "redeemAllowed(address,address,uint256)": {
        "notice": "Checks if the account should be allowed to redeem tokens in the given market"
      },
      "redeemVerify(address,address,uint256,uint256)": {
        "notice": "Validates redeem and reverts on rejection. May emit logs."
      },
      "repayBorrowAllowed(address,address,address,uint256)": {
        "notice": "Checks if the account should be allowed to repay a borrow in the given market"
      },
      "repayBorrowVerify(address,address,address,uint256,uint256)": {
        "notice": "Validates repayBorrow and reverts on rejection. May emit logs."
      },
      "seizeAllowed(address,address,address,address,uint256)": {
        "notice": "Checks if the seizing of assets should be allowed to occur"
      },
      "seizeVerify(address,address,address,address,uint256)": {
        "notice": "Validates seize and reverts on rejection. May emit logs."
      },
      "transferAllowed(address,address,address,uint256)": {
        "notice": "Checks if the account should be allowed to transfer tokens in the given market"
      },
      "transferVerify(address,address,address,uint256)": {
        "notice": "Validates transfer and reverts on rejection. May emit logs."
      },
      "updateContributorRewards(address)": {
        "notice": "Calculate additional accrued COMP for a contributor since last accrual"
      }
    }
  },
  "storageLayout": {
    "storage": [
      {
        "astId": 14259,
        "contract": "contracts/markets/Comptroller/Comptroller.sol:Comptroller",
        "label": "admin",
        "offset": 0,
        "slot": "0",
        "type": "t_address"
      },
      {
        "astId": 14261,
        "contract": "contracts/markets/Comptroller/Comptroller.sol:Comptroller",
        "label": "pendingAdmin",
        "offset": 0,
        "slot": "1",
        "type": "t_address"
      },
      {
        "astId": 14263,
        "contract": "contracts/markets/Comptroller/Comptroller.sol:Comptroller",
        "label": "comptrollerImplementation",
        "offset": 0,
        "slot": "2",
        "type": "t_address"
      },
      {
        "astId": 14265,
        "contract": "contracts/markets/Comptroller/Comptroller.sol:Comptroller",
        "label": "pendingComptrollerImplementation",
        "offset": 0,
        "slot": "3",
        "type": "t_address"
      },
      {
        "astId": 14270,
        "contract": "contracts/markets/Comptroller/Comptroller.sol:Comptroller",
        "label": "oracle",
        "offset": 0,
        "slot": "4",
        "type": "t_contract(PriceOracle)1361"
      },
      {
        "astId": 14272,
        "contract": "contracts/markets/Comptroller/Comptroller.sol:Comptroller",
        "label": "closeFactorMantissa",
        "offset": 0,
        "slot": "5",
        "type": "t_uint256"
      },
      {
        "astId": 14274,
        "contract": "contracts/markets/Comptroller/Comptroller.sol:Comptroller",
        "label": "liquidationIncentiveMantissa",
        "offset": 0,
        "slot": "6",
        "type": "t_uint256"
      },
      {
        "astId": 14276,
        "contract": "contracts/markets/Comptroller/Comptroller.sol:Comptroller",
        "label": "maxAssets",
        "offset": 0,
        "slot": "7",
        "type": "t_uint256"
      },
      {
        "astId": 14281,
        "contract": "contracts/markets/Comptroller/Comptroller.sol:Comptroller",
        "label": "accountAssets",
        "offset": 0,
        "slot": "8",
        "type": "t_mapping(t_address,t_array(t_contract(CToken)10074)dyn_storage)"
      },
      {
        "astId": 14301,
        "contract": "contracts/markets/Comptroller/Comptroller.sol:Comptroller",
        "label": "markets",
        "offset": 0,
        "slot": "9",
        "type": "t_mapping(t_address,t_struct(Market)14297_storage)"
      },
      {
        "astId": 14303,
        "contract": "contracts/markets/Comptroller/Comptroller.sol:Comptroller",
        "label": "pauseGuardian",
        "offset": 0,
        "slot": "10",
        "type": "t_address"
      },
      {
        "astId": 14305,
        "contract": "contracts/markets/Comptroller/Comptroller.sol:Comptroller",
        "label": "_mintGuardianPaused",
        "offset": 20,
        "slot": "10",
        "type": "t_bool"
      },
      {
        "astId": 14307,
        "contract": "contracts/markets/Comptroller/Comptroller.sol:Comptroller",
        "label": "_borrowGuardianPaused",
        "offset": 21,
        "slot": "10",
        "type": "t_bool"
      },
      {
        "astId": 14309,
        "contract": "contracts/markets/Comptroller/Comptroller.sol:Comptroller",
        "label": "transferGuardianPaused",
        "offset": 22,
        "slot": "10",
        "type": "t_bool"
      },
      {
        "astId": 14311,
        "contract": "contracts/markets/Comptroller/Comptroller.sol:Comptroller",
        "label": "seizeGuardianPaused",
        "offset": 23,
        "slot": "10",
        "type": "t_bool"
      },
      {
        "astId": 14315,
        "contract": "contracts/markets/Comptroller/Comptroller.sol:Comptroller",
        "label": "mintGuardianPaused",
        "offset": 0,
        "slot": "11",
        "type": "t_mapping(t_address,t_bool)"
      },
      {
        "astId": 14319,
        "contract": "contracts/markets/Comptroller/Comptroller.sol:Comptroller",
        "label": "borrowGuardianPaused",
        "offset": 0,
        "slot": "12",
        "type": "t_mapping(t_address,t_bool)"
      },
      {
        "astId": 14330,
        "contract": "contracts/markets/Comptroller/Comptroller.sol:Comptroller",
        "label": "allMarkets",
        "offset": 0,
        "slot": "13",
        "type": "t_array(t_contract(CToken)10074)dyn_storage"
      },
      {
        "astId": 14332,
        "contract": "contracts/markets/Comptroller/Comptroller.sol:Comptroller",
        "label": "compRate",
        "offset": 0,
        "slot": "14",
        "type": "t_uint256"
      },
      {
        "astId": 14336,
        "contract": "contracts/markets/Comptroller/Comptroller.sol:Comptroller",
        "label": "compSpeeds",
        "offset": 0,
        "slot": "15",
        "type": "t_mapping(t_address,t_uint256)"
      },
      {
        "astId": 14340,
        "contract": "contracts/markets/Comptroller/Comptroller.sol:Comptroller",
        "label": "compSupplyState",
        "offset": 0,
        "slot": "16",
        "type": "t_mapping(t_address,t_struct(CompMarketState)14327_storage)"
      },
      {
        "astId": 14344,
        "contract": "contracts/markets/Comptroller/Comptroller.sol:Comptroller",
        "label": "compBorrowState",
        "offset": 0,
        "slot": "17",
        "type": "t_mapping(t_address,t_struct(CompMarketState)14327_storage)"
      },
      {
        "astId": 14350,
        "contract": "contracts/markets/Comptroller/Comptroller.sol:Comptroller",
        "label": "compSupplierIndex",
        "offset": 0,
        "slot": "18",
        "type": "t_mapping(t_address,t_mapping(t_address,t_uint256))"
      },
      {
        "astId": 14356,
        "contract": "contracts/markets/Comptroller/Comptroller.sol:Comptroller",
        "label": "compBorrowerIndex",
        "offset": 0,
        "slot": "19",
        "type": "t_mapping(t_address,t_mapping(t_address,t_uint256))"
      },
      {
        "astId": 14360,
        "contract": "contracts/markets/Comptroller/Comptroller.sol:Comptroller",
        "label": "compAccrued",
        "offset": 0,
        "slot": "20",
        "type": "t_mapping(t_address,t_uint256)"
      },
      {
        "astId": 14365,
        "contract": "contracts/markets/Comptroller/Comptroller.sol:Comptroller",
        "label": "borrowCapGuardian",
        "offset": 0,
        "slot": "21",
        "type": "t_address"
      },
      {
        "astId": 14369,
        "contract": "contracts/markets/Comptroller/Comptroller.sol:Comptroller",
        "label": "borrowCaps",
        "offset": 0,
        "slot": "22",
        "type": "t_mapping(t_address,t_uint256)"
      },
      {
        "astId": 14376,
        "contract": "contracts/markets/Comptroller/Comptroller.sol:Comptroller",
        "label": "compContributorSpeeds",
        "offset": 0,
        "slot": "23",
        "type": "t_mapping(t_address,t_uint256)"
      },
      {
        "astId": 14380,
        "contract": "contracts/markets/Comptroller/Comptroller.sol:Comptroller",
        "label": "lastContributorBlock",
        "offset": 0,
        "slot": "24",
        "type": "t_mapping(t_address,t_uint256)"
      },
      {
        "astId": 14387,
        "contract": "contracts/markets/Comptroller/Comptroller.sol:Comptroller",
        "label": "borrowRestricted",
        "offset": 0,
        "slot": "25",
        "type": "t_mapping(t_address,t_bool)"
      },
      {
        "astId": 14391,
        "contract": "contracts/markets/Comptroller/Comptroller.sol:Comptroller",
        "label": "borrowWhitelist",
        "offset": 0,
        "slot": "26",
        "type": "t_mapping(t_address,t_bool)"
      }
    ],
    "types": {
      "t_address": {
        "encoding": "inplace",
        "label": "address",
        "numberOfBytes": "20"
      },
      "t_array(t_contract(CToken)10074)dyn_storage": {
        "base": "t_contract(CToken)10074",
        "encoding": "dynamic_array",
        "label": "contract CToken[]",
        "numberOfBytes": "32"
      },
      "t_bool": {
        "encoding": "inplace",
        "label": "bool",
        "numberOfBytes": "1"
      },
      "t_contract(CToken)10074": {
        "encoding": "inplace",
        "label": "contract CToken",
        "numberOfBytes": "20"
      },
      "t_contract(PriceOracle)1361": {
        "encoding": "inplace",
        "label": "contract PriceOracle",
        "numberOfBytes": "20"
      },
      "t_mapping(t_address,t_array(t_contract(CToken)10074)dyn_storage)": {
        "encoding": "mapping",
        "key": "t_address",
        "label": "mapping(address => contract CToken[])",
        "numberOfBytes": "32",
        "value": "t_array(t_contract(CToken)10074)dyn_storage"
      },
      "t_mapping(t_address,t_bool)": {
        "encoding": "mapping",
        "key": "t_address",
        "label": "mapping(address => bool)",
        "numberOfBytes": "32",
        "value": "t_bool"
      },
      "t_mapping(t_address,t_mapping(t_address,t_uint256))": {
        "encoding": "mapping",
        "key": "t_address",
        "label": "mapping(address => mapping(address => uint256))",
        "numberOfBytes": "32",
        "value": "t_mapping(t_address,t_uint256)"
      },
      "t_mapping(t_address,t_struct(CompMarketState)14327_storage)": {
        "encoding": "mapping",
        "key": "t_address",
        "label": "mapping(address => struct ComptrollerV3Storage.CompMarketState)",
        "numberOfBytes": "32",
        "value": "t_struct(CompMarketState)14327_storage"
      },
      "t_mapping(t_address,t_struct(Market)14297_storage)": {
        "encoding": "mapping",
        "key": "t_address",
        "label": "mapping(address => struct ComptrollerV2Storage.Market)",
        "numberOfBytes": "32",
        "value": "t_struct(Market)14297_storage"
      },
      "t_mapping(t_address,t_uint256)": {
        "encoding": "mapping",
        "key": "t_address",
        "label": "mapping(address => uint256)",
        "numberOfBytes": "32",
        "value": "t_uint256"
      },
      "t_struct(CompMarketState)14327_storage": {
        "encoding": "inplace",
        "label": "struct ComptrollerV3Storage.CompMarketState",
        "members": [
          {
            "astId": 14324,
            "contract": "contracts/markets/Comptroller/Comptroller.sol:Comptroller",
            "label": "index",
            "offset": 0,
            "slot": "0",
            "type": "t_uint224"
          },
          {
            "astId": 14326,
            "contract": "contracts/markets/Comptroller/Comptroller.sol:Comptroller",
            "label": "block",
            "offset": 28,
            "slot": "0",
            "type": "t_uint32"
          }
        ],
        "numberOfBytes": "32"
      },
      "t_struct(Market)14297_storage": {
        "encoding": "inplace",
        "label": "struct ComptrollerV2Storage.Market",
        "members": [
          {
            "astId": 14286,
            "contract": "contracts/markets/Comptroller/Comptroller.sol:Comptroller",
            "label": "isListed",
            "offset": 0,
            "slot": "0",
            "type": "t_bool"
          },
          {
            "astId": 14288,
            "contract": "contracts/markets/Comptroller/Comptroller.sol:Comptroller",
            "label": "collateralFactorMantissa",
            "offset": 0,
            "slot": "1",
            "type": "t_uint256"
          },
          {
            "astId": 14290,
            "contract": "contracts/markets/Comptroller/Comptroller.sol:Comptroller",
            "label": "imfFactorMantissa",
            "offset": 0,
            "slot": "2",
            "type": "t_uint256"
          },
          {
            "astId": 14294,
            "contract": "contracts/markets/Comptroller/Comptroller.sol:Comptroller",
            "label": "accountMembership",
            "offset": 0,
            "slot": "3",
            "type": "t_mapping(t_address,t_bool)"
          },
          {
            "astId": 14296,
            "contract": "contracts/markets/Comptroller/Comptroller.sol:Comptroller",
            "label": "isComped",
            "offset": 0,
            "slot": "4",
            "type": "t_bool"
          }
        ],
        "numberOfBytes": "160"
      },
      "t_uint224": {
        "encoding": "inplace",
        "label": "uint224",
        "numberOfBytes": "28"
      },
      "t_uint256": {
        "encoding": "inplace",
        "label": "uint256",
        "numberOfBytes": "32"
      },
      "t_uint32": {
        "encoding": "inplace",
        "label": "uint32",
        "numberOfBytes": "4"
      }
    }
  }
}