{
  "address": "0xb03ab75079A95A80875c7d22555cc8d9B7779f6a",
  "abi": [
    {
      "inputs": [
        {
          "internalType": "address",
          "name": "_dao",
          "type": "address"
        },
        {
          "internalType": "address",
          "name": "_distr",
          "type": "address"
        }
      ],
      "stateMutability": "nonpayable",
      "type": "constructor"
    },
    {
      "anonymous": false,
      "inputs": [
        {
          "indexed": false,
          "internalType": "address",
          "name": "",
          "type": "address"
        }
      ],
      "name": "ApproveWallet",
      "type": "event"
    },
    {
      "anonymous": false,
      "inputs": [
        {
          "indexed": false,
          "internalType": "address",
          "name": "",
          "type": "address"
        }
      ],
      "name": "RevokeWallet",
      "type": "event"
    },
    {
      "inputs": [],
      "name": "applySetChecker",
      "outputs": [],
      "stateMutability": "nonpayable",
      "type": "function"
    },
    {
      "inputs": [
        {
          "internalType": "address",
          "name": "_wallet",
          "type": "address"
        }
      ],
      "name": "approveWallet",
      "outputs": [],
      "stateMutability": "nonpayable",
      "type": "function"
    },
    {
      "inputs": [
        {
          "internalType": "address",
          "name": "_wallet",
          "type": "address"
        }
      ],
      "name": "check",
      "outputs": [
        {
          "internalType": "bool",
          "name": "",
          "type": "bool"
        }
      ],
      "stateMutability": "view",
      "type": "function"
    },
    {
      "inputs": [],
      "name": "checker",
      "outputs": [
        {
          "internalType": "address",
          "name": "",
          "type": "address"
        }
      ],
      "stateMutability": "view",
      "type": "function"
    },
    {
      "inputs": [
        {
          "internalType": "address",
          "name": "_checker",
          "type": "address"
        }
      ],
      "name": "commitSetChecker",
      "outputs": [],
      "stateMutability": "nonpayable",
      "type": "function"
    },
    {
      "inputs": [],
      "name": "dao",
      "outputs": [
        {
          "internalType": "address",
          "name": "",
          "type": "address"
        }
      ],
      "stateMutability": "view",
      "type": "function"
    },
    {
      "inputs": [],
      "name": "future_checker",
      "outputs": [
        {
          "internalType": "address",
          "name": "",
          "type": "address"
        }
      ],
      "stateMutability": "view",
      "type": "function"
    },
    {
      "inputs": [
        {
          "internalType": "address",
          "name": "_wallet",
          "type": "address"
        }
      ],
      "name": "revokeWallet",
      "outputs": [],
      "stateMutability": "nonpayable",
      "type": "function"
    },
    {
      "inputs": [
        {
          "internalType": "address",
          "name": "",
          "type": "address"
        }
      ],
      "name": "wallets",
      "outputs": [
        {
          "internalType": "bool",
          "name": "",
          "type": "bool"
        }
      ],
      "stateMutability": "view",
      "type": "function"
    }
  ],
  "transactionHash": "0x643c4ee1b6582125943245f14929fbcfba3a90a0d22ee5c0cebebc731e8b537a",
  "args": [
    "0x218c219BBe9b38C0160B9FF735940EAC6881C7d1",
    "0xA784b570cDF4D24a133b32689e71b48839012358"
  ],
  "numDeployments": 1,
  "solcInputHash": "ff16de1008cf78d01b0065176659d42f",
  "bytecode": "0x608060405234801561001057600080fd5b5060405161056c38038061056c83398101604081905261002f916100be565b600180546001600160a01b0319166001600160a01b03848116919091178255821660008181526020818152604091829020805460ff1916909417909355519081527fc1e7aae3f3125e58cfc69ab2a872a655dbb9427614aa85b29bb5abeaca4d6a92910160405180910390a150506100f1565b80516001600160a01b03811681146100b957600080fd5b919050565b600080604083850312156100d157600080fd5b6100da836100a2565b91506100e8602084016100a2565b90509250929050565b61046c806101006000396000f3fe608060405234801561001057600080fd5b50600436106100935760003560e01c806389b08f111161006657806389b08f11146100f85780638fcdecc81461012b578063943f35a41461013e578063c23697a814610151578063cf5303cf1461016457600080fd5b80630fcb0ae51461009857806326b42b1a146100ad5780634162169f146100b5578063808a9d40146100e5575b600080fd5b6100ab6100a63660046103cd565b610177565b005b6100ab610203565b6001546100c8906001600160a01b031681565b6040516001600160a01b0390911681526020015b60405180910390f35b6100ab6100f33660046103cd565b610251565b61011b6101063660046103cd565b60006020819052908152604090205460ff1681565b60405190151581526020016100dc565b6003546100c8906001600160a01b031681565b6100ab61014c3660046103cd565b6102ca565b61011b61015f3660046103cd565b610316565b6002546100c8906001600160a01b031681565b6001546001600160a01b031633146101aa5760405162461bcd60e51b81526004016101a1906103f6565b60405180910390fd5b6001600160a01b03811660008181526020818152604091829020805460ff1916600117905590519182527fc1e7aae3f3125e58cfc69ab2a872a655dbb9427614aa85b29bb5abeaca4d6a9291015b60405180910390a150565b6001546001600160a01b0316331461022d5760405162461bcd60e51b81526004016101a1906103f6565b600354600280546001600160a01b0319166001600160a01b03909216919091179055565b6001546001600160a01b0316331461027b5760405162461bcd60e51b81526004016101a1906103f6565b6001600160a01b03811660008181526020818152604091829020805460ff1916905590519182527f1b676c3cc753786cb95aff57280fd7406f1da74e2a8b9755fdd395aded3e16dd91016101f8565b6001546001600160a01b031633146102f45760405162461bcd60e51b81526004016101a1906103f6565b600380546001600160a01b0319166001600160a01b0392909216919091179055565b6001600160a01b03811660009081526020819052604081205460ff16801561033e5792915050565b6002546001600160a01b0316156103c457600254604051631846d2f560e31b81526001600160a01b0385811660048301529091169063c23697a890602401602060405180830381865afa158015610399573d6000803e3d6000fd5b505050506040513d601f19601f820116820180604052508101906103bd9190610414565b9392505050565b50600092915050565b6000602082840312156103df57600080fd5b81356001600160a01b03811681146103bd57600080fd5b6020808252600490820152632164616f60e01b604082015260600190565b60006020828403121561042657600080fd5b815180151581146103bd57600080fdfea2646970667358221220f3ef9d7b84f7c94049e8f3bb900e21435c20e922a87dc603ec3b5c983284279664736f6c63430008110033",
  "devdoc": {
    "kind": "dev",
    "methods": {},
    "version": 1
  },
  "userdoc": {
    "kind": "user",
    "methods": {},
    "version": 1
  },
  "storageLayout": {
    "storage": [
      {
        "astId": 1452,
        "contract": "contracts/SmartWalletWhitelist.sol:SmartWalletWhitelist",
        "label": "wallets",
        "offset": 0,
        "slot": "0",
        "type": "t_mapping(t_address,t_bool)"
      },
      {
        "astId": 1454,
        "contract": "contracts/SmartWalletWhitelist.sol:SmartWalletWhitelist",
        "label": "dao",
        "offset": 0,
        "slot": "1",
        "type": "t_address"
      },
      {
        "astId": 1456,
        "contract": "contracts/SmartWalletWhitelist.sol:SmartWalletWhitelist",
        "label": "checker",
        "offset": 0,
        "slot": "2",
        "type": "t_address"
      },
      {
        "astId": 1458,
        "contract": "contracts/SmartWalletWhitelist.sol:SmartWalletWhitelist",
        "label": "future_checker",
        "offset": 0,
        "slot": "3",
        "type": "t_address"
      }
    ],
    "types": {
      "t_address": {
        "encoding": "inplace",
        "label": "address",
        "numberOfBytes": "20"
      },
      "t_bool": {
        "encoding": "inplace",
        "label": "bool",
        "numberOfBytes": "1"
      },
      "t_mapping(t_address,t_bool)": {
        "encoding": "mapping",
        "key": "t_address",
        "label": "mapping(address => bool)",
        "numberOfBytes": "32",
        "value": "t_bool"
      }
    }
  }
}