{
  "address": "0x1b816ba6d0d09f618045fa91889b7a672c437992",
  "abi": [
    {
      "name": "Transfer",
      "inputs": [
        {
          "name": "_from",
          "type": "address",
          "indexed": true
        },
        {
          "name": "_to",
          "type": "address",
          "indexed": true
        },
        {
          "name": "_value",
          "type": "uint256",
          "indexed": false
        }
      ],
      "anonymous": false,
      "type": "event"
    },
    {
      "name": "Approval",
      "inputs": [
        {
          "name": "_owner",
          "type": "address",
          "indexed": true
        },
        {
          "name": "_spender",
          "type": "address",
          "indexed": true
        },
        {
          "name": "_value",
          "type": "uint256",
          "indexed": false
        }
      ],
      "anonymous": false,
      "type": "event"
    },
    {
      "name": "UpdateMiningParameters",
      "inputs": [
        {
          "name": "time",
          "type": "uint256",
          "indexed": false
        },
        {
          "name": "rate",
          "type": "uint256",
          "indexed": false
        },
        {
          "name": "supply",
          "type": "uint256",
          "indexed": false
        }
      ],
      "anonymous": false,
      "type": "event"
    },
    {
      "name": "SetMinter",
      "inputs": [
        {
          "name": "minter",
          "type": "address",
          "indexed": false
        }
      ],
      "anonymous": false,
      "type": "event"
    },
    {
      "name": "SetAdmin",
      "inputs": [
        {
          "name": "admin",
          "type": "address",
          "indexed": false
        }
      ],
      "anonymous": false,
      "type": "event"
    },
    {
      "stateMutability": "nonpayable",
      "type": "constructor",
      "inputs": [
        {
          "name": "_name",
          "type": "string"
        },
        {
          "name": "_symbol",
          "type": "string"
        },
        {
          "name": "_decimals",
          "type": "uint8"
        }
      ],
      "outputs": []
    },
    {
      "stateMutability": "nonpayable",
      "type": "function",
      "name": "update_mining_parameters",
      "inputs": [],
      "outputs": []
    },
    {
      "stateMutability": "nonpayable",
      "type": "function",
      "name": "start_epoch_time_write",
      "inputs": [],
      "outputs": [
        {
          "name": "",
          "type": "uint256"
        }
      ]
    },
    {
      "stateMutability": "nonpayable",
      "type": "function",
      "name": "future_epoch_time_write",
      "inputs": [],
      "outputs": [
        {
          "name": "",
          "type": "uint256"
        }
      ]
    },
    {
      "stateMutability": "view",
      "type": "function",
      "name": "available_supply",
      "inputs": [],
      "outputs": [
        {
          "name": "",
          "type": "uint256"
        }
      ]
    },
    {
      "stateMutability": "view",
      "type": "function",
      "name": "mintable_in_timeframe",
      "inputs": [
        {
          "name": "start",
          "type": "uint256"
        },
        {
          "name": "end",
          "type": "uint256"
        }
      ],
      "outputs": [
        {
          "name": "",
          "type": "uint256"
        }
      ]
    },
    {
      "stateMutability": "nonpayable",
      "type": "function",
      "name": "set_minter",
      "inputs": [
        {
          "name": "_minter",
          "type": "address"
        }
      ],
      "outputs": []
    },
    {
      "stateMutability": "nonpayable",
      "type": "function",
      "name": "set_admin",
      "inputs": [
        {
          "name": "_admin",
          "type": "address"
        }
      ],
      "outputs": []
    },
    {
      "stateMutability": "nonpayable",
      "type": "function",
      "name": "transfer",
      "inputs": [
        {
          "name": "_to",
          "type": "address"
        },
        {
          "name": "_value",
          "type": "uint256"
        }
      ],
      "outputs": [
        {
          "name": "",
          "type": "bool"
        }
      ]
    },
    {
      "stateMutability": "nonpayable",
      "type": "function",
      "name": "transferFrom",
      "inputs": [
        {
          "name": "_from",
          "type": "address"
        },
        {
          "name": "_to",
          "type": "address"
        },
        {
          "name": "_value",
          "type": "uint256"
        }
      ],
      "outputs": [
        {
          "name": "",
          "type": "bool"
        }
      ]
    },
    {
      "stateMutability": "nonpayable",
      "type": "function",
      "name": "approve",
      "inputs": [
        {
          "name": "_spender",
          "type": "address"
        },
        {
          "name": "_value",
          "type": "uint256"
        }
      ],
      "outputs": [
        {
          "name": "",
          "type": "bool"
        }
      ]
    },
    {
      "stateMutability": "nonpayable",
      "type": "function",
      "name": "mint",
      "inputs": [
        {
          "name": "_to",
          "type": "address"
        },
        {
          "name": "_value",
          "type": "uint256"
        }
      ],
      "outputs": [
        {
          "name": "",
          "type": "bool"
        }
      ]
    },
    {
      "stateMutability": "nonpayable",
      "type": "function",
      "name": "burn",
      "inputs": [
        {
          "name": "_value",
          "type": "uint256"
        }
      ],
      "outputs": [
        {
          "name": "",
          "type": "bool"
        }
      ]
    },
    {
      "stateMutability": "view",
      "type": "function",
      "name": "name",
      "inputs": [],
      "outputs": [
        {
          "name": "",
          "type": "string"
        }
      ]
    },
    {
      "stateMutability": "view",
      "type": "function",
      "name": "symbol",
      "inputs": [],
      "outputs": [
        {
          "name": "",
          "type": "string"
        }
      ]
    },
    {
      "stateMutability": "view",
      "type": "function",
      "name": "decimals",
      "inputs": [],
      "outputs": [
        {
          "name": "",
          "type": "uint8"
        }
      ]
    },
    {
      "stateMutability": "view",
      "type": "function",
      "name": "balanceOf",
      "inputs": [
        {
          "name": "arg0",
          "type": "address"
        }
      ],
      "outputs": [
        {
          "name": "",
          "type": "uint256"
        }
      ]
    },
    {
      "stateMutability": "view",
      "type": "function",
      "name": "allowance",
      "inputs": [
        {
          "name": "arg0",
          "type": "address"
        },
        {
          "name": "arg1",
          "type": "address"
        }
      ],
      "outputs": [
        {
          "name": "",
          "type": "uint256"
        }
      ]
    },
    {
      "stateMutability": "view",
      "type": "function",
      "name": "totalSupply",
      "inputs": [],
      "outputs": [
        {
          "name": "",
          "type": "uint256"
        }
      ]
    },
    {
      "stateMutability": "view",
      "type": "function",
      "name": "minter",
      "inputs": [],
      "outputs": [
        {
          "name": "",
          "type": "address"
        }
      ]
    },
    {
      "stateMutability": "view",
      "type": "function",
      "name": "admin",
      "inputs": [],
      "outputs": [
        {
          "name": "",
          "type": "address"
        }
      ]
    },
    {
      "stateMutability": "view",
      "type": "function",
      "name": "mining_epoch",
      "inputs": [],
      "outputs": [
        {
          "name": "",
          "type": "int128"
        }
      ]
    },
    {
      "stateMutability": "view",
      "type": "function",
      "name": "start_epoch_time",
      "inputs": [],
      "outputs": [
        {
          "name": "",
          "type": "uint256"
        }
      ]
    },
    {
      "stateMutability": "view",
      "type": "function",
      "name": "rate",
      "inputs": [],
      "outputs": [
        {
          "name": "",
          "type": "uint256"
        }
      ]
    }
  ],
  "transactionHash": "0x56d49049e4f0790df071ddd6661a43441fbc5b73552e100e6ae02a8a5ec0e228",
  "args": [
    "BAO DAO Token",
    "BAO",
    18
  ],
  "numDeployments": 1,
  "bytecode": "0x6020610c986000396000516020602082610c980160003960005111610c9357602081610c98016000396000518060405260208201602081610c98016000396000516060525050506020610cb86000396000516020602082610c980160003960005111610c9357602081610c98016000396000518060805260208201602081610c980160003960005160a0525050506020610cd86000396000518060081c610c935760c0526359682f00604e60c0511015610c935760c051600a0a808202821582848304141715610c93579050905060e05260405180600055606051600155506080518060025560a0516003555060c05160045560e05160053360205260005260406000205560e051600755336009553360007fddf252ad1be2c89b69c2b068fc378daa952ba7f163c4a11628f55a4df523b3ef60e051610100526020610100a342620151808181830110610c9357808201905090506301e13380808210610c935780820390509050600b557fffffffffffffffffffffffffffffffffffffffffffffffffffffffffffffffff600a556000600c5560e051600d55610ae06101b2630000000039610ae06000016300000000f3600436101561000d57610991565b60003560e01c34610adb5763d43b40fa811861004b57600b546301e133808181830110610adb57808201905090504210610adb57610049610997565b005b63adc4cf4381186100a357600b5460e05260e0516301e133808181830110610adb578082019050905042101561008857602060e06100a1566100a1565b610090610997565b600b546101005260206101006100a1565bf35b63b26b238e811861012d57600b5460e05260e0516301e133808181830110610adb57808201905090504210156100fd5760e0516301e133808181830110610adb578082019050905061010052602061010061012b5661012b565b610105610997565b600b546301e133808181830110610adb578082019050905061010052602061010061012b565bf35b6324f92a2581186101485760206101446040610a9a565b6040f35b63d725a9ca811861035b5760243560043511610adb576000604052600b54606052600c546080526060516301e133808181830110610adb578082019050905060243511156101df576060516301e133808181830110610adb5780820190509050606052608051670de0b6b3a7640000808202821582848304141715610adb5790509050671080e992061ab300808204905090506080525b6060516301e133808181830110610adb578082019050905060243511610adb5760006103e7905b8060a052606051602435106102eb5760243560c0526060516301e133808181830110610adb578082019050905060c0511115610258576060516301e133808181830110610adb578082019050905060c0525b60043560e0526060516301e133808181830110610adb578082019050905060e05110156103535760605160e051101561029a5760605160e05261029a56610353565b60405160805160c05160e051808210610adb5780820390509050808202821582848304141715610adb57905090508181830110610adb5780820190509050604052606051600435106102eb57610353565b6060516301e13380808210610adb5780820390509050606052608051671080e992061ab300808202821582848304141715610adb5790509050670de0b6b3a7640000808204905090506080526778ef89edad16a61560805111610adb57600101818118610206575b505060206040f35b631652e9fc81186103b8576004358060a01c610adb576040526009543318610adb57600854610adb576040516008557fcec52196e972044edde8689a1b608e459c5946b7f3e5c8cd3d6d8e126d422e1c60405160605260206060a1005b63e9333fab811861040e576004358060a01c610adb576040526009543318610adb576040516009557f5a272403b402d892977df56625f4164ccaf70ca3863991c43ecfe76a6905b0a160405160605260206060a1005b63a9059cbb81186104b8576004358060a01c610adb57604052600060405114610adb5760053360205260005260406000208054602435808210610adb57808203905090508155506005604051602052600052604060002080546024358181830110610adb5780820190509050815550604051337fddf252ad1be2c89b69c2b068fc378daa952ba7f163c4a11628f55a4df523b3ef60243560605260206060a3600160605260206060f35b6323b872dd81186105a9576004358060a01c610adb576040526024358060a01c610adb57606052600060605114610adb57600560405160205260005260406000208054604435808210610adb57808203905090508155506005606051602052600052604060002080546044358181830110610adb5780820190509050815550600660405160205260005260406000208033602052600052604060002090508054604435808210610adb57808203905090508155506060516040517fddf252ad1be2c89b69c2b068fc378daa952ba7f163c4a11628f55a4df523b3ef60443560805260206080a3600160805260206080f35b63095ea7b38118610656576004358060a01c610adb57604052602435156105f0576006336020526000526040600020806040516020526000526040600020905054156105f3565b60015b15610adb576024356006336020526000526040600020806040516020526000526040600020905055604051337f8c5be1e5ebec7d5bd14f71427d1e84f3dd0314c0f7b2291e5b200ac8c7c3b92560243560605260206060a3600160605260206060f35b6340c10f198118610749576004358060a01c610adb5760e0526008543318610adb57600060e05114610adb57600b546301e133808181830110610adb578082019050905042106106a8576106a8610997565b6007546024358181830110610adb5780820190509050610100526106cd610120610a9a565b610120516101005111610adb5761010051600755600560e051602052600052604060002080546024358181830110610adb578082019050905081555060e05160007fddf252ad1be2c89b69c2b068fc378daa952ba7f163c4a11628f55a4df523b3ef602435610120526020610120a36001610120526020610120f35b6342966c6881186107c957600754600435808210610adb578082039050905060075560053360205260005260406000208054600435808210610adb57808203905090508155506000337fddf252ad1be2c89b69c2b068fc378daa952ba7f163c4a11628f55a4df523b3ef60043560405260206040a3600160405260206040f35b6306fdde03811861081957602080604052806040016000548082526020820160015481525050805180602083010181600003601f163682375050601f19601f825160200101169050810190506040f35b6395d89b41811861086957602080604052806040016002548082526020820160035481525050805180602083010181600003601f163682375050601f19601f825160200101169050810190506040f35b63313ce56781186108805760045460405260206040f35b6370a0823181186108b3576004358060a01c610adb57604052600560405160205260005260406000205460605260206060f35b63dd62ed3e8118610905576004358060a01c610adb576040526024358060a01c610adb576060526006604051602052600052604060002080606051602052600052604060002090505460805260206080f35b6318160ddd811861091c5760075460405260206040f35b630754617281186109335760085460405260206040f35b63f851a440811861094a5760095460405260206040f35b63f9a40bf6811861096157600a5460405260206040f35b637375be26811861097857600b5460405260206040f35b632c4e722e811861098f57600c5460405260206040f35b505b60006000fd5b600c54604052600d54606052600b546301e133808181830110610adb5780820190509050600b55600a54600180820180600f0b8118610adb5790509050600a5560405115610a4f576060516040516301e13380808202821582848304141715610adb57905090508181830110610adb5780820190509050606052606051600d55604051670de0b6b3a7640000808202821582848304141715610adb5790509050671080e992061ab30080820490509050604052610a5c565b6778ef89edad16a6156040525b604051600c557f27e46362a1e6129b6dd539c984ce739291a97128dfcaeca1255e8ac83abd94414260805260405160a05260605160c05260606080a1565b600d5442600b54808210610adb5780820390509050600c54808202821582848304141715610adb57905090508181830110610adb5780820190509050815250565b600080fd005b600080fd"
}