{
  "address": "0x4a3C60851D71527593932c41D4165EDfC7D26653",
  "abi": [
    {
      "inputs": [
        {
          "internalType": "address",
          "name": "_baoV2",
          "type": "address"
        }
      ],
      "stateMutability": "nonpayable",
      "type": "constructor"
    },
    {
      "inputs": [],
      "name": "baoV1",
      "outputs": [
        {
          "internalType": "contract ERC20",
          "name": "",
          "type": "address"
        }
      ],
      "stateMutability": "view",
      "type": "function"
    },
    {
      "inputs": [],
      "name": "baoV2",
      "outputs": [
        {
          "internalType": "contract IERC20BAO",
          "name": "",
          "type": "address"
        }
      ],
      "stateMutability": "view",
      "type": "function"
    },
    {
      "inputs": [
        {
          "internalType": "address",
          "name": "_to",
          "type": "address"
        },
        {
          "internalType": "uint256",
          "name": "_amount",
          "type": "uint256"
        }
      ],
      "name": "convertV1",
      "outputs": [],
      "stateMutability": "nonpayable",
      "type": "function"
    }
  ],
  "transactionHash": "0x95ebe7dfc3dbd5e6f5a14664ab3d580e2201652d1132c3c17c3587ccf733f383",
  "args": [
    "0x1b816ba6d0d09f618045fa91889b7a672c437992"
  ],
  "numDeployments": 1,
  "solcInputHash": "0e7ce5040e409be6dd87af1e8fa76ad9",
  "bytecode": "0x60c0604052600160005534801561001557600080fd5b506040516103c13803806103c18339810160408190526100349161005d565b73374cb8c27130e2c9e04f44303f3c8351b9de61c16080526001600160a01b031660a05261008d565b60006020828403121561006f57600080fd5b81516001600160a01b038116811461008657600080fd5b9392505050565b60805160a0516103036100be6000396000818160a301526101b10152600081816060015261013101526103036000f3fe608060405234801561001057600080fd5b50600436106100415760003560e01c8063a4f3f05b14610046578063d9f55a971461005b578063eb4b24db1461009e575b600080fd5b61005961005436600461024a565b6100c5565b005b6100827f000000000000000000000000000000000000000000000000000000000000000081565b6040516001600160a01b03909116815260200160405180910390f35b6100827f000000000000000000000000000000000000000000000000000000000000000081565b6000546001146101085760405162461bcd60e51b815260206004820152600a6024820152695245454e5452414e435960b01b604482015260640160405180910390fd5b60026000556040516323b872dd60e01b815233600482015261dead6024820152604481018290527f00000000000000000000000000000000000000000000000000000000000000006001600160a01b0316906323b872dd906064016020604051808303816000875af1158015610182573d6000803e3d6000fd5b505050506040513d601f19601f820116820180604052508101906101a69190610282565b506001600160a01b037f00000000000000000000000000000000000000000000000000000000000000001663a9059cbb836101e36103e8856102ab565b6040516001600160e01b031960e085901b1681526001600160a01b0390921660048301526024820152604401600060405180830381600087803b15801561022957600080fd5b505af115801561023d573d6000803e3d6000fd5b5050600160005550505050565b6000806040838503121561025d57600080fd5b82356001600160a01b038116811461027457600080fd5b946020939093013593505050565b60006020828403121561029457600080fd5b815180151581146102a457600080fd5b9392505050565b6000826102c857634e487b7160e01b600052601260045260246000fd5b50049056fea26469706673582212208fb1dc6993844090fe38a54f0db32d42680c13143bcc09b3c2e26bafcda3bb2864736f6c634300080d0033",
  "devdoc": {
    "kind": "dev",
    "methods": {},
    "version": 1
  },
  "userdoc": {
    "kind": "user",
    "methods": {},
    "version": 1
  },
  "storageLayout": {
    "storage": [
      {
        "astId": 948,
        "contract": "contracts/Swapper.sol:Swapper",
        "label": "locked",
        "offset": 0,
        "slot": "0",
        "type": "t_uint256"
      }
    ],
    "types": {
      "t_uint256": {
        "encoding": "inplace",
        "label": "uint256",
        "numberOfBytes": "32"
      }
    }
  }
}